:020000040800F2
:100000009834002005570008250700082707000836
:100010002B0700082F070008330700080000000026
:10002000000000000000000000000000370700088A
:1000300039070008000000008BFC00088D54000800
:100040001F5700081F5700081F5700081F570008B8
:100050001F5700081F5700081F5700081F570008A8
:100060001F5700081F5700081F5700081F57000898
:100070001F5700081F5700081F5700081F57000888
:100080001F5700081F5700081F5700081F57000878
:100090001F5700081F5700081F5700081F57000868
:1000A0001F5700081F5700081F5700081F57000858
:1000B0001F5700081F5700081F5700081F57000848
:1000C0001F5700081F5700081F5700081F57000838
:1000D0001F570008715600081F5700081F570008D7
:1000E0001F5700081F5700081F5700081F57000818
:1000F0001F5700081F5700081F5700081F57000808
:100100001F5700081F5700081F5700081F570008F7
:100110001F5700081F5700081F5700081F570008E7
:100120001F5700081F5700081F5700081F570008D7
:1001300000F002F800F062F80AA090E8000C824497
:100140008344AAF10107DA4501D100F057F8AFF274
:10015000090EBAE80F0013F0010F18BFFB1A43F0A5
:100160000103184794190100B41901000A444FF023
:10017000000C10F8013B13F0070408BF10F8014B06
:100180001D1108BF10F8015B641E05D010F8016B4B
:10019000641E01F8016BF9D113F0080F1EBF10F8AF
:1001A000014BAD1C0C1B09D16D1E58BF01F801CBD2
:1001B000FAD505E014F8016B01F8016B6D1EF9D555
:1001C0009142D6D37047000000230024002500266A
:1001D000103A28BF78C1FBD8520728BF30C148BFAA
:1001E0000B60704764290FF0118478290FF04A845E
:1001F000002070471FB51FBD10B510BD0FF0FAFCF1
:100200001146FFF7F7FF00F0BEF90FF018FD03B439
:10021000FFF7F2FF03BC05F0CDF900000EB5002496
:10022000002500BF0020FE49088000BF00BF00BFBE
:1002300006F014FA054600BF00BFFA480078401CDB
:10024000F849087000BF00BF284606F00BFA00BF4F
:1002500000BF00BF4FF49D73EA226E217D2004F0A1
:100260001AFF1F20EE490880EFA010210B466E22D6
:10027000CDE900106F217E2005F0C2F800BF00BF5D
:1002800000BF06F0EBF9054600BF00BFE548007867
:10029000401EE449087008460078A0B9E648008886
:1002A000002809DD00BF00BF284606F0DBF900BFCB
:1002B00000BF08F084FC0DE000BF00BF284606F038
:1002C000D1F900BF06E000BF00BF284606F0CAF91A
:1002D00000BF00BF00BF31E0601CC4B2D748006857
:1002E000C043D749C1F894012146D6A00FF04EFB78
:1002F0008020102103232246CDE900106F21CE205B
:1003000005F010F80E2094FBF0F100FB1140C0F155
:100310000D00D24931F8200086B240F23913E922AB
:1003200083217E20009604F0D1FD02A800210B4617
:100330000122CDE9001008460EF041FBCCE70EB5D6
:100340000024002600BF0020B549088000BF00BF80
:1003500000BF06F083F9064600BF00BFB148007831
:10036000401CB049087000BF00BF304606F07AF963
:1003700000BF00BF00BF4FF49D7373226E210520A4
:1003800004F089FE822373221946052004F02BFE17
:100390001F20A3490880B2A010210B466E22CDE990
:1003A00000106F21062005F02BF800BF00BF00BF32
:1003B00006F054F9064600BF00BF9A480078401E78
:1003C0009849087008460078A0B99B480088002822
:1003D00009DD00BF00BF304606F044F900BF00BF92
:1003E00008F0EDFB0DE000BF00BF304606F03AF923
:1003F00000BF06E000BF00BF304606F033F900BF83
:1004000000BF00BF35E0601CC4B2002526E098485C
:100410000068C0439749C1F89401214696A00FF0A7
:10042000B5FA0E2094FBF0F100FB11408B4931F836
:10043000200087B240F239137222832106200097F0
:1004400004F044FD8020102103232246CDE9001052
:100450006F21562004F066FF681CC5B2052DD6DB5F
:1004600002A800210B460122CDE9001008460EF03B
:10047000A6FAC8E730B58BB00446002500BF05F0EA
:10048000B5FF0AA80BF029FF0AAA0121084607F0C8
:10049000AEFF00BF00BF00BF06F0E0F8054600BF9A
:1004A00000BF60480078401C5E49087000BF00BF74
:1004B000284606F0D7F800BF00BF00BF0AA80321F6
:1004C00000220123CDE90532CDE907101046802135
:1004D0000C226F4BCDE90132CDE90310042000233B
:1004E000AFF2A5126BA100906D480CF0CDFA0AA8EE
:1004F000032100220223CDE90532CDE90710104681
:1005000080210C22674BCDE90132CDE90310042094
:100510000023AFF2F72264A1009066480CF0B4FA11
:1005200000BF00BF00BF06F099F8054600BF00BF3E
:100530003C480078401E3B49087008460078A0B946
:100540003D480088002809DD00BF00BF284606F0AE
:1005500089F800BF00BF08F032FB0DE000BF00BF0C
:10056000284606F07FF800BF06E000BF00BF28461F
:1005700006F078F800BF00BF00BF0AA900200CF009
:10058000D7FB0BB030BD10B58AB0002404F08AFF51
:100590004FF4A06005F0D6F84FF4E13005F019F8FB
:1005A00000F0BCF901F0AAF809A807F0F1FC00BFBF
:1005B00000BF00BF06F052F8044600BF00BF194854
:1005C0000078401C1749087000BF00BF204606F0A5
:1005D00049F800BF00BF00BF09A80321002205920F
:1005E000CDE906210890104680210C22324BCDE93E
:1005F0000132CDE9031003200023AFF287122FA1AF
:10060000009031480CF040FA00BF00BF00BF06F078
:1006100025F8044600BF00BF02480078401E55E0A0
:100620004C000020E80000205461736B32205275AA
:100630006E3A303030000000AC00002094012342BC
:1006400000002342C8CECEF132D2D1BEADD6B4D056
:10065000D0A3BA2564B4CE0D0A000000000000202B
:100660005461736B312052756E3A303030000000A7
:100670009481214200802142C8CECEF131D2D1BE38
:10068000ADD6B4D0D0A3BA2564B4CE0D0A00000014
:10069000D40400205461736B31207461736B0000CB
:1006A00010040020980700207461736B322074617D
:1006B000736B0000D4060020100200207374617276
:1006C00074207461736B00004C01002013490870A2
:1006D00008460078A0B912480088002809DD00BF4C
:1006E00000BF204605F0BEFF00BF00BF08F067FA5C
:1006F0000DE000BF00BF204605F0B4FF00BF06E0DC
:1007000000BF00BF204605F0ADFF00BF00BF00BF27
:1007100009A807F00CFF00200AB010BDE800002077
:10072000AC000020704700BFFEE700BFFEE700BF3F
:10073000FEE700BFFEE77047704700000CB50020E1
:10074000019000906C48006840F480306A4908606D
:1007500000BF6948006800F4003000900198401C18
:100760000190009818B90198B0F5A06FF1D16248D6
:10077000006800F4003010B10120009001E000207A
:1007800000900098012843D15C48006840F01000B8
:100790005A4908600846006820F0030008600846CF
:1007A000006840F0020008605348406852494860C1
:1007B0000846406848600846406840F480604860E9
:1007C0000846406820F47C1048600846406840F4C1
:1007D000E81048600846006840F08070086000BF7C
:1007E0004548006800F000700028F9D04248406891
:1007F00020F00300404948600846406840F002008D
:10080000486000BF3C48406800F00C000828F9D15F
:100810000CBD10B5FFF792FF10BD10B5364800684B
:1008200040F00100344908600846406834490840F7
:100830003149486008460068324908402E4908603E
:100840000846006820F4802008600846406820F4CC
:10085000FE0048604FF41F008860FFF7DAFF4FF09A
:1008600000602949086010BD10B500210020002259
:10087000214B5B6803F00C0121B1042906D0082943
:1008800028D107E0214B224C236027E01F4B204C4E
:10089000236023E0184B5B6803F47010164B5B6811
:1008A00003F48032022303EB904022B9194B4343F7
:1008B000174C23600DE0104B5B6803F4003323B149
:1008C000144B4343124C236003E0104B4343104C42
:1008D000236003E00D4B0E4C236000BF00BF064BAE
:1008E0005B68C3F303130C4CE15C094B1B68CB4002
:1008F000074C236010BD00000010024000200240A1
:100900000000FFF8FFFFF6FE08ED00E000127A009D
:100910003800002000093D003C00002008B50121FE
:10092000482005F09DFC2020ADF8000010208DF837
:10093000030003208DF802006946094804F0D0FF47
:100940002021074805F079F82020ADF8000069461D
:10095000044804F0C5FF2021024805F06EF808BDE8
:10096000000C01400018014001B5BDF800000090E6
:10097000BDF80000FB49088008BD01B5BDF80000C6
:100980000090BDF80000F749891C088008BD08B533
:10099000F448801C00880090BDF8000008BD03B535
:1009A000BDF80000EF490880BDF80400891C0880EC
:1009B0000CBD01B5BDF80000FFF7D6FF052004F01F
:1009C0009FFDFFF7E4FF08BDE7480089E54908807F
:1009D0007047E449891C0880704730B5014601F032
:1009E0001F04C1F34513CA0AE50205EB431515447C
:1009F000A8B230BD00BF0100A0F10102D0B2FAD10F
:100A0000704730B504460D46D748808849F24131D9
:100A1000884205D0D448808845F21031884214D1EC
:100A2000D1494889FFF7A0FF2012FFF7A6FFE0B2E7
:100A3000FFF7A3FFCC498889FFF796FF2812FFF73D
:100A40009CFFE8B2FFF799FFABE0C748808846F605
:100A5000040188421DD1C4488079012804D1C248CC
:100A60000088401E001B84B2BF494889FFF77CFF05
:100A70002012FFF782FFE0B2FFF77FFFBA498889B3
:100A8000FFF772FF2812FFF778FFE8B2FFF775FF54
:100A900087E0B548808841F66311884247D1B24863
:100AA0008079A8B9B0480088401E001B84B2AE49C6
:100AB0004889FFF759FF0020FFF75FFF0020FFF78D
:100AC0005CFF2012FFF759FFE0B2FFF756FF16E078
:100AD000A5494889FFF748FF2012FFF74EFFE0B213
:100AE000FFF74BFFA0490988491EC1F30F20FFF70C
:100AF00044FF9D490978491EC8B2FFF73EFF9A4955
:100B00008889FFF731FF2812FFF737FFE8B2FFF7B8
:100B100034FF95494988491EC1F30F20FFF72DFF87
:100B200091498978491EC8B2FFF727FF39E08E48FE
:100B3000808845F21051884220D18B494889FFF7BF
:100B400013FF2012FFF719FF87494989491C88B212
:100B5000FFF70AFFE0B2FFF710FF83498889FFF72C
:100B600003FF2812FFF709FF7F498989491C88B2D2
:100B7000FFF7FAFEE8B2FFF700FF12E07A4880794B
:100B8000012804D178480088401E001B84B27649B1
:100B900048892146FFF703FF734988892946FFF7F3
:100BA000FEFE30BD3EB504460D4600200290019089
:100BB00000906D480088A04203DD6B484088A84241
:100BC00001DC00203EBD29462046FFF71AFF66489B
:100BD000808849F24131884211D06348808846F6C6
:100BE000040188420BD06048808845F21031884269
:100BF00005D05D48808841F66311884203D12E20DC
:100C0000FFF7B2FE0DE05848808845F21051884247
:100C100004D14FF43850FFF7A7FE02E02220FFF77F
:100C2000A3FE5148808849F22031884202D1022037
:100C3000FFF7E0FEFFF7ABFE02904B48808841F6DD
:100C40006311884202D1BDF80800BBE70220FFF71C
:100C5000D1FEFFF79CFE02904348808849F2413163
:100C600088420BD04048808845F21031884205D038
:100C70003D48808845F21051884210D10220FFF78C
:100C8000B9FEFFF784FE0090BDF80800C0B20190E5
:100C9000BDF804004FF6FF7101EA002001903248D0
:100CA000808849F22531884216D02F48808844F246
:100CB0003551884210D02C488088091F88420BD0BB
:100CC000294880884BF20551884205D02648808803
:100CD0004CF20551884202D1BDF8080072E7224863
:100CE000808849F2413188420BD01F48808845F204
:100CF0001031884205D01C48808845F21051884246
:100D00000DD1BDF80800C012C002BDF80410891250
:100D100040EA4110BDF8001040EAE12052E7BDF87A
:100D20000800FFF75AFE4DE700B50F48808849F2EA
:100D30004131884211D00C48808846F6040188422F
:100D40000BD00948808845F21031884205D006480A
:100D5000808841F66311884208D12920FFF704FEFC
:100D600014E00000FE07006C98090020FE4880880F
:100D700045F21051884204D14FF42450FFF7F4FD9E
:100D800004E040F273110720FFF709FE00BD00B533
:100D9000F548808849F24131884211D0F248808874
:100DA00046F6040188420BD0EF48808845F21031A6
:100DB000884205D0EC48808841F66311884203D10F
:100DC0002820FFF7D1FD0EE0E748808845F210515A
:100DD000884204D14FF42050FFF7C6FD03E0002104
:100DE0000720FFF7DCFD00BDF0B505460024002715
:100DF000DD48807901280BD1DB48808846F6040164
:100E0000884205D0D848808841F66311884208D1CD
:100E1000D5488079F0B9D448808841F6631188427A
:100E200018D1082D15D2DFE805F00406080A0C0ECB
:100E3000101206250DE007250BE0042509E0052525
:100E400007E0012505E0002503E0032501E0022578
:100E500000BF00BFC448808849F24131884217D0A2
:100E6000C148808846F60401884211D0BE48808877
:100E700045F2103188420BD0BB48808845F21051B2
:100E8000884205D0B848808841F6631188427DD1F8
:100E9000082D1CD2DFE805F00406090C0F12151806
:100EA00000BF14E044F0800411E044F040040EE080
:100EB00044F0C0040BE044F0200408E044F0600477
:100EC00005E044F0A00402E044F0E00400BF00BFED
:100ED000A548808845F21051884202D14FF45857F6
:100EE00000E03627A048808845F2103188420DD0B6
:100EF0009D48808845F21051884207D09A488088E2
:100F000041F66311884201D044F008049648808875
:100F100046F60401884201D144F0020421463846D5
:100F2000FFF73DFD9048808841F6631188421DD04F
:100F300004F0200068B18C4800888B4949888842B9
:100F400014DA894806884088874908800846468020
:100F50000CE08548008884494988884206DD82483B
:100F60000688408880490880084646807E488088F8
:100F700045F21051884254D17B494889FFF7F4FC6F
:100F80000020FFF7FAFC7849498900E078E0491C25
:100F900088B2FFF7E9FC0020FFF7EFFC72494989AE
:100FA000891C88B2FFF7E0FC6F490988491EC1F32C
:100FB0000F20FFF7E2FC6C494989C91C88B2FFF792
:100FC000D3FC69490978491EC8B2FFF7D6FC6649C7
:100FD0008889FFF7C9FC0020FFF7CFFC62498989A7
:100FE000491C88B2FFF7C0FC0020FFF7C6FC5E4931
:100FF0008989891C88B2FFF7B7FC5B494988491E7B
:10100000C1F30F20FFF7B9FC57498989C91C88B281
:10101000FFF7AAFC54498978491EC8B2FFF7ADFC16
:1010200055E051494889FFF79FFC0020FFF7A5FCD8
:101030000020FFF7A2FC4C490988491EC1F30F208C
:10104000FFF79BFC48490978491EC8B2FFF795FC99
:1010500045498889FFF788FC0020FFF78EFC0020B7
:10106000FFF78BFC40494988491EC1F30F20FFF769
:1010700084FC3D498978491EC8B2FFF77EFC26E012
:10108000082D1CD2DFE805F004070A0D0F12151811
:1010900044F0300413E044F0100410E044F0200465
:1010A0000DE000BF0BE044F0380408E044F02804F1
:1010B00005E044F0180402E044F0080400BF00BF5B
:1010C000032744F4805421463846FFF768FCF0BDFE
:1010D00030B504460D4629462046FFF792FCFFF73F
:1010E00073FC224800882249088030BD70B5044650
:1010F0000D4616461C48808849F24131884205D089
:101100001948808845F21031884214D1164948891F
:10111000FFF72AFC2012FFF730FCE0B2FFF72DFCAE
:1011200011498889FFF720FC2812FFF726FCE8B256
:10113000FFF723FC93E00C48808845F21051884269
:1011400027D109494889FFF70FFC2012FFF715FC4A
:1011500005494989491C88B2FFF706FCE0B2FFF750
:101160000CFC0149888905E0980900204C0000200A
:101170000008006CFFF7F8FB2812FFF7FEFBFE49A2
:101180008989491C88B2FFF7EFFBE8B2FFF7F5FB4E
:1011900065E0F948808841F66311884228D1F64815
:1011A000807920B9F4480088401E001B84B2F249BF
:1011B0004889FFF7D9FB2012FFF7DFFBE0B2FFF70A
:1011C000DCFB2012FFF7D9FBE0B2FFF7D6FBEA49C0
:1011D0008889FFF7C9FB2812FFF7CFFBE8B2FFF7BA
:1011E000CCFB2812FFF7C9FBE8B2FFF7C6FB36E0DD
:1011F000E148808846F6040188421DD1DE488079A6
:10120000012804D1DC480088401E001B84B2DA4962
:101210004889FFF7A9FB2012FFF7AFFBE0B2FFF709
:10122000ACFBD5498889FFF79FFB2812FFF7A5FB88
:10123000E8B2FFF7A2FB12E0CF488079012804D181
:10124000CD480088401E001B84B2CB494889214606
:10125000FFF7A5FBC84988892946FFF7A0FBC648C8
:101260000089C6490880881C068070BD2DE9F047BA
:101270000446BE20FFF778FB0520FFF77EFB2046E3
:101280000EF061FD07464FF06632BD4B0EF06EFD6D
:1012900005460EF02BFD1FFA80F94846FFF76DFB5F
:1012A0000120FFF76AFBFF20FFF767FB0020FFF735
:1012B00064FB0020FFF761FBBDE8F08710B5044632
:1012C000002C66D1AC498871F02008804FF4A070E2
:1012D00048800846808849F2413188420BD0A648B0
:1012E000808846F60401884205D0A348808845F2EC
:1012F000103188421AD12C209F4908812A20488128
:101300002B2088810846808846F60401884205D053
:101310009948808845F21031884206D14FF4A07078
:10132000954908804FF4F0704880A1E09248808889
:1013300045F21051884210D14FF430508E49088147
:101340004FF4285048814FF42C5088814FF4F070AE
:1013500008804FF4487048808AE08748808841F6CA
:10136000631188420DD12C20834908812B204881AC
:101370002A2088814FF4F07008804FF4487048802C
:1013800076E022207C490881202048812120888124
:101390006EE00120784988714FF4A0700880F02039
:1013A00048800846808849F24131884205D0724819
:1013B000808845F21031884207D12C206E4908817F
:1013C0002A2048812B2088813FE06B48808846F6A0
:1013D0000401884207D12C20674908812B204881CD
:1013E0002A20888131E06448808845F21051884283
:1013F00010D14FF43050604908814FF42850488193
:101400004FF42C5088814FF4487008804FF4F070EE
:1014100048801AE05848808841F6631188420DD10F
:101420002C20554908812A2048812B2088814FF49F
:10143000487008804FF4F070488006E022204E4942
:10144000088121204881202088814B48808846F6E9
:101450000401884205D04848808845F2103188420E
:1014600006D14FF4F070444908804FF4A0704880D2
:101470000020FFF7B9FC10BD2DE9F04F86B00446FF
:101480000D469046994604EB0800401E86B205EBD7
:101490000900401E87B23848808849F241318842AD
:1014A00015D03548808845F2103188420FD0324837
:1014B000808846F60401884209D02F4880790128A7
:1014C00026D12D48808841F66311884220D12A49CF
:1014D0004889FFF749FA2012FFF74FFAE0B2FFF709
:1014E0004CFA3012FFF749FAF0B2FFF746FA2249F8
:1014F0008889FFF739FA2812FFF73FFAE8B2FFF7B9
:101500003CFA3812FFF739FAF8B2FFF736FAC0E0C2
:101510001948808841F6631188423CD116480088FA
:10152000A0EB0800001B84B205EB0900401E1FFA67
:1015300080F911494889FFF717FA2012FFF71DFAC1
:10154000E0B2FFF71AFA04EB0801491EC1F30F20BD
:10155000FFF713FA04EB0801491EC8B2FFF70DFAB2
:1015600005498889FFF700FA2812FFF706FAE8B262
:10157000FFF703FA06E0000098090020FE07006C60
:10158000666604404FEA2920FFF7F7F909F0FF00EB
:10159000FFF7F3F97DE0FE48808845F2105188425C
:1015A00044D1FB494889FFF7DFF92012FFF7E5F93D
:1015B000F7494989491C88B2FFF7D6F9E0B2FFF72D
:1015C000DCF9F3494989891C88B2FFF7CDF930125B
:1015D000FFF7D3F9EE494989C91C88B2FFF7C4F96E
:1015E000F0B2FFF7CAF9EA498889FFF7BDF9281276
:1015F000FFF7C3F9E6498989491C88B2FFF7B4F9B6
:10160000E8B2FFF7BAF9E2498989891C88B2FFF785
:10161000ABF93812FFF7B1F9DD498989C91C88B2E5
:10162000FFF7A2F9F8B2FFF7A8F932E0D8488079BD
:1016300001280ED1AA46BB46D5480088801B401E13
:1016400080B20190D2480088001B401E80B20090FA
:1016500003E0A246B3460195009750200590512023
:101660000490522003905320029051460598FFF7B2
:1016700096F959460498FFF792F901990398FFF7F4
:101680008EF900990298FFF78AF929462046FFF75C
:10169000B8F906B0BDE8F08F70B504460026BC4826
:1016A000058840884543BA48808846F60401884248
:1016B00016D1B7488079012812D10020B449887129
:1016C0002A2048812B20888100210846FFF799F9BC
:1016D0000120AF4988712B2048812A20888103E0AE
:1016E00000210846FFF78DF9FFF76EF9002602E0AA
:1016F000A8480480761CAE42FAD370BD10B5A64847
:10170000406940F48070A44948610846806940F00F
:10171000080088610846806940F02000886108461A
:10172000806940F0400088610846806940F480701C
:1017300088619A48006820F00F00984908600846C0
:10174000006840F00300086095480068954908402B
:101750009349086008460068934908439049086027
:10176000081F006800F0FF20091F08600846006895
:1017700040F0BB1008608D48006800208B4908606D
:101780000846006840F0BB300860081F006820F081
:101790007040091F08600846006840F0304008604B
:1017A0008348406820F470208149486008464068BA
:1017B00040F4302048600846006820F00F000860C0
:1017C0000846006840F00B00086000204FF0204100
:1017D0008861C861774908604FF02040806940F413
:1017E00080504FF0204188610846806940F4804075
:1017F00088610846806940F0100088610846C06929
:10180000C8610846C06940F00100C8610846C06967
:1018100040F47060C86167480068C1F81C01654801
:101820000068C1F81C010846D0F81C0140F4407063
:10183000C1F81C010846806940F00100886132202F
:1018400003F089FE0020FFF7B4F85149888008466C
:101850008088FF280ADB084680884FF6FF7188429F
:1018600004D04B488088B0F5134F7CD1D320FFF7CC
:101870007BF8FFF78CF846498880FFF788F84449E1
:101880008880FFF784F842498880084680884FF6B0
:10189000FF7101EA00203E498880FFF778F83C4953
:1018A000898808433A4988800846808849F241314E
:1018B000884258D0BF20FFF757F8FFF768F834493F
:1018C0008880FFF764F832498880FFF760F8304974
:1018D0008880FFF75CF82E498880084680884FF69C
:1018E000FF7101EA00202A498880FFF750F8284953
:1018F00089880843264988800846808846F604017E
:10190000884230D0D420FFF72FF8FFF740F8204965
:101910008880FFF73CF81E498880FFF738F81C499B
:101920008880084680884FF6FF7101EA0020184938
:101930008880FFF72CF81649898808431449888065
:101940000846808845F2103188426BD04FF45A40E7
:10195000FFF70AF8FFF71BF80D4988804FF45B404A
:10196000FFF702F800E05DE0FFF711F80849888012
:10197000084680884FF6FF7101EA002004498880FC
:101980004FF45C40FEF7F0FFFFF701F8004913E069
:10199000980900200008006C00100240000C014073
:1019A0000414014000F0FF00BB0B00BB0418014011
:1019B000002001401C0100A089880843FE4988805E
:1019C00008468088B0F5004F02D145F2105088805B
:1019D000F948808845F21051884223D0A120FEF7B3
:1019E000C3FFFEF7D4FFF4498880FEF7D0FFF24929
:1019F0008880084680884FF6FF7101EA0020EE4992
:101A00008880FEF7C4FFEC4989880843EA4988804A
:101A10000846808845F26171884203D141F663101F
:101A2000E5498880E4488188E4A00DF0AFFFE248F2
:101A3000808849F2413188427ED1CF20FEF794FF61
:101A40000020FEF79AFFC120FEF797FF3020FEF737
:101A500094FFED20FEF788FF6420FEF78EFF032041
:101A6000FEF78BFF1220FEF788FF8120FEF785FF2F
:101A7000E820FEF779FF8520FEF77FFF1020FEF7B4
:101A80007CFF7A20FEF779FFCB20FEF76DFF39202F
:101A9000FEF773FF2C20FEF770FF0020FEF76DFFAE
:101AA0003420FEF76AFF0220FEF767FFF720FEF7FB
:101AB0005BFF2020FEF761FFEA20FEF755FF0020C4
:101AC000FEF75BFF0020FEF758FFC020FEF74CFF3B
:101AD0001B20FEF752FFC120FEF746FF0120FEF754
:101AE0004CFFC520FEF740FF3020FEF746FF3020B8
:101AF000FEF743FFC720FEF737FFB720FEF73DFF95
:101B00003620FEF731FF4820FEF737FF3A20FEF778
:101B10002BFF5520FEF731FFB120FEF725FF0020F7
:101B2000FEF72BFF1A20FEF728FFB620FEF71CFF5A
:101B30000A20FEF722FF00E097E0A220FEF71DFF3B
:101B4000F220FEF711FF0020FEF717FF2620FEF718
:101B50000BFF0120FEF711FFE020FEF705FF0F202D
:101B6000FEF70BFF2A20FEF708FF2820FEF705FFEF
:101B70000820FEF702FF0E20FEF7FFFE0820FEF70A
:101B8000FCFE5420FEF7F9FEA920FEF7F6FE4320E6
:101B9000FEF7F3FE0A20FEF7F0FE0F20FEF7EDFE43
:101BA0000020FEF7EAFE0020FEF7E7FE0020FEF729
:101BB000E4FE0020FEF7E1FEE120FEF7D5FE002066
:101BC000FEF7DBFE1520FEF7D8FE1720FEF7D5FE48
:101BD0000720FEF7D2FE1120FEF7CFFE0620FEF70B
:101BE000CCFE2B20FEF7C9FE5620FEF7C6FE3C2099
:101BF000FEF7C3FE0520FEF7C0FE1020FEF7BDFE77
:101C00000F20FEF7BAFE3F20FEF7B7FE3F20FEF79B
:101C1000B4FE0F20FEF7B1FE2B20FEF7A5FE00203C
:101C2000FEF7ABFE0020FEF7A8FE0120FEF7A5FEA2
:101C30003F20FEF7A2FE2A20FEF796FE0020FEF7C8
:101C40009CFE0020FEF799FE0020FEF796FEEF2096
:101C5000FEF793FE1120FEF787FE782003F07BFC51
:101C60002920FEF781FE03F026B95348808846F606
:101C7000040188427ED11120FEF776FE142003F085
:101C80006AFCD020FEF770FE0720FEF776FE4220A9
:101C9000FEF773FE1D20FEF770FED120FEF764FEF6
:101CA0000020FEF76AFE1A20FEF767FE0920FEF705
:101CB00064FED220FEF758FE0120FEF75EFE2220D1
:101CC000FEF75BFEC020FEF74FFE1020FEF755FE2C
:101CD0003B20FEF752FE0020FEF74FFE0220FEF7EB
:101CE0004CFE1120FEF749FEC520FEF73DFE032005
:101CF000FEF743FEC820FEF737FE0020FEF73DFE4C
:101D00002520FEF73AFE2120FEF737FE0520FEF7DC
:101D100034FE0020FEF731FE0A20FEF72EFE65207D
:101D2000FEF72BFE2520FEF728FE7720FEF725FE86
:101D30005020FEF722FE0F20FEF71FFE0020FEF7C8
:101D40001CFEF820FEF710FE0120FEF716FEFE2016
:101D5000FEF70AFE0020FEF710FE0220FEF70DFE41
:101D60002020FEF701FE3620FEF7FEFD0820FEF7DC
:101D700004FE00E036E03A20FEF7F6FD5520FEF7BF
:101D8000FCFD2B20FEF7F0FD0020FEF7F6FD002005
:101D9000FEF7F3FD0120FEF7F0FD3F20FEF7EDFD1D
:101DA0002A20FEF7E1FD0020FEF7E7FD0020FEF708
:101DB000E4FD01200AE0000098090020204C434483
:101DC0002049443A25780D0A00000000FEF7D5FDB1
:101DD000DF20FEF7D2FD782003F0BDFB2920FEF7BF
:101DE000C3FD40E7FE48808845F21031884240F04C
:101DF0007C87ED20FEF7B8FD0120FEF7BEFDFE203A
:101E0000FEF7BBFDEE20FEF7AFFDDE20FEF7B5FDD1
:101E10002120FEF7B2FDF120FEF7A6FD0120FEF71E
:101E2000ACFDDF20FEF7A0FD1020FEF7A6FDC420CC
:101E3000FEF79AFD8F20FEF7A0FDC620FEF794FD69
:101E40000020FEF79AFDE220FEF797FDE220FEF764
:101E500094FDE220FEF791FDBF20FEF785FDAA204C
:101E6000FEF78BFDB020FEF77FFD0D20FEF785FD10
:101E70000020FEF782FD0D20FEF77FFD0020FEF71B
:101E80007CFD1120FEF779FD0020FEF776FD19207C
:101E9000FEF773FD0020FEF770FD2120FEF76DFDBB
:101EA0000020FEF76AFD2D20FEF767FD0020FEF7FB
:101EB00064FD3D20FEF761FD0020FEF75EFD5D2024
:101EC000FEF75BFD0020FEF758FD5D20FEF755FD97
:101ED0000020FEF752FDB120FEF746FD8020FEF700
:101EE0004CFD0020FEF749FD8B20FEF746FD00204B
:101EF000FEF743FD9620FEF740FD0020FEF73DFD76
:101F0000B220FEF731FD0020FEF737FD0020FEF77E
:101F100034FD0220FEF731FD0020FEF72EFD0320E8
:101F2000FEF72BFD0020FEF728FDB320FEF71CFD79
:101F30000020FEF722FD0020FEF71FFD0020FEF727
:101F40001CFD0020FEF719FD0020FEF716FD002005
:101F5000FEF713FD0020FEF710FD0020FEF70DFD3B
:101F60000020FEF70AFD0020FEF707FD0020FEF727
:101F700004FD0020FEF701FD0020FEF7FEFC00201E
:101F8000FEF7FBFC0020FEF7F8FC0020FEF7F5FC56
:101F90000020FEF7F2FC0020FEF7EFFC0020FEF729
:101FA000ECFC0020FEF7E9FC0020FEF7E6FC002038
:101FB000FEF7E3FC0020FEF7E0FC0020FEF7DDFC6E
:101FC000B420FEF7D1FC8B20FEF7D7FC0020FEF7F3
:101FD000D4FC9620FEF7D1FC0020FEF7CEFCA12019
:101FE000FEF7CBFC0020FEF7C8FCB520FEF7BCFCDA
:101FF0000220FEF7C2FC0020FEF7BFFC0320FEF724
:10200000BCFC0020FEF7B9FC0420FEF7B6FC002063
:10201000FEF7B3FCB620FEF7A7FC0020FEF7ADFCF0
:102020000020FEF7AAFCB720FEF79EFC0020FEF77A
:10203000A4FC0020FEF7A1FC3F20FEF79EFC002040
:10204000FEF79BFC5E20FEF798FC0020FEF795FC57
:102050006420FEF792FC0020FEF78FFC8C20FEF738
:102060008CFC0020FEF789FCAC20FEF786FC0020EB
:10207000FEF783FCDC20FEF780FC0020FEF77DFCF1
:102080007020FEF77AFC0020FEF777FC9020FEF728
:1020900074FC0020FEF771FCEB20FEF76EFC0020C4
:1020A000FEF76BFCDC20FEF768FC0020FEF765FC09
:1020B000B820FEF759FC0020FEF75FFC0020FEF779
:1020C0005CFC0020FEF759FC0020FEF756FC0020C7
:1020D000FEF753FC0020FEF750FC0020FEF74DFCFD
:1020E0000020FEF74AFCBA20FEF73EFC2420FEF753
:1020F00044FC0020FEF741FC0020FEF73EFC0020DF
:10210000FEF73BFCC120FEF72FFC2020FEF735FC3C
:102110000020FEF732FC5420FEF72FFC0020FEF7D3
:102120002CFCFF20FEF729FC0020FEF726FCC22035
:10213000FEF71AFC0A20FEF720FC0020FEF71DFC2B
:102140000420FEF71AFC0020FEF717FCC320FEF760
:102150000BFC3C20FEF711FC0020FEF70EFC3A20A1
:10216000FEF70BFC0020FEF708FC3920FEF705FC0B
:102170000020FEF702FC3720FEF7FFFB0020FEF7F1
:10218000FCFB3C20FEF7F9FB0020FEF7F6FB3620B7
:10219000FEF7F3FB0020FEF7F0FB3220FEF7EDFB2D
:1021A0000020FEF7EAFB2F20FEF7E7FB0020FEF7FA
:1021B000E4FB2C20FEF7E1FB0020FEF7DEFB2920EC
:1021C000FEF7DBFB0020FEF7D8FB2620FEF7D5FB51
:1021D0000020FEF7D2FB2420FEF7CFFB002001E019
:1021E00098090020FEF7C9FB2420FEF7C6FB00205B
:1021F000FEF7C3FB2320FEF7C0FB0020FEF7BDFB6C
:102200003C20FEF7BAFB0020FEF7B7FB3620FEF7B6
:10221000B4FB0020FEF7B1FB3220FEF7AEFB00203E
:10222000FEF7ABFB2F20FEF7A8FB0020FEF7A5FB77
:102230002C20FEF7A2FB0020FEF79FFB2920FEF7D3
:102240009CFB0020FEF799FB2620FEF796FB002062
:10225000FEF793FB2420FEF790FB0020FEF78DFB9A
:102260002420FEF78AFB0020FEF787FB2320FEF7E1
:1022700084FB0020FEF781FBC420FEF775FB622083
:10228000FEF77BFB0020FEF778FB0520FEF775FBD1
:102290000020FEF772FB8420FEF76FFB0020FEF7A4
:1022A0006CFBF020FEF769FB0020FEF766FB1820B0
:1022B000FEF763FB0020FEF760FBA420FEF75DFB4A
:1022C0000020FEF75AFB1820FEF757FB0020FEF710
:1022D00054FB5020FEF751FB0020FEF74EFB0C2074
:1022E000FEF74BFB0020FEF748FB1720FEF745FBEF
:1022F0000020FEF742FB9520FEF73FFB0020FEF793
:102300003CFBF320FEF739FB0020FEF736FBE6200E
:10231000FEF733FB0020FEF730FBC520FEF724FB61
:102320003220FEF72AFB0020FEF727FB4420FEF7B1
:1023300024FB0020FEF721FB6520FEF71EFB00209A
:10234000FEF71BFB7620FEF718FB0020FEF715FBBF
:102350008820FEF712FB0020FEF70FFBC620FEF7D9
:1023600003FB2020FEF709FB0020FEF706FB1720E9
:10237000FEF703FB0020FEF700FB0120FEF7FDFA4D
:102380000020FEF7FAFAC720FEF7EEFA0020FEF76B
:10239000F4FA0020FEF7F1FA0020FEF7EEFA002032
:1023A000FEF7EBFAC820FEF7DFFA0020FEF7E5FAA9
:1023B0000020FEF7E2FA0020FEF7DFFA0020FEF729
:1023C000DCFAC920FEF7D0FA0020FEF7D6FA00208A
:1023D000FEF7D3FA0020FEF7D0FA0020FEF7CDFA80
:1023E0000020FEF7CAFA0020FEF7C7FA0020FEF729
:1023F000C4FA0020FEF7C1FA0020FEF7BEFA002062
:10240000FEF7BBFA0020FEF7B8FA0020FEF7B5FA97
:102410000020FEF7B2FA0020FEF7AFFA0020FEF728
:10242000ACFA0020FEF7A9FAE020FEF79DFA16208C
:10243000FEF7A3FA0020FEF7A0FA1C20FEF79DFA93
:102440000020FEF79AFA2120FEF797FA0020FEF707
:1024500094FA3620FEF791FA0020FEF78EFA462015
:10246000FEF78BFA0020FEF788FA5220FEF785FA75
:102470000020FEF782FA6420FEF77FFA0020FEF7C4
:102480007CFA7A20FEF779FA0020FEF776FA8B20A4
:10249000FEF773FA0020FEF770FA9920FEF76DFA46
:1024A0000020FEF76AFAA820FEF767FA0020FEF780
:1024B00064FAB920FEF761FA0020FEF75EFAC42044
:1024C000FEF75BFA0020FEF758FACA20FEF755FA2D
:1024D0000020FEF752FAD220FEF74FFA0020FEF756
:1024E0004CFAD920FEF749FA0020FEF746FAE02020
:1024F000FEF743FA0020FEF740FAF320FEF73DFA1C
:102500000020FEF73AFAE120FEF72EFA1620FEF739
:1025100034FA0020FEF731FA1C20FEF72EFA0020D4
:10252000FEF72BFA2220FEF728FA0020FEF725FA04
:102530003620FEF722FA0020FEF71FFA4520FEF7AC
:102540001CFA0020FEF719FA5220FEF716FA0020B6
:10255000FEF713FA6420FEF710FA0020FEF70DFADA
:102560007A20FEF70AFA0020FEF707FA8B20FEF722
:1025700004FA0020FEF701FA9920FEF7FEF9002088
:10258000FEF7FBF9A820FEF7F8F90020FEF7F5F9B1
:10259000B920FEF7F2F90020FEF7EFF9C420FEF7AC
:1025A000ECF90020FEF7E9F9CA20FEF7E6F9002071
:1025B000FEF7E3F9D220FEF7E0F90020FEF7DDF99F
:1025C000D820FEF7DAF90020FEF7D7F9E020FEF771
:1025D000D4F90020FEF7D1F9F320FEF7CEF9002060
:1025E000FEF7CBF9E220FEF7BFF90520FEF7C5F9AB
:1025F0000020FEF7C2F90B20FEF7BFF90020FEF71E
:10260000BCF91B20FEF7B9F90020FEF7B6F934201B
:10261000FEF7B3F90020FEF7B0F94420FEF7ADF95C
:102620000020FEF7AAF94F20FEF7A7F90020FEF7D9
:10263000A4F96120FEF7A1F90020FEF79EF97920A8
:10264000FEF79BF90020FEF798F98820FEF795F930
:102650000020FEF792F99720FEF78FF90020FEF791
:102660008CF9A620FEF789F90020FEF786F9B7203D
:10267000FEF783F90020FEF780F9C220FEF77DF90E
:102680000020FEF77AF9C720FEF777F90020FEF761
:1026900074F9D120FEF771F90020FEF76EF9D6200B
:1026A000FEF76BF90020FEF768F9DD20FEF765F90B
:1026B0000020FEF762F9F320FEF75FF90020FEF735
:1026C0005CF9E320FEF750F90520FEF756F90020EB
:1026D000FEF753F90A20FEF750F90020FEF74DF9F6
:1026E0001C20FEF74AF90020FEF747F93320FEF7D9
:1026F00044F90020FEF741F94420FEF73EF900209E
:10270000FEF73BF95020FEF738F90020FEF735F9C7
:102710006220FEF732F90020FEF72FF97820FEF74D
:102720002CF90020FEF729F98820FEF726F9002071
:10273000FEF723F99720FEF720F90020FEF71DF998
:10274000A620FEF71AF90020FEF717F9B720FEF7CA
:1027500014F90020FEF711F9C220FEF70EF900204F
:10276000FEF70BF9C720FEF708F90020FEF705F980
:10277000D120FEF702F90020FEF7FFF8D520FEF782
:10278000FCF80020FEF7F9F8DD20FEF7F6F800204F
:10279000FEF7F3F8F320FEF7F0F80020FEF7EDF86F
:1027A000E420FEF7E1F80120FEF7E7F80020FEF74D
:1027B000E4F80120FEF7E1F80020FEF7DEF8022041
:1027C000FEF7DBF80020FEF7D8F82A20FEF7D5F850
:1027D0000020FEF7D2F83C20FEF7CFF80020FEF7ED
:1027E000CCF84B20FEF7C9F80020FEF7C6F85D20B4
:1027F000FEF7C3F80020FEF7C0F87420FEF7BDF81E
:102800000020FEF7BAF88420FEF7B7F80020FEF7A4
:10281000B4F89320FEF7B1F80020FEF7AEF8A2203E
:10282000FEF7ABF80020FEF7A8F8B320FEF7A5F8F6
:102830000020FEF7A2F8BE20FEF79FF80020FEF76A
:102840009CF8C420FEF799F80020FEF796F8CD20FA
:10285000FEF793F80020FEF790F8D320FEF78DF8EE
:102860000020FEF78AF8DD20FEF787F80020FEF74B
:1028700084F8F320FEF781F80020FEF77EF8E520CB
:10288000FEF772F80020FEF778F80020FEF775F8E2
:102890000020FEF772F80020FEF76FF80220FEF726
:1028A0006CF80020FEF769F82920FEF766F8002092
:1028B000FEF763F83C20FEF760F80020FEF75DF8B5
:1028C0004B20FEF75AF80020FEF757F85D20FEF780
:1028D00054F80020FEF751F87420FEF74EF800205F
:1028E000FEF74BF88420FEF748F80020FEF745F885
:1028F0009320FEF742F80020FEF73FF8A220FEF7F3
:102900003CF80020FEF739F8B320FEF736F8002037
:10291000FEF733F8BE20FEF730F80020FEF72DF862
:10292000C420FEF72AF80020FEF727F8CD20FEF796
:1029300024F80020FEF721F8D320FEF71EF800202F
:10294000FEF71BF8DC20FEF718F80020FEF715F85C
:10295000F320FEF712F80020FEF70FF8E620FEF74E
:1029600003F81120FEF709F80020FEF706F83420DE
:10297000FEF703F80020FEF700F85620FDF7FDFFF4
:102980000020FDF7FAFF7620FDF7F7FF0020FDF7A6
:10299000F4FF7720FDF7F1FF0020FDF7EEFF662042
:1029A000FDF7EBFF0020FDF7E8FF8820FDF7E5FFCE
:1029B0000020FDF7E2FF9920FDF7DFFF0020FDF783
:1029C000DCFFBB20FDF7D9FF0020FDF7D6FF9920E3
:1029D000FDF7D3FF0020FDF7D0FF6620FDF7CDFF08
:1029E0000020FDF7CAFF5520FDF7C7FF0020FDF7C7
:1029F000C4FF5520FDF7C1FF0020FDF7BEFF4520B5
:102A0000FDF7BBFF0020FDF7B8FF4320FDF7B5FF42
:102A10000020FDF7B2FF4420FDF7AFFF0020FDF7D7
:102A2000ACFFE720FDF7A0FF3220FDF7A6FF002056
:102A3000FDF7A3FF5520FDF7A0FF0020FDF79DFF48
:102A40007620FDF79AFF0020FDF797FF6620FDF73F
:102A500094FF0020FDF791FF6720FDF78EFF002017
:102A6000FDF78BFF6720FDF788FF0020FDF785FF4E
:102A70008720FDF782FF0020FDF77FFF9920FDF7FB
:102A80007CFF0020FDF779FFBB20FDF776FF0020DB
:102A9000FDF773FF9920FDF770FF0020FDF76DFF34
:102AA0007720FDF76AFF0020FDF767FF4420FDF760
:102AB00064FF0020FDF761FF5620FDF75EFF002058
:102AC000FDF75BFF2320FDF758FF0020FDF755FFC2
:102AD0003320FDF752FF0020FDF74FFF4520FDF7A3
:102AE0004CFF0020FDF749FFE820FDF73DFF0020E7
:102AF000FDF743FF0020FDF740FF9920FDF73DFF64
:102B00000020FDF73AFF8720FDF737FF0020FDF793
:102B100034FF8820FDF731FF0020FDF72EFF7720DE
:102B2000FDF72BFF0020FDF728FF6620FDF725FFAE
:102B30000020FDF722FF8820FDF71FFF0020FDF792
:102B40001CFFAA20FDF719FF0020FDF716FFBB2090
:102B5000FDF713FF0020FDF710FF9920FDF70DFF93
:102B60000020FDF70AFF6620FDF707FF0020FDF7B4
:102B700004FF5520FDF701FF0020FDF7FEFE552064
:102B8000FDF7FBFE0020FDF7F8FE4420FDF7F5FE03
:102B90000020FDF7F2FE4420FDF7EFFE0020FDF7D8
:102BA000ECFE5520FDF7E9FE0020FDF7E6FEE920EA
:102BB000FDF7DAFEAA20FDF7E0FE0020FDF7DDFEBE
:102BC0000020FDF7DAFE0020FDF7D7FE0020FDF71C
:102BD000CBFEAA20FDF7D1FECF20FDF7C5FE0020D9
:102BE000FDF7CBFE0020FDF7C8FE0020FDF7C5FE77
:102BF0000020FDF7C2FE0020FDF7BFFE0020FDF71C
:102C0000BCFE0020FDF7B9FE0020FDF7B6FE002057
:102C1000FDF7B3FE0020FDF7B0FE0020FDF7ADFE8E
:102C20000020FDF7AAFE0020FDF7A7FE0020FDF71B
:102C3000A4FE0020FDF7A1FE0020FDF79EFE00206F
:102C4000FDF79BFEF020FDF78FFE0020FDF795FEBF
:102C50005020FDF792FE0020FDF78FFE0020FDF7CB
:102C60008CFE0020FDF789FEF320FDF77DFE00209D
:102C7000FDF783FEF920FDF777FE0620FDF77DFEC8
:102C80001020FDF77AFE2920FDF777FE0020FDF7E2
:102C900074FE3A20FDF768FE5520FDF76EFE112008
:102CA000FDF762FE642002F056FC2920FDF75CFE71
:102CB0003520FDF759FE0020FDF75FFE5120FDF79E
:102CC00053FEFF20FDF759FE5320FDF74DFE2C204B
:102CD000FDF753FE5520FDF747FE8220FDF74DFE20
:102CE0002C20FDF741FE02F0E6B8FE48808845F250
:102CF000105188427ED155214FF47040FDF74FFEB0
:102D0000AA214FF20100FDF74AFE52214FF20200C4
:102D1000FDF745FE08214FF20300FDF740FE0121BB
:102D20004FF20400FDF73BFE0D214FF43040FDF75C
:102D300036FE0D214BF20100FDF731FE0D214BF265
:102D40000200FDF72CFE34214FF43640FDF727FE3C
:102D500034214BF20160FDF722FE34214BF2026078
:102D6000FDF71DFE0D214FF43140FDF718FE0D213A
:102D70004BF20110FDF713FE0D214BF20210FDF78F
:102D80000EFE34214FF43740FDF709FE34214BF29B
:102D90000170FDF704FE34214BF20270FDF7FFFDD8
:102DA00000214FF43240FDF7FAFD00214BF20120E3
:102DB000FDF7F5FD00214BF20220FDF7F0FD242187
:102DC0004FF43840FDF7EBFD24214BF60100FDF7F1
:102DD000E6FD24214BF60200FDF7E1FD01214FF451
:102DE0003F40FDF7DCFD0F214FF43340FDF7D7FDE9
:102DF0000F2100E0FEE34BF20130FDF7D0FD0F2183
:102E00004BF20230FDF7CBFD34214FF43940FDF792
:102E1000C6FD34214BF60110FDF7C1FD34214BF600
:102E20000210FDF7BCFD08214FF43540FDF7B7FD5A
:102E300008214BF20150FDF7B2FD08214BF2025080
:102E4000FDF7ADFD03214FF44240FDF7A8FD24211D
:102E50004FF43A40FDF7A3FD24214BF60120FDF786
:102E60009EFD24214BF60220FDF799FD00214FF431
:102E70003C40FDF794FD78214BF60140FDF78FFDB6
:102E800000214BF60240FDF78AFD00214FF43D4042
:102E9000FDF785FD78214BF60150FDF780FD0021FF
:102EA0004BF60250FDF77BFD00214FF43E40FDF74D
:102EB00076FD64214BF60160FDF771FD00214FF4B2
:102EC0005140FDF76CFD33214DF20110FDF767FD18
:102ED00000214DF20210FDF762FD34214DF2031086
:102EE000FDF75DFD00214DF20410FDF758FD3A217C
:102EF0004DF20510FDF753FD00214DF20610FDF7D0
:102F00004EFD4A214DF20710FDF749FD00214DF21B
:102F10000810FDF744FD5C214DF20910FDF73FFD5F
:102F200000214DF20A10FDF73AFD81214DF20B1000
:102F3000FDF735FD00214DF20C10FDF730FDA62107
:102F40004DF20D10FDF72BFD00214DF20E10FDF797
:102F500026FDE5214DF20F10FDF721FD01214DF277
:102F60001010FDF71CFD13214DF21110FDF717FD98
:102F700001214DF21210FDF712FD54214DF21310F4
:102F8000FDF70DFD01214DF21410FDF708FD822122
:102F90004DF21510FDF703FD01214DF21610FDF75E
:102FA000FEFCCA214DF21710FDF7F9FC02214DF28B
:102FB0001810FDF7F4FC00214DF21910FDF7EFFC9D
:102FC00002214DF21A10FDF7EAFC01214DF21B100F
:102FD000FDF7E5FC02214DF21C10FDF7E0FC342169
:102FE0004DF21D10FDF7DBFC02214DF21E10FDF726
:102FF000D6FC67214DF21F10FDF7D1FC02214DF2E6
:103000002010FDF7CCFC84214DF22110FDF7C7FC08
:1030100002214DF22210FDF7C2FCA4214DF2231033
:10302000FDF7BDFC02214DF22410FDF7B8FCB721DD
:103030004DF22510FDF7B3FC02214DF22610FDF7ED
:10304000AEFCCF214DF22710FDF7A9FC02214DF275
:103050002810FDF7A4FCDE214DF22910FDF79FFC9E
:1030600002214DF22A10FDF79AFCF2214DF22B10AD
:10307000FDF795FC02214DF22C10FDF790FCFE218E
:103080004DF22D10FDF78BFC03214DF22E10FDF7B4
:1030900086FC10214DF22F10FDF781FC03214DF22B
:1030A0003010FDF77CFC33214DF23110FDF777FC39
:1030B00003214DF23210FDF772FC6D214DF23310F9
:1030C000FDF76DFC00214FF45240FDF768FC332101
:1030D0004DF20120FDF763FC00214DF20220FDF7C7
:1030E0005EFC01E09809002034214DF20320FDF739
:1030F00056FC00214DF20420FDF751FC3A214DF21F
:103100000520FDF74CFC00214DF20620FDF747FCA1
:103110004A214DF20720FDF742FC00214DF2082024
:10312000FDF73DFC5C214DF20920FDF738FC002144
:103130004DF20A20FDF733FC81214DF20B20FDF703
:103140002EFC00214DF20C20FDF729FCA6214DF2AA
:103150000D20FDF724FC00214DF20E20FDF71FFC91
:10316000E5214DF20F20FDF71AFC01214DF2102050
:10317000FDF715FC13214DF21120FDF710FC012184
:103180004DF21220FDF70BFC54214DF21320FDF7F8
:1031900006FC01214DF21420FDF701FC82214DF2C5
:1031A0001520FDF7FCFB01214DF21620FDF7F7FB82
:1031B000CA214DF21720FDF7F2FB02214DF2182033
:1031C000FDF7EDFB00214DF21920FDF7E8FB022190
:1031D0004DF21A20FDF7E3FB01214DF21B20FDF714
:1031E000DEFB02214DF21C20FDF7D9FB34214DF20C
:1031F0001D20FDF7D4FB02214DF21E20FDF7CFFB71
:1032000067214DF21F20FDF7CAFB02214DF220205D
:10321000FDF7C5FB84214DF22120FDF7C0FB022103
:103220004DF22220FDF7BBFBA4214DF22320FDF738
:10323000B6FB02214DF22420FDF7B1FBB7214DF280
:103240002520FDF7ACFB02214DF22620FDF7A7FB60
:10325000CF214DF22720FDF7A2FB02214DF22820BD
:10326000FDF79DFBDE214DF22920FDF798FB0221A1
:103270004DF22A20FDF793FBF2214DF22B20FDF7B2
:103280008EFB02214DF22C20FDF789FBFE214DF231
:103290002D20FDF784FB03214DF22E20FDF77FFB4F
:1032A00010214DF22F20FDF77AFB03214DF2302043
:1032B000FDF775FB33214DF23120FDF770FB032143
:1032C0004DF23220FDF76BFB6D214DF23320FDF7FF
:1032D00066FB00214FF45340FDF761FB33214DF2B3
:1032E0000130FDF75CFB00214DF20230FDF757FB8A
:1032F00034214DF20330FDF752FB00214DF2043032
:10330000FDF74DFB3A214DF20530FDF748FB00215A
:103310004DF20630FDF743FB4A214DF20730FDF731
:103320003EFB00214DF20830FDF739FB5C214DF2E8
:103330000930FDF734FB00214DF20A30FDF72FFB79
:1033400081214DF20B30FDF72AFB00214DF20C30AC
:10335000FDF725FBA6214DF20D30FDF720FB0021E6
:103360004DF20E30FDF71BFBE5214DF20F30FDF75E
:1033700016FB01214DF21030FDF711FB13214DF228
:103380001130FDF70CFB01214DF21230FDF707FB68
:1033900054214DF21330FDF702FB01214DF21430A0
:1033A000FDF7FDFA82214DF21530FDF7F8FA012103
:1033B0004DF21630FDF7F3FACA214DF21730FDF742
:1033C000EEFA02214DF21830FDF7E9FA00214DF234
:1033D0001930FDF7E4FA02214DF21A30FDF7DFFA59
:1033E00001214DF21B30FDF7DAFA02214DF21C30BB
:1033F000FDF7D5FA34214DF21D30FDF7D0FA022148
:103400004DF21E30FDF7CBFA67214DF21F30FDF76C
:10341000C6FA02214DF22030FDF7C1FA84214DF2A7
:103420002130FDF7BCFA02214DF22230FDF7B7FA48
:10343000A4214DF22330FDF7B2FA02214DF22430DF
:10344000FDF7ADFAB7214DF22530FDF7A8FA0221BC
:103450004DF22630FDF7A3FACF214DF22730FDF7CC
:103460009EFA02214DF22830FDF799FADE214DF245
:103470002930FDF794FA02214DF22A30FDF78FFA38
:10348000F2214DF22B30FDF78AFA02214DF22C3059
:10349000FDF785FAFE214DF22D30FDF780FA03216C
:1034A0004DF22E30FDF77BFA10214DF22F30FDF753
:1034B00076FA03214DF23030FDF771FA33214DF2E7
:1034C0003130FDF76CFA03214DF23230FDF767FA27
:1034D0006D214DF23330FDF762FA00214FF4544074
:1034E000FDF75DFA33214DF20140FDF758FA002156
:1034F0004DF20240FDF753FA34214DF20340FDF73F
:103500004EFA00214DF20440FDF749FA3A214DF2FE
:103510000540FDF744FA00214DF20640FDF73FFA61
:103520004A214DF20740FDF73AFA00214DF20840DA
:10353000FDF735FA5C214DF20940FDF730FA002124
:103540004DF20A40FDF72BFA81214DF20B40FDF7B9
:1035500026FA00214DF20C40FDF721FAA6214DF28A
:103560000D40FDF71CFA00214DF20E40FDF717FA51
:10357000E5214DF20F40FDF712FA01214DF2104006
:10358000FDF70DFA13214DF21140FDF708FA012164
:103590004DF21240FDF703FA54214DF21340FDF7AE
:1035A000FEF901214DF21440FDF7F9F982214DF2A7
:1035B0001540FDF7F4F901214DF21640FDF7EFF942
:1035C000CA214DF21740FDF7EAF902214DF21840E9
:1035D000FDF7E5F900214DF21940FDF7E0F9022170
:1035E0004DF21A40FDF7DBF901214DF21B40FDF7CA
:1035F000D6F900E004E302214DF21C40FDF7CFF9BB
:1036000034214DF21D40FDF7CAF902214DF21E4052
:10361000FDF7C5F967214DF21F40FDF7C0F9022102
:103620004DF22040FDF7BBF984214DF22140FDF71A
:10363000B6F902214DF22240FDF7B1F9A4214DF275
:103640002340FDF7ACF902214DF22440FDF7A7F924
:10365000B7214DF22540FDF7A2F902214DF2264097
:10366000FDF79DF9CF214DF22740FDF798F9022192
:103670004DF22840FDF793F9DE214DF22940FDF788
:103680008EF902214DF22A40FDF789F9F2214DF21F
:103690002B40FDF784F902214DF22C40FDF77FF914
:1036A000FE214DF22D40FDF77AF903214DF22E4017
:1036B000FDF775F910214DF22F40FDF770F9032148
:1036C0004DF23040FDF76BF933214DF23140FDF7FB
:1036D00066F903214DF23240FDF761F96D214DF29B
:1036E0003340FDF75CF900214FF45540FDF757F9E1
:1036F00033214DF20150FDF752F900214DF20250F5
:10370000FDF74DF934214DF20350FDF748F9002142
:103710004DF20450FDF743F93A214DF20550FDF703
:103720003EF900214DF20650FDF739F94A214DF2DC
:103730000750FDF734F900214DF20850FDF72FF93D
:103740005C214DF20950FDF72AF900214DF20A5093
:10375000FDF725F981214DF20B50FDF720F90021ED
:103760004DF20C50FDF71BF9A6214DF20D50FDF75F
:1037700016F900214DF20E50FDF711F9E5214DF239
:103780000F50FDF70CF901214DF21050FDF707F92C
:1037900013214DF21150FDF702F901214DF21250A3
:1037A000FDF7FDF854214DF21350FDF7F8F8012113
:1037B0004DF21450FDF7F3F882214DF21550FDF74C
:1037C000EEF801214DF21650FDF7E9F8CA214DF24D
:1037D0001750FDF7E4F802214DF21850FDF7DFF81D
:1037E00000214DF21950FDF7DAF802214DF21A507E
:1037F000FDF7D5F801214DF21B50FDF7D0F802215D
:103800004DF21C50FDF7CBF834214DF21D50FDF761
:10381000C6F802214DF21E50FDF7C1F867214DF2A6
:103820001F50FDF7BCF802214DF22050FDF7B7F80C
:1038300084214DF22150FDF7B2F802214DF22250C1
:10384000FDF7ADF8A4214DF22350FDF7A8F80221B1
:103850004DF22450FDF7A3F8B7214DF22550FDF7A6
:103860009EF802214DF22650FDF799F8CF214DF236
:103870002750FDF794F802214DF22850FDF78FF8FC
:10388000DE214DF22950FDF78AF802214DF22A502F
:10389000FDF785F8F2214DF22B50FDF780F802215B
:1038A0004DF22C50FDF77BF8FE214DF22D50FDF727
:1038B00076F803214DF22E50FDF771F810214DF2EC
:1038C0002F50FDF76CF803214DF23050FDF767F8EB
:1038D00033214DF23150FDF762F803214DF23250A1
:1038E000FDF75DF86D214DF23350FDF758F80021DA
:1038F0004FF45640FDF753F833214DF20160FDF7C8
:103900004EF800214DF20260FDF749F834214DF2E6
:103910000360FDF744F800214DF20460FDF73FF825
:103920003A214DF20560FDF73AF800214DF20660AC
:10393000FDF735F84A214DF20760FDF730F8002118
:103940004DF20860FDF72BF85C214DF20960FDF7A0
:1039500026F800214DF20A60FDF721F881214DF291
:103960000B60FDF71CF800214DF20C60FDF717F815
:10397000A6214DF20D60FDF712F800214DF20E6008
:10398000FDF70DF8E5214DF20F60FDF708F8012174
:103990004DF21060FDF703F813214DF21160FCF7B2
:1039A000FEFF01214DF21260FCF7F9FF54214DF2A8
:1039B0001360FCF7F4FF01214DF21460FCF7EFFFF8
:1039C00082214DF21560FCF7EAFF01214DF21660ED
:1039D000FCF7E5FFCA214DF21760FCF7E0FF02217A
:1039E0004DF21860FCF7DBFF00214DF21960FCF787
:1039F000D6FF02214DF21A60FCF7D1FF01214DF2F2
:103A00001B60FCF7CCFF02214DF21C60FCF7C7FFE6
:103A100034214DF21D60FCF7C2FF02214DF21E6001
:103A2000FCF7BDFF67214DF21F60FCF7B8FF0221D4
:103A30004DF22060FCF7B3FF84214DF22160FCF7CA
:103A4000AEFF02214DF22260FCF7A9FFA4214DF246
:103A50002360FCF7A4FF02214DF22460FCF79FFFD6
:103A6000B7214DF22560FCF79AFF02214DF2266046
:103A7000FCF795FFCF214DF22760FCF790FF022164
:103A80004DF22860FCF78BFFDE214DF22960FCF738
:103A900086FF02214DF22A60FCF781FFF2214DF2F0
:103AA0002B60FCF77CFF02214DF22C60FCF777FFC6
:103AB000FE214DF22D60FCF772FF03214DF22E60C6
:103AC000FCF76DFF10214DF22F60FCF768FF03211A
:103AD0004DF23060FCF763FF33214DF23160FCF7AB
:103AE0005EFF03214DF23260FCF759FF6D214DF26C
:103AF0003360FCF754FF55214FF47040FCF74FFF43
:103B0000AA214FF20100FCF74AFF52214FF20200B6
:103B1000FCF745FF08214FF20300FCF740FF0021AE
:103B20004FF20400FCF73BFFCC214FF43140FCF78F
:103B300036FF00214BF20110FCF731FF05214FF455
:103B40003640FCF72CFF70214FF43740FCF727FF7D
:103B500070214BF20170FCF722FF01214FF4384035
:103B6000FCF71DFF03214BF60100FCF718FF0321B2
:103B70004BF60200FCF713FF03214BF60300FCF7A2
:103B80000EFF02214FF43C40FCF709FF00214BF6E9
:103B90000140FCF704FF00214BF60240FCF7FFFE5A
:103BA000D0214FF44940FCF7FAFE02214CF60110F7
:103BB000FCF7F5FE50214CF60210FCF7F0FE502108
:103BC0004CF60310FCF7EBFE50214CF60410FCF70A
:103BD000E6FE00214FF45450FCF7E1FE55214FF46E
:103BE0006850FCF7DCFE4FF48850FCF7BDFE7820EF
:103BF00001F086FC4FF42450FCF7B6FE01F05BB9EF
:103C0000FE48808849F2253188427DD147F6F0018F
:103C1000E520FCF7C4FE4FF480710120FCF7BFFEE5
:103C20004FF4E0610220FCF7BAFE41F230010320BC
:103C3000FCF7B5FE00210420FCF7B1FE40F20221A2
:103C40000820FCF7ACFE00210920FCF7A8FE0021AB
:103C50000A20FCF7A4FE00210C20FCF7A0FE0021A6
:103C60000D20FCF79CFE00210F20FCF798FE0021A0
:103C70001020FCF794FE07211120FCF790FE002194
:103C80001220FCF78CFE00211320FCF788FE002197
:103C90000720FCF784FE41F290611020FCF77FFEC4
:103CA00040F227211120FCF77AFE9D211220FCF71B
:103CB00076FE4FF4C8511320FCF771FE2521292010
:103CC000FCF76DFE0D212B20FCF769FE072130204B
:103CD000FCF765FE40F203313120FCF760FE032162
:103CE0003220FCF75CFE40F206213520FCF757FE3F
:103CF00008213620FCF753FE40F206413720FCF73E
:103D00004EFE4FF4417100E058E03820FCF747FECA
:103D100007213920FCF743FE40F202613C20FCF70A
:103D20003EFE08213D20FCF73AFE00215020FCF722
:103D300036FEEF215120FCF732FE00215220FCF725
:103D40002EFE40F23F115320FCF729FE4FF427418D
:103D50006020FCF724FE01216120FCF720FE0021F9
:103D60006A20FCF71CFE00218020FCF718FE0021D1
:103D70008120FCF714FE00218220FCF710FE0021B8
:103D80008320FCF70CFE00218420FCF708FE0021B4
:103D90008520FCF704FE10219020FCF700FE4FF474
:103DA000C0619220FCF7FBFD40F233110720FCF7C5
:103DB000F6FD22210020FCF7F2FD1FE78F488088E6
:103DC00049F2283188427DD141F28F01EC20FCF785
:103DD000E6FD41F23421EF20FCF7E1FD4FF4807164
:103DE0000120FCF7DCFD4FF4E0610220FCF7D7FD79
:103DF00041F230010320FCF7D2FD00210420FCF742
:103E0000CEFD40F202210820FCF7C9FD0021092067
:103E1000FCF7C5FD00210A20FCF7C1FD01210C20A3
:103E2000FCF7BDFD00210D20FCF7B9FD00210F209E
:103E3000FCF7B5FD00211020FCF7B1FD0721112092
:103E4000FCF7ADFD00211220FCF7A9FD0021132095
:103E5000FCF7A5FD01210720FCF7A1FD322001F0B0
:103E60007AFB41F290411020FCF799FD40F22721A6
:103E70001120FCF794FD322001F06DFB8A21122005
:103E8000FCF78DFD322001F066FB4FF4D05113207A
:103E9000FCF785FD06212920FCF781FD0D212B2053
:103EA000FCF77DFD322001F056FB00212020FCF7BD
:103EB00076FD00212120FCF772FD322001F04BFB42
:103EC000002100E075E03020FCF769FD40F204615C
:103ED0003120FCF764FD40F205313220FCF75FFD34
:103EE00000213520FCF75BFD40F609413620FCF748
:103EF00056FD4FF401713720FCF751FD40F20131BE
:103F00003820FCF74CFD40F207713920FCF747FDE3
:103F100000213C20FCF743FD40F60A213D20FCF740
:103F20003EFD322001F017FB00215020FCF737FD49
:103F3000EF215120FCF733FD00215220FCF72FFD2B
:103F400040F23F115320FCF72AFD4FF42741602037
:103F5000FCF725FD01216120FCF721FD00216A20ED
:103F6000FCF71DFD00218020FCF719FD00218120B8
:103F7000FCF715FD00218220FCF711FD00218320B4
:103F8000FCF70DFD00218420FCF709FD00218520B0
:103F9000FCF705FD10219020FCF701FD4FF4C061F6
:103FA0009220FCF7FCFC40F233110720FCF7F7FCF1
:103FB00024E61248808849F2203188427ED10021CF
:103FC0000846FCF7ECFC4FF480710120FCF7E7FC9D
:103FD0004FF4E0610220FCF7E2FC41F230010320E3
:103FE000FCF7DDFC00210420FCF7D9FC40F20221A3
:103FF0000820FCF7D4FC0021092001E098090020EA
:10400000FCF7CDFC00210A20FCF7C9FC01210C20A3
:10401000FCF7C5FC00210D20FCF7C1FC00210F209E
:10402000FCF7BDFC322001F096FA40F201110720A6
:10403000FCF7B5FC322001F08EFA4FF486511020C7
:10404000FCF7ADFC07211120FCF7A9FC4FF48871A7
:104050001220FCF7A4FC4FF430611320FCF79FFC06
:1040600000212920FCF79BFC44F210012B20FCF7D7
:1040700096FC00215020FCF792FCEF215120FCF728
:104080008EFC00215220FCF78AFC40F23F115320A5
:10409000FCF785FC4FF41C516020FCF780FC0121EB
:1040A0006120FCF77CFC00216A20FCF778FC0021F1
:1040B0008020FCF774FC0021812000E030E0FCF758
:1040C0006EFC00218220FCF76AFC00218320FCF7B3
:1040D00066FC00218420FCF762FC00218520FCF7AF
:1040E0005EFC10219020FCF75AFC00219220FCF786
:1040F00056FC01219320FCF752FC4FF48871952067
:10410000FCF74DFC00219720FCF749FC002198208A
:10411000FCF745FC40F273110720FCF740FC6DE50D
:10412000FE48808849F2313188427DD141F2140144
:10413000E720FCF734FC4FF480710120FCF72FFCE2
:104140004FF400710220FCF72AFC41F238010320F1
:10415000FCF725FC40F202210820FCF720FC00219E
:104160000920FCF71CFC00210A20FCF718FC0021A8
:104170000C20FCF714FC00210D20FCF710FC0021A2
:104180000F20FCF70CFC00211020FCF708FC072195
:104190001120FCF704FC00211220FCF700FC002198
:1041A0001320FCF7FCFBC82001F0D5F941F2906127
:1041B0001020FCF7F4FB40F227211120FCF7EFFB65
:1041C000322001F0C8F90C211220FCF7E8FB322064
:1041D00001F0C1F94FF400611320FCF7E0FB11215D
:1041E0002920FCF7DCFB0B212B20FCF7D8FB32202D
:1041F00001F0B1F900212020FCF7D1FB40F23F1182
:104200002120FCF7CCFB00213020FCF7C8FB4FF449
:1042100083713120FCF7C3FB00213220FCF7BFFB88
:104220004FF40171352000E064E0FCF7B8FB41F287
:104230000A613620FCF7B3FB40F207713720FCF728
:10424000AEFB4FF483713820FCF7A9FB40F20771F5
:104250003920FCF7A4FB40F202413C20FCF79FFB15
:1042600040F60F413D20FCF79AFB00215020FCF75F
:1042700096FBEF215120FCF792FB00215220FCF726
:104280008EFB40F23F115320FCF789FB4FF41C5189
:104290006020FCF784FB01216120FCF780FB0021FA
:1042A0006A20FCF77CFB00218020FCF778FB0021D2
:1042B0008120FCF774FB00218220FCF770FB0021B9
:1042C0008320FCF76CFB00218420FCF768FB0021B5
:1042D0008520FCF764FB10219020FCF760FB4FF475
:1042E000C0619220FCF75BFB40F233110720FCF722
:1042F00056FB83E48948808845F2084188427DD195
:104300004FF480710120FCF74AFB4FF4E06102207A
:10431000FCF745FB41F230010320FCF740FB002194
:104320000420FCF73CFB40F207210820FCF737FB98
:1043300000210920FCF733FB00210A20FCF72FFBAA
:1043400000210C20FCF72BFB00210D20FCF727FBA4
:1043500000210F20FCF723FB142001F0FCF841F2B0
:10436000B0611020FCF71BFB01211120FCF717FBAB
:1043700001211720FCF713FB4FF49C711220FCF76E
:104380000EFB4FF400611320FCF709FB09212920E3
:10439000FCF705FB09212A20FCF701FB0021A420E2
:1043A000FCF7FDFA00215020FCF7F9FAEF2151202B
:1043B000FCF7F5FA00215220FCF7F1FA40F23F1128
:1043C0005320FCF7ECFA4FF41C516020FCF7E7FA9D
:1043D00001216120FCF7E3FA00216A20FCF7DFFAF3
:1043E00000218020FCF7DBFA00218120FCF7D7FABE
:1043F00000218220FCF7D3FA002100E024E0832092
:10440000FCF7CDFA00218420FCF7C9FA00218520B1
:10441000FCF7C5FA13219020FCF7C1FA0021922085
:10442000FCF7BDFA03219320FCF7B9FA4FF4887129
:104430009520FCF7B4FA40F273110720FCF7AFFAAD
:10444000322001F088F8B8E43448808841F2055100
:1044500088427DD100210720FCF7A1FA322001F02B
:104460007AF84FF48E711220FCF799FA0121A420FA
:10447000FCF795FA0F210820FCF791FA08210A2091
:10448000FCF78DFA08210D20FCF789FA40F207713C
:104490003020FCF784FA07213120FCF780FA40F243
:1044A00003613220FCF77BFA4FF4E0613320FCF724
:1044B00076FA40F202213420FCF771FA022135200D
:1044C000FCF76DFA41F60F713620FCF768FA40F2FE
:1044D00007713720FCF763FA00213820FCF75FFAF8
:1044E00000213920FCF75BFA40F207713A20FCF713
:1044F00056FA00213B20FCF752FA07213C20FCF73A
:104500004EFA00213D20FCF74AFA322001F023F850
:1045100001210720FCF743FA012101E0980900205E
:104520001720FCF73CFA322001F015F84FF4BD518A
:104530001020FCF734FA40F217211120FCF72FFA73
:104540004FF48F711220FCF72AFA4FF4706100E0EB
:1045500098E01320FCF723FA00212A20FCF71FFA29
:104560000A212920FCF71BFA4FF49F711220FCF757
:1045700016FA00215020FCF712FAEF215120FCF727
:104580000EFA00215220FCF70AFA40F23F115320A4
:10459000FCF705FA4FF41C516020FCF700FA0121EA
:1045A0006120FCF7FCF900216A20FCF7F8F90021F2
:1045B0008020FCF7F4F900218120FCF7F0F90021BC
:1045C0008220FCF7ECF900218320FCF7E8F90021B8
:1045D0008420FCF7E4F900218520FCF7E0F91321A1
:1045E0009020FCF7DCF94FF440719220FCF7D7F9EA
:1045F00005219320FCF7D3F900219520FCF7CFF992
:1046000000219720FCF7CBF900219820FCF7C7F98F
:104610004FF480710120FCF7C2F94FF4E0610220F1
:10462000FCF7BDF941F238010320FCF7B8F900218D
:104630000420FCF7B4F900210C20FCF7B0F90021AC
:104640000F20FCF7ACF900212020FCF7A8F900218D
:104650002120FCF7A4F921210720FCF7A0F9142060
:1046600000F079FF61210720FCF799F9142000F090
:1046700072FF40F273110720FCF791F9142000F04B
:104680006AFF95E4FE4880884BF2055188427CD150
:1046900000210846FCF783F900210846FCF77FF962
:1046A00000210846FCF77BF900210846FCF777F962
:1046B0000121A420FCF773F9142000F04CFF4FF403
:1046C0001C516020FCF76BF940F202210820FCF736
:1046D00066F94FF405713020FCF761F943F215716A
:1046E0003120FCF75CF940F204613220FCF757F905
:1046F00040F616613320FCF752F942F211213420C2
:10470000FCF74DF94FF4A8513520FCF748F948F271
:1047100007513620FCF743F941F207413720FCF7F7
:104720003EF941F203413820FCF739F920213920C4
:10473000FCF735F91A219020FCF731F900211020FF
:10474000FCF72DF907211120FCF729F9002112208F
:10475000FCF725F900211320FCF721F9142000F0C3
:10476000FAFE4FF4E6611020FCF719F940F2371118
:104770001120FCF714F9142000F0EDFE4FF4DC7169
:104780001220FCF70CF9142000E085E000F0E3FEB5
:104790004FF470611320FCF702F980212A20FCF706
:1047A000FEF848212920FCF7FAF8142000F0D3FE87
:1047B0004FF480710120FCF7F2F84FF4E061022021
:1047C000FCF7EDF841F238010320FCF7E8F840F27D
:1047D00002210820FCF7E3F800210A20FCF7DFF8AB
:1047E00000210C20FCF7DBF800210D20FCF7D7F8A6
:1047F00030210E20FCF7D3F800215020FCF7CFF831
:10480000EF215120FCF7CBF800215220FCF7C7F82C
:1048100040F23F115320FCF7C2F84FF41C516020C6
:10482000FCF7BDF801216120FCF7B9F800216A20EE
:10483000FCF7B5F811219020FCF7B1F84FF4C061F6
:104840009220FCF7ACF840F202419320FCF7A7F865
:1048500002219420FCF7A3F8142000F07CFE012133
:104860000720FCF79CF8142000F075FE612107205A
:10487000FCF795F840F273110720FCF790F800213F
:104880002020FCF78CF800212120FCF788F8222159
:104890000020FCF784F80EE3794880884CF205513B
:1048A00088427CD100210846FCF779F800210846AF
:1048B000FCF775F8142000F04EFE00210846FCF7C6
:1048C0006EF800210846FCF76AF800210846FCF75C
:1048D00066F800210846FCF762F80121A420FCF7E5
:1048E0005EF8142000F037FE4FF41C516020FCF7F6
:1048F00056F840F606010820FCF751F840F2037123
:104900003020FCF74CF801213120FCF748F8042155
:104910003220FCF744F84FF481713320FCF73FF864
:104920004FF440713420FCF73AF840F2031135207F
:10493000FCF735F81F213620FCF731F840F20371FF
:104940003720FCF72CF801213820FCF728F8042147
:104950003920FCF724F815219020FCF720F84FF4BB
:1049600082611020FCF71BF840F247211120FCF770
:1049700016F84FF4DE711220FCF711F84FF4606165
:104980001320FCF70CF8782000F0E5FD4FF480715F
:104990000120FCF704F84FF40071022000E052E01F
:1049A000FBF7FDFF41F230010320FBF7F8FF082180
:1049B0000A20FBF7F4FF00210C20FBF7F0FF202179
:1049C0000E20FBF7ECFF00210F20FBF7E8FF002192
:1049D0002020FBF7E4FF00212120FBF7E0FF3D2131
:1049E0002A20FBF7DCFF142000F0B5FD2D21292043
:1049F000FBF7D5FF00215020FBF7D1FF4DF2EF016F
:104A00005120FBF7CCFF00215220FBF7C8FF40F2FA
:104A10003F115320FBF7C3FF00216120FBF7BFFFCD
:104A200000216A20FBF7BBFF4FF440719220FBF797
:104A3000B6FF05219320FBF7B2FF4FF480710720EA
:104A4000FBF7ADFF37E20E48808844F231518842CF
:104A50007ED101210020FBF7A2FF0A2000F07BFDA0
:104A600041F228611020FBF79AFF0E211220FBF77C
:104A700096FF40F639211320FBF791FF0A2001E051
:104A80009809002000F067FD40211120FBF787FF07
:104A900050211520FBF783FF0A2000F05CFD1E214A
:104AA0001220FBF77CFF0A2000F055FD4FF4B151B6
:104AB0001020FBF774FF42F639211320FBF76FFF3C
:104AC0000A2000F048FD4FF480710120FBF767FFDA
:104AD0004FF440710220FBF762FF41F238010320DE
:104AE000FBF75DFF40F202210820FBF758FF082189
:104AF0000A20FBF754FF00213020FBF750FF40F263
:104B000002413120FBF74BFF4FF483713220FBF75A
:104B100046FF40F203513320FBF741FF4FF482710F
:104B20003420FBF73CFF40F201313520FBF737FF23
:104B300040F207713620FBF732FF40F20531372093
:104B4000FBF72DFF4FF402713820FBF728FF00E040
:104B50003EE040F60B713920FBF721FF0221412096
:104B6000FBF71DFF4FF41C516020FBF718FF0121DC
:104B70006120FBF714FF4FF404719020FBF70FFF47
:104B80004FF485719220FBF70AFF04219320FBF775
:104B900006FF4FF48071A020FBF701FF01210720E1
:104BA000FBF7FDFE21210720FBF7F9FE232107205B
:104BB000FBF7F5FE33210720FBF7F1FE40F233113E
:104BC0000720FBF7ECFE0021A020FBF7E8FE72E1D6
:104BD000F948808844F2355188427CD13021152033
:104BE000FBF7DDFE10219A20FBF7D9FE20211120D2
:104BF000FBF7D5FE43F228411020FBF7D0FE02213F
:104C00001220FBF7CCFE41F238011320FBF7C7FE60
:104C1000282000F0A0FC12210846FBF7C0FE282047
:104C200000F099FC43F220411020FBF7B8FE43F25C
:104C300038011320FBF7B3FE462000F08CFC002166
:104C40003020FBF7ACFE40F202413120FBF7A7FE1B
:104C500040F207313220FBF7A2FE4FF441713320BE
:104C6000FBF79DFE04213420FBF799FE40F2014141
:104C70003520FBF794FE40F207713620FBF78FFEDC
:104C800040F205313720FBF78AFE4FF4C26138202D
:104C9000FBF785FE4FF4C2613920FBF780FE4FF42D
:104CA00080710120FBF77BFE4FF440710220FBF77F
:104CB00076FE41F230010320FBF771FE40F6080159
:104CC0000820FBF76CFE08210A20FBF768FE4FF472
:104CD0001C51602000E033E0FBF761FE0121612000
:104CE000FBF75DFE4FF49F719020FBF758FE4FF4E9
:104CF00080719220FBF753FE4FF480719320FBF7F5
:104D00004EFE4FF44051A020FBF749FE1021A32096
:104D1000FBF745FE01210720FBF741FE212107207B
:104D2000FBF73DFE23210720FBF739FE3321072047
:104D3000FBF735FE40F233110720FBF730FEBAE0F7
:104D40009D48808841F663118842F8D1E220FBF744
:104D50000BFE2320FBF711FE0220FBF70EFE0420C2
:104D6000FBF70BFE642000F0CBFBE020FBF7FCFD23
:104D70000120FBF702FE0A2000F0EDFBE020FBF72C
:104D8000F3FD0320FBF7F9FD0C2000F0E4FB01200C
:104D9000FBF7EAFD0A2000F0DEFBE620FBF7E4FD6E
:104DA0000320FBF7EAFDFF20FBF7E7FDFF20FBF701
:104DB000E4FDB020FBF7D8FD2020FBF7DEFD00204E
:104DC000FBF7DBFD0320FBF7D8FD40F21F30FBF7BC
:104DD000D4FD0120FBF7D1FD40F2DF10FBF7CDFD44
:104DE0000020FBF7CAFDB420FBF7BEFD0420FBF753
:104DF000C4FD40F21F40FBF7C0FD0020FBF7BDFDE6
:104E0000D220FBF7BAFD0020FBF7B7FD0020FBF72F
:104E1000B4FD0020FBF7B1FD0020FBF7AEFDB6208E
:104E2000FBF7A2FD0220FBF7A8FD4FF40370FBF790
:104E3000A4FD0020FBF7A1FD2220FBF79EFD092029
:104E4000FBF79BFD0020FBF798FD0020FBF795FD8D
:104E5000F020FBF789FD0320FBF78FFD2920FBF7EE
:104E600083FDD020FBF780FD0020FBF786FDBE20F0
:104E7000FBF77AFD0520FBF780FDFE20FBF77DFDAB
:104E80000120FBF77AFDFF20FBF777FD0020FBF701
:104E900074FDB820FBF768FD0F20FBF76EFD0120C5
:104EA000FBF76BFDBA20FBF75FFD0120FBF765FD0B
:104EB0006420FCF7DBF90020FCF700FA01203F49F1
:104EC00008604FF6FF70FCF7E7FB10BD2DE9FC4FC3
:104ED00005460E4617469846DDF82C9000200190B6
:104EE0003548808846F60401884229D132488079C5
:104EF000012825D1AB4635462F480088C01B401EEF
:104F000086B247462C480088A0EB0B00401E1FFAD3
:104F100080F80020284988712A2048812B20888128
:104F200043463A4631462846CDF80090FFF7CEFF7B
:104F30000120214988712B2048812A2088811CE08A
:104F4000781B401C80B20190344614E0214628466C
:104F5000FBF757FDFBF738FD4FF0000A06E0184855
:104F6000A0F800900AF101001FFA80FA019882452A
:104F7000F5DB601C84B24445E8DDBDE8FC8F2DE91B
:104F8000F84F07460D4690469946DDF828B0A8EB45
:104F90000700401C1FFA80FAA9EB0500401C80B2F4
:104FA000009000241AE0281981B23846FBF729FD49
:104FB000FBF70AFD00260DE09809002080812142C0
:104FC0000008006C04FB0A603BF81000F7490880F9
:104FD000701C86B25645F5DB601C84B20098844292
:104FE000E1DBBDE8F88F2DE9FF4F84B081468A46AA
:104FF0000020039002900698A0EB09050798A0EB0B
:105000000A06CDF80490CDF800A0002D01DD01279F
:1050100005E00DB9002702E04FF0FF376D42002E8A
:1050200002DD4FF0010806E016B94FF0000802E07B
:105030004FF0FF387642B54201DD2C4600E03446A1
:105040004FF0000B21E0009A91B2019A90B2FCF768
:105050003FF8039828440390029830440290039844
:10506000A04205DD0398001B03900198384401908D
:105070000298A04205DD0298001B0290009840446F
:1050800000900BF101001FFA80FB601C8345DADD04
:1050900008B0BDE8F08FF0B504460D4616461F4631
:1050A0002B46324629462046FFF79DFF3B462246C7
:1050B00029462046FFF797FF3B46324639462046B1
:1050C000FFF791FF3B46324629463046FFF78BFFFC
:1050D000F0BD2DE9F04306460F46904600244546B4
:1050E0000320A0EB48093CE07A1B91B2321990B240
:1050F000FBF7EEFF3A1B91B2721990B2FBF7E8FF93
:105100003A1991B2721990B2FBF7E2FF7A1991B293
:10511000321990B2FBF7DCFF7A1991B2321B90B2D0
:10512000FBF7D6FF3A1991B2721B90B2FBF7D0FF92
:105130007A1B91B2321B90B2FBF7CAFF3A1B91B2B5
:10514000721B90B2FBF7C4FF641CB9F1000F03DAC5
:10515000A000801D814404E0601B80000A3081446F
:105160006D1EAC42C0DDBDE8F0832DE9F84F8046EE
:105170000E4617461C46B3462046E31704EB53730E
:10518000DB1021464FEAE47C04EB5C7C4FEAEC0C3C
:10519000A4EBCC0CBCF1000F02D04FF0010C01E0ED
:1051A0004FF0000C6344224604EBD27C4FEA6C0CB7
:1051B00003FB0CF3DBB20093A7F12000C7B200257C
:1051C00056E00C2C07D107EB4700794901EB800032
:1051D00010F8059013E0102C05D1764800EB07106D
:1051E00010F805900BE0182C07D107EBC7007249A7
:1051F00001EB800010F8059001E0BDE8F88F4FF05A
:10520000000A2FE009F0800030B16C480288314676
:105210004046FBF76BFF07E00A9828B96848028808
:1052200031464046FBF762FF4FEA49604FEA10699A
:10523000701C86B263484088B04200DCDDE7A6EB14
:105240000B00A0420AD15E4608F101001FFA80F867
:105250005C480088404500DCCFE706E00AF1010029
:1052600000F0FF0ABAF1080FCCDB00BF681CC5B222
:1052700000988542A5DB00BFBFE710B502460120BC
:1052800000E050430B00A1F10104E1B2F9D110BDDF
:105290002DE9FF4F81B0074691461E460E9D4FF007
:1052A000000A002439E0301B401EC1B20A20FFF77B
:1052B000E4FFB9FBF0F00A21B0FBF1F201FB1208A8
:1052C000BAF1000F16D1701EA04213DDB8F1000F25
:1052D0000ED10020AB4605EBDB71491001FB0471D8
:1052E000009088B22B4620220299FFF73EFF12E081
:1052F0004FF0010A0020AB4605EBDB71491001FBC2
:105300000471009088B208F13001CAB22B460299AC
:10531000FFF72BFF00BF601CC4B2B442C3DB05B073
:10532000BDE8F08F2DE9FF4F82B0064692461F463A
:10533000DDE90F480020019000255CE0781B401E4D
:10534000C1B20A20FFF799FFBAFBF0F00A21B0FBC7
:10535000F1F201FB12090198B0BB781EA84236DDBC
:10536000B9F1000F31D108F0800078B108F00100E8
:10537000A34604EBDB71491001FB0561009088B284
:10538000234630220399FFF7F0FE0EE008F00100FB
:10539000A34604EBDB71491001FB0561009088B264
:1053A000234620220399FFF7E0FE22E00008006C6C
:1053B00068FF0008DC030108CC0901084C0000204C
:1053C0004E0000209809002001E00120019008F023
:1053D0000100A34604EBDB71491001FB056100905D
:1053E00088B209F13001CAB223460399FFF7BDFE26
:1053F00000BF681CC5B2BD42A0DB06B0BDE8F08F9F
:105400002DE9F84704460D4690469946DDE90967BF
:1054100004F0FF0A08EB04001FFA80F809EB05000E
:105420001FFA80F916E0444502DB5446A81985B2FC
:105430004D4500DB14E0002000903A7833462946C1
:105440002046FFF792FE304606EBD07104EB610177
:105450008CB27F1C38787E2802DC38782028E2DA8B
:1054600000BFBDE8F887000008B5684602F0E4FE1A
:1054700008BD08B5684602F029FF08BD38B50446E6
:105480006A460821204609F015FA38BD10B5424891
:105490000078012805D102F011FE09F097FC02F016
:1054A0001EFE10BD10B56FF0040000F09AF93B48E5
:1054B00000683B49B0FBF1F03A4908703748006892
:1054C0003749B0FBF1F438480068C910B1FBF0F07F
:1054D0004443354800684FF47A71B1FBF0F033492A
:1054E00008804FF0E020006940F002004FF0E0211A
:1054F000086108464461006940F00100086110BD80
:105500002DE9F047074600264FF0E020D0F8149030
:105510002448007807FB00F800BFFFF7A5FF4FF015
:10552000E020856911E04FF0E0208469AC420CD0A6
:10553000AC4202D2281B064403E0A9EB0400284435
:1055400006442546464500D300E0ECE700BFFFF7E0
:1055500090FFBDE8F08770B504460F480078A0B111
:105560001348007888B911480088844206DB0F4848
:10557000008894FBF0F52846FFF780FF0B48008871
:1055800094FBF0F100FB114084B24FF47A7104FBFC
:1055900001F0FFF7B5FF70BDA1000020380000202A
:1055A00000127A005000002020190108520000204B
:1055B000A0000020014600BF704700BF4D4A12887E
:1055C00002F04002002AF9D0C2B24A4B1B1D1A80D9
:1055D000704710B586B00446012144F2040000F083
:1055E0003FFE444800F0CAFA4FF40070ADF81400D2
:1055F00003208DF8160018208DF8170005A93E48E5
:1056000000F06EF94FF48060ADF8140004208DF8BE
:10561000170005A9384800F063F925208DF800002F
:1056200003208DF801008DF8020001208DF80300A1
:10563000684600F08CF801940020ADF80800ADF841
:105640000A00ADF80C00ADF810000C20ADF80E000B
:1056500001A9284800F0D5FA012240F22551254839
:1056600000F067FB0121234800F057FB06B010BD96
:1056700010B502F023FD40F225511E4800F03EFC1B
:1056800010B31C4800F0BAFBC4B21C48008800F4F8
:105690000040C8B91948008800F4804060B10A2C65
:1056A00003D000201549088020E01448008840F409
:1056B00000401249088019E00D2C06D10F480088DF
:1056C00040F480400D49088010E00C480088C0F389
:1056D0000D000B490C5409480088401C07490880FC
:1056E00008460088C72801DD0020088002F0F7FC8A
:1056F00010BD0000003801400008014058000020A3
:10570000A60900200948804709480047FEE7FEE750
:10571000FEE7FEE7FEE7FEE7FEE7FEE7FEE7FEE761
:1057200004480549054A064B704700001B0800085D
:1057300031010008982A002098340020982C00207D
:10574000982C002031490143314A1160704770B5EF
:10575000002100230F22C47804B32D4C246804F4E4
:10576000E064C4F5E064210AC1F10403CA4044784E
:1057700004FA03F18478144021430901254C06788A
:10578000A155047804F01F050124AC4005786D1183
:10579000AD0005F1E025C5F8004109E0047804F00A
:1057A0001F050124AC401C4D0678761145F82640B3
:1057B00070BD1A4A0A400243154B1B1F1A607047FE
:1057C00039B1134A121D12680243114B1B1D1A6096
:1057D00006E00F4A121D126882430D4B1B1D1A6012
:1057E0007047042808D14FF0E021096941F0040115
:1057F0004FF0E022116107E04FF0E021096921F04C
:1058000004014FF0E0221161704700000000FA052A
:105810000CED00E000E400E080E100E080FFFF1F0D
:1058200010B50446CC48844208D10121042000F080
:1058300031FD0021042000F02DFD46E0C7488442E0
:1058400008D10121082000F025FD0021082000F0EA
:1058500021FD3AE0C248844208D10121102000F025
:1058600019FD0021102000F015FD2EE0BD488442F6
:1058700008D10121202000F00DFD0021202000F0A2
:1058800009FD22E0B848844208D10121402000F0FF
:1058900001FD0021402000F0FDFC16E0B3488442E9
:1058A00008D10121802000F0F5FC0021802000F0CB
:1058B000F1FC0AE0AE48844207D10121801500F0D6
:1058C000E9FC0021A01500F0E5FC10BD10B5012198
:1058D000084600F0DFFC0021012000F0DBFC10BDD9
:1058E0002DE9F04102460025002600200023002477
:1058F000002791F803C00CF00F0591F803C00CF0DD
:10590000100CBCF1000F03D091F802C04CEA050561
:1059100091F800C0BCF1000F31D0146800202BE0DA
:105920004FF0010C0CFA00F3B1F800C00CEA0306CA
:105930009E4220D183004FF00F0C0CFA03F7BC43BA
:1059400005FA03FC4CEA040491F803C0BCF1280FEB
:1059500006D14FF0010C0CFA00FCC2F814C00AE0AA
:1059600091F803C0BCF1480F05D14FF0010C0CFABF
:1059700000FCC2F810C0401C0828D1D31460B1F854
:1059800000C0BCF1FF0F34DD546800202EE000F1B0
:10599000080C4FF0010808FA0CF3B1F800C00CEA4B
:1059A00003069E4221D183004FF00F0C0CFA03F73F
:1059B000BC4305FA03FC4CEA040491F803C0BCF1B3
:1059C000280F05D100F1080C08FA0CF8C2F8148071
:1059D00091F803C0BCF1480F07D100F1080C4FF05B
:1059E000010808FA0CF8C2F81080401C0828CED331
:1059F0005460BDE8F0814FF6FF7101800221817093
:105A00000421C17070470246002093680B400BB11F
:105A1000012000E0002070470146886880B270478E
:105A200002460020D3680B400BB1012000E00020AB
:105A300070470146C86880B2704701617047416194
:105A400070470AB1016100E041617047C160704771
:105A50004FF480320A438261816182618269826986
:105A6000704702460020434B18684FF68073184079
:105A700040EA021008433F4B186070473E49C86136
:105A80007047F0B50A46002300240021002500F0ED
:105A90000046B6F1004F02D1364EF16901E0354EB5
:105AA0007168C0F3034583B200F44016B6F5401F99
:105AB00008D121F070612F4E766826F070662D4F68
:105AC0007E6012E000F48016B6F5801F06D1032632
:105AD00006FA05F4A14341F0706106E0460D360177
