:020000040800F2
:100000001804002045010008B1020008A9020008F8
:10001000AD0200088D010008E504000800000000A2
:100020000000000000000000000000003103000894
:100030009101000800000000B30200084504000818
:100040005F0100085F0100085F0100085F01000810
:100050005F0100085F0100085F0100085F01000800
:100060005F0100085F0100085F0100085F010008F0
:100070005F0100085F0100085F0100085F010008E0
:100080005F0100085F0100085F0100085F010008D0
:100090005F0100085F0100085F0100085F010008C0
:1000A0005F0100085F0100085F0100085F010008B0
:1000B0005F0100085F0100085F0100085F010008A0
:1000C0005F0100085F0100085F0100085F01000890
:1000D0005F0100085F0100085F0100085F01000880
:1000E0005F0100085F0100085F0100085F01000870
:1000F0005F0100085F0100085F0100085F01000860
:100100005F0100085F0100085F0100085F0100084F
:100110005F0100085F0100085F0100085F0100083F
:100120005F0100085F0100085F0100085F0100082F
:10013000DFF80CD000F018F800480047550500081B
:10014000180400200648804706480047FEE7FEE7FF
:10015000FEE7FEE7FEE7FEE7FEE7FEE7FEE7FEE777
:100160008504000831010008064C074D06E0E068F0
:1001700040F0010394E8070098471034AC42F6D3EE
:10018000FFF7DAFFD4050008F405000800BFFEE71A
:1001900070472DE9F041024600250026002000238B
:1001A0000024002791F803C00CF00F0591F803C05C
:1001B0000CF0100CBCF1000F03D091F802C04CEA17
:1001C000050591F800C0BCF1000F31D01468002083
:1001D0002BE04FF0010C0CFA00F3B1F800C00CEA70
:1001E00003069E4220D183004FF00F0C0CFA03F758
:1001F000BC4305FA03FC4CEA040491F803C0BCF1CB
:10020000280F06D14FF0010C0CFA00FCC2F814C004
:100210000AE091F803C0BCF1480F05D14FF0010C82
:100220000CFA00FCC2F810C0401C0828D1D314609E
:10023000B1F800C0BCF1FF0F34DD546800202EE09F
:1002400000F1080C4FF0010808FA0CF3B1F800C0F7
:100250000CEA03069E4221D183004FF00F0C0CFAEA
:1002600003F7BC4305FA03FC4CEA040491F803C00D
:10027000BCF1280F05D100F1080C08FA0CF8C2F8FF
:10028000148091F803C0BCF1480F07D100F1080CAD
:100290004FF0010808FA0CF8C2F81080401C08283A
:1002A000CED35460BDE8F08100BFFEE700BFFEE79B
:1002B0007047704729B1064A92690243044B9A611C
:1002C00004E0034A92698243014B9A61704700003F
:1002D0000010024008B501219020FFF7EBFF4FF618
:1002E000FF70ADF8000010208DF8030003208DF89A
:1002F000020069460C48FFF74CFFFF200A49C8601E
:100300004FF4E060ADF8000010208DF803000320EA
:100310008DF8020069460548FFF73BFF4FF6FF7076
:1003200002490C31086008BD00100140001C01406A
:10033000704710B500F002F810BD00000CB50020A9
:10034000019000903348006840F4803031490860E3
:1003500000BF3048006800F4003000900198401C55
:100360000190009818B90198B0F5A06FF1D1294813
:10037000006800F4003010B10120009001E000207E
:1003800000900098012843D12348006840F01000F5
:10039000214908600846006820F00300086008460C
:1003A000006840F0020008601A4840681949486037
:1003B0000846406848600846406840F480604860ED
:1003C0000846406820F47C1048600846406840F4C5
:1003D000E81048600846006840F08070086000BF80
:1003E0000C48006800F000700028F9D00948406807
:1003F00020F00300074948600846406840F00200CA
:10040000486000BF0348406800F00C000828F9D19C
:100410000CBD00000010024000200240042808D15A
:100420004FF0E021096941F004014FF0E022116131
:1004300007E04FF0E021096921F004014FF0E022CC
:10044000116170477047000010B504466FF004005A
:10045000FFF7E4FFE11704EB5171C1F3C701074A4D
:1004600011701046007800EB4001C1EBC0104FF650
:10047000FF7101EAC0000249088010BD1000002091
:100480001200002010B51348006840F00100114927
:10049000086008464068104908400E494860084610
:1004A00000680E4908400B4908600846006820F4BF
:1004B000802008600846406820F4FE0048604FF441
:1004C0001F008860FFF735FF4FF0006004490860A7
:1004D00010BD0000001002400000FFF8FFFFF6FE14
:1004E00008ED00E000BFFEE702E008C8121F08C1E7
:1004F000002AFAD170477047002001E001C1121FA5
:10050000002AFBD1704700000146114A12884A4375
:100510004FF0E0235A6100229A611A46126942F0B4
:1005200001021A6100BF4FF0E022106900F00102E1
:100530001AB100F48032002AF5D04FF0E02212699F
:1005400022F001024FF0E0231A6100229A61704705
:100550001200002000244820FFF776FFFFF7BAFEC4
:1005600008E0002404E0222000F006F8601CC4B279
:10057000092CF8DBF5E7000070B504460A2094FB6F
:10058000F0F694FBF0F100FB114500200E490860E5
:1005900008600E48405DC0430D49C86048150A49CF
:1005A00008600520FFF7B0FF0020074908600748F2
:1005B000805DC0430649C8600815034908600520EE
:1005C000FFF7A2FF70BD00000C1C014000000020DE
:1005D00000100140F4050008000000201400000095
:1005E000E8040008080600081400002004040000C5
:1005F000F80400083F065B4F666D7D077F6F777CD0
:08060000395E79710000000071
:0400000508000131BD
:00000001FF
