:020000040800F2
:1000000068070020CD010008E5030008A7030008E9
:10001000E10300087502000807090008000000005D
:10002000000000000000000000000000650500085E
:1000300079020008000000006D040008790600083D
:10004000E7010008E7010008E7010008E7010008F0
:10005000E7010008E7010008E7010008E7010008E0
:10006000E7010008E7010008E7010008E7010008D0
:10007000E7010008E7010008E7010008E7010008C0
:10008000E7010008E7010008E7010008E7010008B0
:10009000E7010008E7010008E7010008E7010008A0
:1000A000E7010008E7010008E7010008E701000890
:1000B000E7010008E7010008E7010008E701000880
:1000C000E7010008E7010008E7010008E701000870
:1000D000E7010008DD060008E7010008E701000865
:1000E000E7010008E7010008E7010008E701000850
:1000F000E7010008E7010008E7010008E701000840
:10010000E7010008E7010008E7010008E70100082F
:10011000E7010008E7010008E7010008E70100081F
:10012000E7010008E7010008E7010008E70100080F
:1001300000F002F800F03AF80AA090E8000C8244BF
:100140008344AAF10107DA4501D100F02FF8AFF29C
:10015000090EBAE80F0013F0010F18BFFB1A43F0A5
:1001600001031847B0120000D0120000103A24BF5B
:1001700078C878C1FAD8520724BF30C830C144BF0C
:1001800004680C607047000000230024002500264E
:10019000103A28BF78C1FBD8520728BF30C148BFEA
:1001A0000B6070471FB51FBD10B510BD00F033F8D0
:1001B0001146FFF7F7FF00F05DFD00F051F803B4C2
:1001C000FFF7F2FF03BC00F0A0FB000009488047E6
:1001D00009480047FEE7FEE7FEE7FEE7FEE7FEE729
:1001E000FEE7FEE7FEE7FEE704480549054A064B41
:1001F000704700007D0600083101000868010020FA
:1002000068070020680300206803002070477047DB
:10021000704770477047754600F028F8AE460500F5
:100220006946534620F00700854618B020B5FFF711
:10023000DBFFBDE820404FF000064FF000074FF015
:1002400000084FF0000B21F00701AC46ACE8C009F4
:10025000ACE8C009ACE8C009ACE8C0098D467047FD
:100260000446AFF300802046FFF7A9FF004870471F
:100270000801002000BFFEE770472DE9F04102466B
:1002800000250026002000230024002791F803C049
:100290000CF00F0591F803C00CF0100CBCF1000F2E
:1002A00003D091F802C04CEA050591F800C0BCF1FA
:1002B000000F31D0146800202BE04FF0010C0CFA35
:1002C00000F3B1F800C00CEA03069E4220D183007F
:1002D0004FF00F0C0CFA03F7BC4305FA03FC4CEA91
:1002E000040491F803C0BCF1280F06D14FF0010CB3
:1002F0000CFA00FCC2F814C00AE091F803C0BCF18B
:10030000480F05D14FF0010C0CFA00FCC2F810C0E8
:10031000401C0828D1D31460B1F800C0BCF1FF0F15
:1003200034DD546800202EE000F1080C4FF0010885
:1003300008FA0CF3B1F800C00CEA03069E4221D182
:1003400083004FF00F0C0CFA03F7BC4305FA03FCD3
:100350004CEA040491F803C0BCF1280F05D100F168
:10036000080C08FA0CF8C2F8148091F803C0BCF12C
:10037000480F07D100F1080C4FF0010808FA0CF8FB
:10038000C2F81080401C0828CED35460BDE8F0812C
:100390000246002093680B400BB1012000E00020D2
:1003A00070470161704700BFFEE7000008B50121FA
:1003B000082000F05DF82020ADF8000010208DF836
:1003C000030003208DF8020069460448FFF755FF3B
:1003D00020210248FFF7E5FF08BD0000000C0140A6
:1003E00000BFFEE77047000070B5002100230F2218
:1003F000C47804B3154C246804F4E064C4F5E064E4
:10040000210AC1F10403CA40447804FA03F1847854
:100410001440214309010E4C0678A155047804F0DC
:100420001F050124AC4005786D11AD0005F1E025F4
:10043000C5F8004109E0047804F01F050124AC4030
:10044000044D0678761145F8264070BD0CED00E0AD
:1004500000E400E080E100E002490143024A11604B
:10046000704700000000FA050CED00E07047000046
:1004700029B1064A92690243044B9A6104E0034A97
:1004800092698243014B9A6170470000001002405C
:1004900030B500210022002400232D4D6D6805F0A9
:1004A0000C0121B1042905D0082923D105E0294DEB
:1004B000056022E0274D05601FE0254D6D6805F4BD
:1004C0007012234D6D6805F48034022505EB9242CD
:1004D0001CB9214D554305600BE01D4D6D6805F4B9
:1004E00000351DB11C4D5543056002E0194D5543C3
:1004F000056002E0174D056000BF00BF144D6D6838
:1005000005F0F0010909154D6B5C0568DD4045609B
:100510000F4D6D6805F4E061090A104D6B5C45688C
:10052000DD4085600A4D6D6805F46051C90A0B4DC8
:100530006B5C4568DD40C560054D6D6805F4404164
:10054000890B074D6B5CC568B5FBF3F5056130BDE4
:100550000010024000127A0000093D002A0000202D
:100560003A000020704710B500F002F810BD0000FE
:100570000CB50020019000903348006840F48030B2
:100580003149086000BF3048006800F40030009036
:100590000198401C0190009818B90198B0F5A06F1F
:1005A000F1D12948006800F4003010B1012000901A
:1005B00001E0002000900098012843D12348006802
:1005C00040F01000214908600846006820F0030050
:1005D00008600846006840F0020008601A48406859
:1005E000194948600846406848600846406840F439
:1005F000806048600846406820F47C1048600846E7
:10060000406840F4E81048600846006840F0807098
:10061000086000BF0C48006800F000700028F9D0A6
:100620000948406820F003000749486008464068D0
:1006300040F00200486000BF0348406800F00C0032
:100640000828F9D10CBD0000001002400020024033
:10065000042808D14FF0E021096941F004014FF06E
:10066000E022116107E04FF0E021096921F0040167
:100670004FF0E022116170477047000010B5134839
:10068000006840F0010011490860084640681049C0
:1006900008400E494860084600680E4908400B496A
:1006A00008600846006820F480200860084640681A
:1006B00020F4FE0048604FF41F008860FFF753FFEE
:1006C0004FF000600449086010BD000000100240B7
:1006D0000000FFF8FFFFF6FE08ED00E010B540F265
:1006E00025511D4800F04AF810B31B4800F002F9EC
:1006F000C4B21A48008800F40040C8B917480088FE
:1007000000F4804060B10A2C03D000201349088017
:1007100020E01248008840F400401049088019E0A9
:100720000D2C06D10D48008840F480400B4908800C
:1007300010E00A480088C0F30D0009490C5407482E
:100740000088401C0549088008460088C72801DD4C
:100750000020088010BD0000003801402800002063
:100760004000002021B1828942F40052828104E0DD
:1007700082894DF6FF731A408281704770B5024638
:10078000002400230025002040F66A16B14200D163
:1007900000BFC1F3421501F01F03012606FA03F35F
:1007A000012D02D19689334006E0022D02D1168A2E
:1007B000334001E0968A33400C12012606FA04F415
:1007C0001688344013B10CB1012000E0002070BD48
:1007D000F0B50346002400260025002040F66A17E5
:1007E000B94200D100BF1846C1F3421401F01F0600
:1007F000012707FA06F5012C01D10C3004E0022C88
:1008000001D1103000E014301AB107682F4307609F
:1008100002E00768AF430760F0BD00002DE9F04734
:1008200086B005460E460024A24600BFA14600271A
:10083000B08900B100BF2F462C8A4CF6FF700440EF
:10084000F08804432C82AC894EF6F3100440B08843
:1008500031890843718908430443AC81AC8A4FF65F
:10086000FF400440B0890443AC8201A8FFF710FEAA
:100870001F48874202D1DDF810A001E0DDF80CA08E
:10088000A88900F4004040B10AEBCA0000EB0A104E
:1008900031684900B0FBF1F807E00AEBCA0000EB51
:1008A0000A1031688900B0FBF1F86420B8FBF0F061
:1008B00004012009642101FB1089A88900F400408B
:1008C00040B1322000EBC900B0FBF1F000F00700AE
:1008D000044308E0322000EB09106421B0FBF1F082
:1008E00000F00F0004432C8106B0BDE8F087000043
:1008F0000038014001468888C0F308007047C1F302
:1009000008028280704700BFFEE7014600BF7047C3
:1009100010B56FF00400FFF79BFE0A4800680A4913
:10092000B0FBF1F0094908700846007800EB40017F
:10093000C1EBC0104FF6FF7101EAC0000449088006
:1009400010BD00000000002000127A001E000020F0
:10095000200000200146114A12884A434FF0E0234C
:100960005A6100229A611A46126942F001021A6124
:1009700000BF4FF0E022106900F001021AB100F44C
:100980008032002AF5D04FF0E022126922F00102F5
:100990004FF0E0231A6100229A6170472000002086
:1009A0000146114A12784A434FF0E0235A6100226F
:1009B0009A611A46126942F001021A6100BF4FF0B3
:1009C000E022106900F001021AB100F48032002A1E
:1009D000F5D04FF0E022126922F001024FF0E0233F
:1009E0001A6100229A6170471E00002010B50F485E
:1009F000006820F070400D4908600846006840F02B
:100A00004050086000200A4908600A49C1F89C016A
:100A10000220FFF7C5FF0120054908600220FFF70B
:100A2000BFFF00200349C1F8980110BD000C014030
:100A3000988121420080214208B501210820FFF75A
:100A400017FDC020ADF8000010208DF80300032032
:100A50008DF8020069460248FFF70FFC08BD000050
:100A6000000C014010B51048006820F070400E499D
:100A700008600846006840F04050086000200B49BC
:100A8000086001200A49C1F89C010220FFF788FF95
:100A90000120064908600220FFF782FF0020044978
:100AA000C1F8980110BD0000000C0140988121425E
:100AB0000080214270B5054600241848006820F0E7
:100AC0007040164908600846006840F00040086021
:100AD000002616E00020124908600120FFF760FFA1
:100AE00001201049C1F89801FFF75AFF6006040E73
:100AF00080210A48FFF74CFC08B144F00104701C47
:100B0000C6B2082EE6DB15B1FFF770FF01E0FFF774
:100B1000A9FF002002490860204670BD000C01407A
:100B2000988121420080214210B50F48006820F0D2
:100B300070400D4908600846006840F04050086069
:100B400001200A4908600A49C1F898010420FFF70A
:100B500027FF0020054908600420FFF721FF00203F
:100B60000349C1F8980110BD000C01409C8121424D
:100B70000080214210B50E48006820F070400C49FA
:100B800008600846006840F04050086000200949AD
:100B9000086001200849C1F898010420FFF700FF10
:100BA0000120044908600420FFF7FAFE10BD000090
:100BB000000C01409C8121420080214210B500249C
:100BC0001148006820F070400F490860084600682E
:100BD00040F00040086000200C4908600120FFF749
:100BE000DFFE01200A49C1F89801FFF7D9FE8021F4
:100BF0000548FFF7CDFB08B1012010BD00200349D7
:100C0000086000BFF9E70000000C01409881214214
:100C10000080214270B504461348006820F07040FF
:100C2000114908600846006840F040500860002004
:100C30000E490860002513E0E0090C49091D086011
:100C40006006040E01200A49C1F89801FFF7A8FECA
:100C50000020064908600120FFF7A2FE681CC5B20B
:100C6000082DE9DB70BD0000000C01409881214295
:100C70000080214200BFFFF74BFEFFF7DDFEFFF7CC
:100C800095FB4FF4A060FFF7E7FB4FF4165000F020
:100C9000D7F800F07FF821E000F088F810480088CD
:100CA000822804D00E4801880E48FFF728FEC8208D
:100CB000FFF750FE0C480088642804D00A480188D9
:100CC0000848FFF71CFE0948006808B9012000E049
:100CD000002006490860C820FFF73CFEDCE7000062
:100CE00016000020003801401400002094812142A9
:100CF00010B50446FFF718FF8820FFF78BFFFFF7BA
:100D00005DFF2012FFF786FFFFF758FFE0B2FFF705
:100D100081FFFFF753FF10BD2DE9F0410446204647
:100D200000F022FA0746064900F03CF9064605495C
:100D300000F02EFA054600F0F7F980B2BDE8F08128
:100D400000FF7F470000C8422DE9F04104462046DD
:100D500000F00AFA8046084900F024F907460749DE
:100D600000F016FA0646064900F0DEFA054600F0E5
:100D7000DBF980B2BDE8F08100FF7F4700002F4320
:100D80000000344210B504462046FFF7B1FFFFF7DC
:100D9000F1FE10BD10B56420FFF7DCFD42F2320019
:100DA000FFF7F0FF6420FFF7D5FD10BD10B50D492A
:100DB0004FF4604000F01CF80A494978094A12785B
:100DC00041EA0220FFF7C0FF074908800549097979
:100DD000044AD27841EA0220FFF79EFF03490880C7
:100DE00010BD000018000020160000201400002094
:100DF00070B505460C462846FFF77AFFFFF794FECC
:100E00008920FFF707FFFFF7D9FE0120FFF752FE09
:100E100020700120FFF74EFE60700120FFF74AFEB0
:100E2000A0700120FFF746FEE0700120FFF742FEB0
:100E300020710020FFF73EFE6071FFF79BFE70BD42
:100E400010B586B00446012144F20400FFF710FB00
:100E50004FF40070ADF8140003208DF81600182030
:100E60008DF8170005A91C48FFF707FA4FF48060BA
:100E7000ADF8140004208DF8170005A91648FFF7F7
:100E8000FCF925208DF8000003208DF801008DF875
:100E9000020001208DF803006846FFF7A5FA0194CF
:100EA0000020ADF80800ADF80A00ADF80C00ADF870
:100EB00010000C20ADF80E0001A90848FFF7AEFCA9
:100EC000012240F225510548FFF782FC0121034829
:100ED000FFF748FC06B010BD000801400038014093
:100EE00090EA010F48BF81F0004100F12482421ACC
:100EF0003CBF801A89184FEAD0524FF07F4C1CEA51
:100F0000410FA2EBD15318BF9CEA026F00F03B8067
:100F10004FF0004C4CEA00204CEA012121FA03FC7E
:100F200010EB0C0C1ED202F1FF325FEA1C2040EBEA
:100F3000C25038BF70471CF07F0F4FEA400C18BFFB
:100F4000BCF17F4F38BF7047C3F12003994008BF01
:100F500020F00100BCF17F4F38BF7047A0F1C040C6
:100F600000F0DDB94FEA3C00000A40EBC25028BF58
:100F70001CF0FF0F4FEA400CE6D018BFBCF17F4FCA
:100F800038BF7047EAE79CEA026F05D010EA5C0FB1
:100F900008BF00F00040704710B500F07AF900BFBC
:100FA00064FBBE3E4FF47F0C1CEAD0121EBF1CEA4D
:100FB000D11392EA0C0F93EA0C0F00F0858090EAAF
:100FC000010F48BF42F4807240F4000C41F400006D
:100FD0002CF07F4120F07F4000B58142A2EB03025C
:100FE0000FF2081CACEB504EC0F100009EF800E080
:100FF0004FEA4E0E00FB0EFC38BF49004FEA2C1C96
:1010000002F5FA020CFB0EF34FEACE1E4FEA112C4A
:101010004FEAC1210EEB635E42EB22420EFB0CFC59
:101020004FEA1C5300FB03114FEA112C4FEA013128
:101030000EFB0CFC4FEADC4C00FB0C11C14228BF3C
:1010400009184CEB03335DF804EB10EB410143EB63
:10105000C250B2F57C0F38BF704729D512F0F00F9F
:101060001CBF00F1C04000F0004070470081828347
:101070008485868788898B8C8D8E8F9192939596A7
:1010800097999A9C9D9FA0A2A3A5A7A8AAACAEB031
:10109000B2B3B5B7B9BCBEC0C2C5C7C9CCCED1D436
:1010A000D7D9DCDFE2E6E9ECF0F3F7FAFE00000066
:1010B0004FEA400C0CF1807CBCF17E4F28BF70479A
:1010C000B0F1C04000F02BB990EA010F0CEAD11347
:1010D00048BF42F48072624538BF634507D213F4BB
:1010E0007F0F16D080EA010000F00040704710B575
:1010F00000F0CFF8097EFC3E00F005B880EA010060
:1011000000F00040704780EA010000F0004000F06D
:1011100006B912F47F0F04BF0248704780EA01004D
:1011200000F0FDB80000C07FC10DD1F19E0206DBCA
:101130004FEA002343F0004323FA02F070470042D5
:1011400007D54FEA4001B1F1FE4F02D24FF0000047
:10115000704710B500F09DF8499224800020704738
:101160006FEA200070470000B0FA80F310FA03F233
:10117000C3F19D030AD0D90501EB1220530638BFF5
:10118000704700F1010008BF20F001007047000027
:101190004FF47F0C1CEAD0121EBF1CEAD11392EA56
:1011A0000C0F93EA0C0F00F0478090EA010F48BF44
:1011B00042F480724FF0004C4CEA00204CEA0121CE
:1011C00002EB0302A0FB0113A2F50002002918BFE5
:1011D00043F001035B0028BF4FEA330342EB224296
:1011E0005FEA132C4CEBC2502EBFBCEB436FB2F541
:1011F0007C0F70474FEA036CBCF1004F08BF20F032
:101200000100B2F57C0F38BF70470BD582F0FF02AA
:1012100012F5803FC8BF704700F1C040D8BF00F052
:101220000040704700F5000C5FEA4C0C48BF704767
:10123000B0F1C04000F073B890EA010F0CEAD1138E
:1012400048BF42F48072624538BF634504D280EAE9
:10125000010000F00040704710B500F01AF800BF20
:101260008900013E00F007B800F009B85FEA410CC0
:101270005FEA1C6C08D080EA010000F050B85FEA19
:10128000400C5FEA1C6CF6D14FF00040A0F58000E6
:1012900070470EF1020E2EF0030E5EF8044B24424E
:1012A00004D44FEA4102B2F17F4F11D84FEA400314
:1012B000B3F17F4F0CD80ED14FEAD07CB2F17F4F03
:1012C0000CEB4C0C0CF1020C08BF4CEBD17C04E095
:1012D0004FF0080C01E04FEAD17C0CEB4C0324FAF0
:1012E00003F404F00704B4F1040C06D20EEB840CF2
:1012F000BDE810404CF0010C6047DFE80CF0070837
:1013000002024FF00040A0F5800010BD08464200E8
:1013100018BFD2F1807288BF00F0004010BDFF21DD
:1013200041EAD050C005704790EA010F48BF81F0F4
:1013300000413FF5DCAD421A04D882F00042A0EB38
:10134000020011444FEAD0524FF07F4C1CEA410F8B
:10135000A2EBD15318BF9CEA026F4AD04FF0004C69
:101360004CEA00204CEA012121FA03FCB0EB0C0C02
:101370000FD412F0FE0F36D05FEA4C001DD50012DC
:1013800040EBC25038BF70471CF03F0F18BF70478A
:101390000BE0A2F101025FEA1C2040EBC25038BF13
:1013A00070471CF07F0F18BF7047C3F120039940AE
:1013B00014BF401E20F00100704780084FEA12233E
:1013C00008BF7047B0FA80FCA2EB0C02CCF1280CED
:1013D00060FA0CF093EA122F04BF00EBC250704782
:1013E0004FEAC3707047130A5FEADC1008BF70470A
:1013F000F6E79CEA026F04D010EA5C0F08BF0020F9
:10140000704710B5FFF745FF40DFF63E81F0004022
:101410007047000034140008000000204000000065
:101420006C01000874140008400000202807000028
:101430008801000800A24A0400000000000000002B
:101440000102030406070809000000000000000074
:10145000000000000000000000000000000000008C
:101460000000010203040102030406070809020444
:04147000060800006A
:04000005080001CD21
:00000001FF
