:020000040800F2
:10000000F06E00204D3200081503000817030008A9
:100010001B0300081F030008230300080000000062
:10002000000000000000000000000000270300089E
:1000300029030008000000002B0300082D0300081E
:10004000673200086732000867320008673200082C
:10005000673200086732000867320008673200081C
:10006000673200086732000867320008673200080C
:1000700067320008673200086732000867320008FC
:1000800067320008673200086732000867320008EC
:1000900067320008673200086732000867320008DC
:1000A00067320008673200086732000867320008CC
:1000B0002F030008673200080B10000867320008A1
:1000C00067320008673200086732000867320008AC
:1000D00067320008C33100084F030008F308000826
:1000E000673200086732000867320008673200088C
:1000F000673200086732000867320008673200087C
:100100006732000867320008472700086732000896
:10011000DF26000867320008CB120008271000080D
:10012000673200086732000867320008673200084B
:1001300000F002F800F090F80AA090E8000C824469
:100140008344AAF10107DA4501D100F085F8AFF246
:10015000090EBAE80F0013F0010F18BFFB1A43F0A5
:1001600001031847147C0000347C0000103A24BFBF
:1001700078C878C1FAD8520724BF30C830C144BF0C
:1001800004680C607047000000230024002500264E
:10019000103A28BF78C1FBD8520728BF30C148BFEA
:1001A0000B6070476E2905F04780702905F07D814E
:1001B000662907F06E82652907F06B82672907F0D0
:1001C00068826129AFF3008003681B0A28BF41F0F1
:1001D0008001692904F0F487642904F0F187752906
:1001E00004F0EE876F2905F00B81782905F049812D
:1001F000E92905F0A580E42905F0A280F52905F09C
:100200009F80EF2905F00881F82905F048810368EF
:10021000DB0928BF41F08001632905F0E3847329DD
:1002200005F0E884E32905F0F384F32905F0F88468
:10023000002070471FB505F049FD04000020002193
:1002400006F02CFA401C60600020002106F010FA35
:10025000E0601FBD10B510BD05F00AFD1146FFF7A7
:10026000E9FF00F009F805F0E3FD03B4FFF7F2FF42
:1002700003BC02F04BFF000010B500F03AF902F0A9
:10028000DBFE4FF4A06003F001F800F0EFF900F09E
:10029000B1F901F025FF01F077FE01F0F1FE4FF416
:1002A00080711A4803F053F9A8B100F098FA02F0EF
:1002B0007AF90FE04FF48071144803F048F908B957
:1002C00000F0B6F9124804F009FF02F0F5FD6420D1
:1002D00002F0EFFEEEE74FF480710C4803F037F9BF
:1002E00088B900F050FF0DE04FF48071074803F02B
:1002F0002EF908B100F09CF901F09FFB02F085F89F
:1003000002F0D6F8F0E7002010BD00000008014020
:1003100014010020704700BFFEE700BFFEE700BFEA
:10032000FEE700BFFEE7704770477047704710B5A3
:100330000121880704F095FC40B10121880704F0F1
:10034000A1FC00214FF0804004F0C2F910BD2DE95E
:10035000F04140F225512B4803F046FD00284ED0D5
:100360000721284803F02AFD08B1012500E00025F7
:10037000244803F0B9FCC6B223480088202817DAC5
:10038000B5B922482049098820F811601E48008824
:10039000401C1D4908800121880704F073FC0021DE
:1003A0004FF0804004F028FC0121880704F090F908
:1003B00015480088202822D11448008842281ED1E0
:1003C000124840884D281AD1002406E00F4830F822
:1003D0001400384487B2601CC4B21E2CF6DB0B48F4
:1003E000C08F0A49898F00EB0120B84207D1074826
:1003F000C0890649097B00EB012005490880BDE85A
:10040000F08100000044004000000020D4000020E3
:10041000020000200CB50020019000906C4800689C
:1004200040F480306A49086000BF6948006800F401
:10043000003000900198401C0190009818B9019874
:10044000B0F5A06FF1D16248006800F4003010B13F
:100450000120009001E0002000900098012843D185
:100460005C48006840F010005A490860084600687F
:1004700020F0030008600846006840F002000860B1
:1004800053484068524948600846406848600846FA
:10049000406840F4806048600846406820F47C1062
:1004A00048600846406840F4E81048600846006824
:1004B00040F08070086000BF4548006800F00070A0
:1004C0000028F9D04248406820F0030040494860C5
:1004D0000846406840F00200486000BF3C48406861
:1004E00000F00C000828F9D10CBD10B5FFF792FF01
:1004F00010BD10B53648006840F00100344908606E
:100500000846406834490840314948600846006858
:10051000324908402E4908600846006820F48020CF
:1005200008600846406820F4FE0048604FF41F0051
:100530008860FFF7DAFF4FF000602949086010BDBE
:1005400010B5002100200022214B5B6803F00C0154
:1005500021B1042906D0082928D107E0214B224CDB
:10056000236027E01F4B204C236023E0184B5B687F
:1005700003F47010164B5B6803F48032022303EB24
:10058000904022B9194B4343174C23600DE0104BA8
:100590005B6803F4003323B1144B4343124C2360D4
:1005A00003E0104B4343104C236003E00D4B0E4C13
:1005B000236000BF00BF064B5B68C3F303130C4C02
:1005C000E15C094B1B68CB40074C236010BD000069
:1005D00000100240002002400000FFF8FFFFF6FE7E
:1005E00008ED00E000127A000400002000093D0040
:1005F0000800002008B501210C2003F0D1F91020DB
:100600008DF8030047F22200ADF8000003208DF8BA
:1006100002006946104802F007FF4120ADF80000D3
:1006200069460E4802F000FF01200D49086008BD30
:10063000012080F3138800BF00BF0A48006800F45F
:10064000E06009490843001D06490860BFF3408F78
:1006500000BF00BFFEE70000000C014000080140A1
:10066000B88121420CED00E00000FA0508B5012137
:10067000142003F095F948208DF803004FF47070B2
:10068000ADF8000003208DF802006946054802F02D
:10069000CBFE4FF48070ADF800006946024802F0CE
:1006A000C3FE08BD00100140000801400120FE49C2
:1006B00008800820488009208880EB20C88042F20A
:1006C000F210088145F61A4048817D20888101207A
:1006D000F64908850020488501208885C8850020C6
:1006E0000886488601208886C886088700204887B3
:1006F000704770B502460C46FF25FF2309E012F84B
:10070000010B80EA0501EA48405C80EA0305E948FC
:10071000435C2000A4F10106B4B2F0D143EA052005
:1007200070BD1FB504460121042003F046F9ADF861
:10073000084041F61F40ADF804000020ADF80A0063
:10074000ADF8060001A9DC4803F066FC0122412156
:10075000D94803F0D8FF1E208DF8000002208DF844
:1007600001008DF8020001208DF80300684602F0B8
:1007700092FD0121D04803F0ABFF1FBD1FB5012141
:10078000202003F01AF9CD48008800EB80004FF6D6
:10079000FF7101EA4000ADF8080041F61F40ADF8D6
:1007A00004000020ADF80A00ADF8060001A9C44815
:1007B00003F032FC01221146C14803F0A4FF3720A8
:1007C0008DF8000002208DF8010003208DF8020052
:1007D00001208DF80300684602F05DFD1FBD00B5E5
:1007E00087B00121282003F0DBF80121880403F001
:1007F000E4F84FF48060ADF8180018208DF81B0065
:1008000003208DF81A0006A9AE4802F00DFE4FF441
:100810000060ADF8180004208DF81B0006A9A94857
:1008200002F002FE8020ADF8180010208DF81B00A9
:1008300006A9A54802F0F8FD8021A34802F0A3FE16
:10084000A24803F011F9A248006802900020ADF818
:100850001400ADF80C00ADF80E000C20ADF812003D
:100860009C48007820B1012806D002280ED108E06B
:100870000020ADF8100009E04FF4C060ADF81000A2
:1008800004E04FF48060ADF8100000BF00BF02A983
:100890008E4803F02CF940F225518C4803F0CEFA33
:1008A000012240F22551894803F0B9F927208DF83B
:1008B000040002208DF805008DF8060001208DF857
:1008C000070001A802F0E7FC0121804803F09BF932
:1008D000012081490860FFF751FFFFF7E7FE4FF461
:1008E000E13002F022FC40F6C410FFF71AFF07B017
:1008F00000BD70B54FF48071784802F028FE80B3D7
:1009000040F22551714803F06FFA00285BD00721AF
:100910006E4803F053FA08B1012400E000246B484C
:1009200003F0E2F9C5B26E48008840F2FF718842D8
:1009300049DA002C47D16B48694909884554684811
:100940000088401C6649088001215D4804F09AF93E
:1009500000215B4804F050F90121594803F0B8FE2A
:1009600031E0FFE740F22551584803F03DFA50B31B
:100970000721564803F022FA08B1012400E00024C0
:10098000002059490860514803F0AEF9C5B25748F4
:10099000008840F2FF71884215DAA4B954485349DF
:1009A0000988455451480088401C5049088001215D
:1009B000504804F067F900214E4804F01DF9012168
:1009C0004C4803F085FE70BD4648C0784A49097816
:1009D0004A4A02F81100434801794748007840002C
:1009E000401C115444480078401C43490870084694
:1009F0000078042825D111460978927811443F4A9D
:100A0000127911443D4A92798818C11700EB91710F
:100A1000C1F387013A4A117038494978374AD27888
:100A20001144364A52791144344AD2798818C11790
:100A300000EB9171C1F38701324A117000202E49F9
:100A40000870704700B53048007801280CD10020AC
:100A50002D4908702249088001201F4908600020A4
:100A60002A490870FFF7B0FF00BD70B504460D4677
:100A70000120194908600BE000BF8021134803F0F2
:100A80009DF90028F9D014F8011B104803F028F94B
:100A90002800A5F10101CDB2EED100BF40210B48E5
:100AA00003F08CF9002833E0741A0020DC110020D8
:100AB0009676000896770008000800401E00002087
:100AC00000140040000C01400014014000480040A8
:100AD000180000201C0000209C81224200080140D8
:100AE0002000002014010020B48121425000002089
:100AF000442200200010004040000020C4000020DC
:100B00004100002042000020220000202E00002092
:100B1000C4D00120F74908700020F749086070BD73
:100B20002DE9F04180460E4614463019B0F57A7F23
:100B300017DA002513E07019F04931F8100000129F
:100B4000072101EB4501EE4A50547019EB4911F8A9
:100B50001000082101EB45015054681CC5B2A542A4
:100B6000E9DBE74880F800801020E5494870301242
:100B70008870CE70201208714C716006000E88716A
:100B80006000C01D81B2DE48FFF7B3FD0746390A99
:100B90006000C01DDA4A115460000830175460002C
:100BA0000930C1B21046FFF760FFBDE8F0812DE9C2
:100BB000F04781460F4615467819642873DA2846AF
:100BC000E91705EB5171C1F3CF06E91705EB517138
:100BD000C910A5EBC10109B1701C86B2002460E008
:100BE000E11704EB5171C910A4EBC10141B9002216
:100BF0002046E11704EB5171C910C91DC04B5A546E
:100C00002046E21704EB5272D210D21DBC4B9A5C04
:100C100053102146E21704EB5272D210D21DDFF8B6
:100C2000E0C20CF802303819B64931F8100088B12A
:100C30002046E21704EB5272D210D21D63469A5C32
:100C400042F080032146E21704EB5272D210D21D0B
:100C50000CF80230681EA04221D1E91705EB517152
:100C6000C910A5EBC101D1B1E21704EB5272D21049
:100C7000D21DA34B9A5C2946EB1705EB5373DB108F
:100C8000A5EBC303C3F108031A412046E31704EBA5
:100C90005373DB10DB1DDFF868C20CF80320601C07
:100CA00084B2AC429CDB964880F800900F209449B7
:100CB000487038128870CF70281208714D718E718B
:100CC000F01D81B28E48FFF714FD80464FEA1821CF
:100CD000F01D8B4A1154401C02F80080401CC1B228
:100CE0001046FFF7C2FEBDE8F0872DE9F04105464A
:100CF0000C4617468248057006208149487020122C
:100D00008870CC707D4830F81400001208717B4860
:100D100010F81400487106217948FFF7EAFC0646EE
:100D2000300A77498871CE7108217548FFF79DFE1A
:100D3000BDE8F0812DE9F04107460C469046B8F138
:100D4000010F1FD16F4830F8140010B14FF47F45E8
:100D500000E000256A4807700520694948702012A4
:100D60008870CC70281208714D7106216448FFF715
:100D7000C0FC0646300A62498871CE71082160487D
:100D8000FFF773FEBDE8F0812DE9F04106460C4601
:100D900015465B4806700320594948702012887038
:100DA000CC70281208714D7106215548FFF7A1FC3F
:100DB0000746380A52498871CF7108215048FFF719
:100DC00054FEBDE8F0812DE9F04106460C4615467B
:100DD0004B48067002204A49487020128870CC7037
:100DE000281208714D7106214548FFF782FC07461D
:100DF000380A43498871CF7108214148FFF735FE11
:100E0000BDE8F0812DE9F04106460C4615463C4808
:100E1000067001203A49487020128870CC70281260
:100E200008714D7106213648FFF763FC0746380A02
:100E300033498871CF7108213148FFF716FEBDE8AC
:100E4000F0812DE9F04107460C4615461E46052C5B
:100E500020D006DC012C0BD0022C0FD0032C31D17A
:100E600012E0062C1CD00F2C20D0102C2AD123E00D
:100E7000324629463846FFF7C5FF23E03246294669
:100E80003846FFF7A0FF1DE0324629463846FFF7F7
:100E90007BFF17E0324629463846FFF74BFF11E04B
:100EA000324629463846FFF720FF0BE032462946F6
:100EB0003846FFF77CFE05E0324629463846FFF704
:100EC0002FFE00BF00BFBDE8F08110B50E480388BB
:100ED0000E4802880E4801780E480078FFF7B1FFEF
:100EE00010BD10B50C480078C0B1012878D0022898
:100EF0006CD184E02E0000209C812242741A0020D4
:100F000014090020DC1100202C0000202A00002001
:100F1000280000202700002043000020FFF7D5FF15
:100F20005A48006808B9012000E0002057490860CD
:100F30005748D0F8940108B9012000E00020534937
:100F40002039086053480078F0B3012052490870F6
:100F50004102524802F0FBFA04464FF480714F48B8
:100F600002F0F5FA44EA400480214C4802F0EFFA1E
:100F700044EA80044021494802F0E9FA44EAC0000A
:100F8000401C47490978884204DD45480078401CE8
:100F9000434908704FF40071404802F0D8FA044603
:100FA0004FF480713D4802F0D2FA44EA40048021B7
:100FB0003A4802F0CCFA44EA80044021374802F073
:100FC000C6FA44EAC00002E009E009E01BE0401C68
:100FD00033490978884202D100203149087012E073
:100FE000FFF730FD2B48007818B900202A49087017
:100FF00004E029480078401C2749087003E00020DD
:101000002549087000BF00BF10BD10B5012125485B
:1010100003F027FE012805D10121224803F032FE0A
:10102000FFF75FFF10BD10B501211F4803F019FE47
:1010300060B101211C4803F025FE00211A4803F08D
:1010400047FB0120194908601949087010BD2DE9B6
:10105000F04106460C461546164806700420154910
:10106000487020128870CC70281208714D710621CA
:101070001048FFF73EFB0746380A0E498871CF71CA
:1010800008210C48FFF7F1FCBDE8F081B481214252
:10109000008021422E00002043000020001001406B
:1010A0002700002000080040001400409C812242DC
:1010B0002200002014090020FD48FE490860001F9E
:1010C0004860001F8860FC48C860FC48FC49086014
:1010D000F74884304860FB48FB490860FB4848609B
:1010E000FB488860FB48C860F6480861F7484861DB
:1010F000F7488861704770B502460C46FF25FF230C
:1011000009E012F8010B80EA0501F348405C80EA2F
:101110000305F248435C2000A4F10106B4B2F0D10B
:1011200043EA052070BD1FB50121102002F045FCE7
:10113000EB48008800EB80004FF6FF7101EA4000A9
:10114000ADF808004FF4E150ADF804000020ADF810
:101150000A00ADF8060001A9E24802F05DFF012295
:101160001146E04803F0CFFA36208DF80000022047
:101170008DF801008DF8020001208DF8030068460B
:1011800002F089F81FBD00B587B00121282002F0C8
:1011900007FC0121880402F010FC4FF48060ADF8D8
:1011A000180018208DF81B0003208DF81A0006A9DE
:1011B000CD4802F039F94FF40060ADF81800042072
:1011C0008DF81B0006A9C84802F02EF98020ADF862
:1011D000180010208DF81B0006A9C44802F024F95D
:1011E0008021C24802F0CFF9C14802F03DFCC1485D
:1011F000006802900020ADF81400ADF80C00ADF8C6
:101200000E000C20ADF81200BB48007820B1012878
:1012100006D002280ED108E00020ADF8100009E049
:101220004FF4C060ADF8100004E04FF48060ADF8FA
:10123000100000BF00BF02A9AD4802F058FC40F208
:101240002551AB4802F0FAFD012240F22551A84891
:1012500002F0E5FC27208DF8040000208DF8050041
:101260008DF8060001208DF8070001A802F013F8A0
:1012700001219F4802F0C7FC0020A0490860FFF749
:1012800052FFFFF719FF07B000BD70B504460D46C9
:1012900001209A4908600BE000BF8021944802F0C9
:1012A0008DFD0028F9D014F8011B914802F018FDBB
:1012B0002800A5F10101CDB2EED100BF40218C483C
:1012C00002F07CFD0028F9D070BD10B501218548E1
:1012D00003F0C7FC60B10121824803F0D3FC002178
:1012E000804803F0F5F901208449086084490870BA
:1012F00010BD10B5834840798249097940EA012040
:10130000814908808148008809880844B0F57A7FBF
:101310004EDA002422E0072000EB44007949085C03
:101320007A4909882144684A52F821100880774890
:1013300000882044114651F820000088082101EB64
:101340004401704A515C40EA0120704909882144F7
:101350005D4A52F821100880601CC4B26A480088B7
:101360008442D8DB6748007869490870654840784E
:1013700048706448807888706248C078C870614856
:10138000007908715F484079487106216048FFF78D
:10139000B2FE6049088008460088000A5C498871EE
:1013A0005C480078C87108215948FFF76EFF0EE0CD
:1013B00054480078564908705248407840F0800000
:1013C00048700220887003215148FFF75EFF10BD6E
:1013D00010B54C48007900023B494C4A128851F83C
:1013E0002210088038484949098850F821000088AF
:1013F0004449497908433449444A128851F8221033
:10140000088040480078424908703E48407848705B
:101410003C48807888703B48C078C870394800796B
:10142000087138484079487106213948FFF763FE52
:101430003849088008460088000A354988713548CF
:101440000078C87108213248FFF71FFF10BD10B5A2
:101450002C4840792B49097940EA01202A49088023
:101460002A48008809880844B0F57A7F7EDA254842
:10147000007827490870234840784870224800784F
:101480004006000E8870002453E05720032101EB32
:1014900044011F4A50541520042101EB44015054CB
:1014A0000020052101EB44015054062134E00000E6
:1014B0001001234244320020000121429481214244
:1014C000D433002058000020643500205C00002048
:1014D00060000020640000209678000896790008DB
:1014E0004E00002000100040000C0140001401409C
:1014F00000480040480000204C0000209C8122420F
:1015000052000020442200206A00002068000020D1
:10151000442A00206C00002001EB440150540721B4
:1015200001EB44015054082101EB44015054601C6C
:10153000C4B2FE4800888442A7DBFC48008803222E
:1015400002EB400081B2FA48FFF7D5FDF949088067
:1015500008460088010AF5480088072202EB40008F
:10156000F34A1154F3480178F04800E00AE000889B
:10157000082202EB4000EE4A11540B211046FFF7FF
:1015800084FE0EE0EC480078E9490870EA484078AB
:1015900040F080004870022088700321E448FFF783
:1015A00074FE10BD10B5E4484079E349097940EA7A
:1015B0000120DE490880E148008809880844642841
:1015C00058DA00242CE0E11704EB5171C910C91D51
:1015D000D94A515C01F0010141B10120D749098884
:1015E0002144D74A52F82110086007E00020D3496F
:1015F00009882144D24A52F821100860E11704EB0F
:101600005171C910C91DCC4A515C4A102046E117DE
:1016100004EB5171C910C91DC74B5A54601C84B2E8
:10162000C24800888442CEDBC3480078C0490870B5
:10163000C14840784870C04880788870BE48C078FB
:10164000C870BD4800790871BB48407948710621CF
:10165000B748FFF750FDB749088008460088000AE0
:10166000B3498871B3480078C8710821B048FFF7C2
:101670000CFE0EE0B0480078AD490870AE484078E6
:1016800040F080004870022088700321A848FFF7CE
:10169000FCFD10BD10B5A948008864283CDAA648B6
:1016A0000079FF2803D0A4484079FF2807D1012002
:1016B000A349A24A128851F82210086006E00020CF
:1016C0009F499E4A128851F8221008609A48007873
:1016D0009749087098484078487097488078887093
:1016E0009548C078C870944800790871924840794C
:1016F000487106218E48FFF7FEFC8E490880084697
:101700000088000A8A4988718A480078C8710821CF
:101710008748FFF7BAFD0EE08748007884490870D3
:101720008548407840F0800048700220887003218E
:101730007F48FFF7AAFD10BD70B57F4840797E490C
:10174000097940EA0120794908807C4800880988A5
:10175000084464287EDA784800787549087076482D
:101760004078487071490888C11700EB5171CD105D
:101770006E490888C11700EB5171C910A0EBC10177
:1017800009B1681C85B26A498D70002461E0E117D7
:1017900004EB5171C910A4EBC10141B900222046EC
:1017A000E11704EB5171C910C91C614B5A54E11780
:1017B00004EB5171C910C91C5D4A515C4A102046A6
:1017C000E11704EB5171C910C91C594B5A54E11768
:1017D00004EB5171C910C91C1A46515C574A128852
:1017E0002244574B53F822201268802303EAC21286
:1017F0001143E21704EB5272D210D21C4C4B995495
:101800004A480088401EA04221D148490888C11793
:1018100000EB5171C910A0EBC101C1B1E21704EB9B
:101820005272D210D21C9A5C404B1988CB1701EB34
:101830005373DB10A1EBC303C3F108031A41204625
:10184000E31704EB5373DB10DB1C394EF254601CBE
:1018500084B200E01AE035480088844297DBE81C37
:1018600081B23348FFF747FC3249088008460088B8
:10187000010A2F4AE81C11542E480178281D1154E2
:10188000681DC1B21046FFF700FD0EE02A4800783F
:10189000274908702848407840F0800048700220AE
:1018A000887003212248FFF7F0FC70BD70B5224814
:1018B00040792149097940EA01201C4908801F48E4
:1018C00000880988084464287EDA1B480078184993
:1018D000087019484078487014490888C11700EB0F
:1018E0005171CD1011490888C11700EB5171C91011
:1018F000A0EBC10109B1681C85B20D498D700024AF
:1019000070E0E11704EB5171C910A4EBC10141B9BA
:1019100000222046E11704EB5171C910C91C044B89
:101920005A54E11704EB5171C9100BE06A00002012
:10193000442A00206C00002044220020680000207F
:10194000D4330020C91CAA4A515C4A102046E11732
:1019500004EB5171C910C91CA54B5A54E11704EB93
:101960005171C910C91C1A46515CA24A12882244FE
:10197000A14B53F822201268802303EAC2121143BC
:10198000E21704EB5272D210D21C994B99549B4827
:101990000088401EA04223D198490888C11700EB57
:1019A0005171C910A0EBC101D1B1E21704EB527221
:1019B000D210D21C9A5C914B1988CB1701EB537350
:1019C000DB10A1EBC30300E027E0C3F108031A41D9
:1019D0002046E31704EB5373DB10DB1C844EF254F8
:1019E000601C84B28548008884428ADBE81C81B28E
:1019F0007F48FFF780FB8249088008460088010A7B
:101A00007B4AE81C11547E480178281D1154681D3A
:101A1000C1B21046FFF739FC0EE07A4800787449ED
:101A200008707848407840F0800048700220887044
:101A300003216F48FFF729FC70BD70B54FF40071AA
:101A4000714801F084FD05464FF480716E4801F045
:101A50007EFD45EA400580216B4801F078FD45EAAE
:101A600080054021684801F072FD45EAC0006749E1
:101A700008706748007801286FD1624800780978BB
:101A800088426BD15F484078012817D05D48407884
:101A9000022813D05B48407803280FD0594840787B
:101AA00005280BD057484078062807D0554840787D
:101AB0000F2803D053484078102871D15148C0787E
:101AC0005049897840EA01204A4908800846008840
:101AD000B0F57A7F53DA4F480088801E81B24948BA
:101AE000FFF709FB464908804A480088401E4549DF
:101AF000095C48480088801E424A105C41EA002484
:101B00003F480088A0422AD110464078052814D0CA
:101B100006DC01280ED0022809D003281CD112E0CF
:101B2000062813D00F280BD0102815D111E0FFF78D
:101B3000BDFE11E0FFF700FE0EE0FFF7ABFD0BE08E
:101B4000FFF730FD08E0FFF782FC05E0FFF740FCFF
:101B500002E0FFF7CEFB00BF31E045E03CE0294862
:101B60000078234908702748407840F0800048708A
:101B70000420887003211E48FFF787FB1FE02148DF
:101B800000781B4908701F48407840F0800048707A
:101B90000220887003211648FFF777FB0FE0FFE76C
:101BA00018480078124908701648407840F08000C4
:101BB00048700120887003210D48FFF766FB002064
:101BC000154908601548D0F8B40108B9012000E0B3
:101BD00000201149091D086000200D4908700D49B9
:101BE00008800F49086002E001200B49086070BDC1
:101BF000442A002068000020443200206A000020AF
:101C00006C00002044220020001001404D00002004
:101C10005200002050000020B0812142008021426B
:101C20009C81224208B50121082001F0B9FEC020A4
:101C3000ADF8000010208DF8030003208DF802009D
:101C40006946A94801F0F0FB08BD10B5A648006838
:101C500020F07040A44908600846006840F04050F9
:101C600008600120A1490860A149C1F89801042039
:101C700001F0FBF900209D490860042001F0F5F90E
:101C800000209B49C1F8980110BD10B59648006826
:101C900020F07040944908600846006840F04050C9
:101CA000086000209149086001209149C1F898011D
:101CB000042001F0DAF901208C490860042001F0C9
:101CC000D4F910BD10B500248748006820F070409A
:101CD000854908600846006840F000400860002020
:101CE0008249091F0860012001F0BFF901208049E5
:101CF000C1F8980101F0B9F980217B4801F027FC77
:101D000008B1012010BD00207849091F086000BFFC
:101D1000F8E710B57448006820F070407249086018
:101D20000846006840F04050086000206F49091FD5
:101D300008606F49C1F89C01022001F096F901206A
:101D40006A49091F0860022001F08FF900206849E4
:101D5000C1F8980110BD10B56348006820F07040CC
:101D6000614908600846006840F040500860002063
:101D70005E49091F086001205D49C1F89C010220ED
:101D800001F073F901205949091F0860022001F090
:101D90006CF900205649C1F8980110BD70B5044691
:101DA0005148006820F070404F49086008460068BC
:101DB00040F04050086000204C49091F0860002591
:101DC00013E0E009494908606006040E0120484913
:101DD000C1F8980101F049F900204449091F086041
:101DE000012001F042F9681CC5B2082DE9DB70BD85
:101DF00070B5054600243C48006820F070403A4920
:101E000008600846006840F000400860002617E0BF
:101E100000203649091F0860012001F026F9012041
:101E20003349C1F8980101F020F96006040E8021C1
:101E30002D4801F08CFB08B144F00104701CC6B2BF
:101E4000082EE5DB15B1FFF764FF01E0FFF783FF24
:101E500000202649091F0860204670BD70B5054660
:101E60000C46FFF7F2FEA020FFF798FFFFF72AFFCE
:101E70002846FFF793FFFFF725FF2046FFF78EFF69
:101E8000FFF720FFFFF701FF0A2001F012F970BDF4
:101E900070B50446FFF7D9FEA020FFF77FFFFFF7DC
:101EA00011FF2046FFF77AFFFFF70CFFFFF7CDFE8B
:101EB000A120FFF773FFFFF705FF0020FFF798FF52
:101EC0000546FFF7E2FE284670BD70B505460C4694
:101ED00006E021782846FFF7C1FF681CC5B2641CE4
:101EE00020780028F5D170BD000C01409C81214272
:101EF0000080214230B502460B46FF20002113E04E
:101F0000555C684008240BE000F0800525B13125C0
:101F100085EA4005E8B201E04506280E651EECB2F0
:101F2000002CF1DC4D1CE9B29942E9DB30BD2DE912
:101F3000F04105460E46144631462846FEF7D9FBC9
:101F4000C7B2BC4202D10120BDE8F0810020FBE70E
:101F500010B50446FFF779FE8820FFF71FFFFFF753
:101F6000B1FE2012FFF71AFFFFF7ACFEE0B2FFF759
:101F700015FFFFF7A7FE10BD10B504462046FFF77A
:101F8000E7FFFFF782FE10BD10B5642001F091F865
:101F900042F23200FFF7F0FF642001F08AF810BD32
:101FA00010B504464FF22D30FFF7D2FFFFF74DFE7C
:101FB0008920FFF7F3FEFFF785FE0120FFF718FFEA
:101FC00020700120FFF714FF60700020FFF710FF62
:101FD000A070FFF75AFE10BD70B505460C462846A6
:101FE000FFF7B6FFFFF731FE8920FFF7D7FEFFF7B7
:101FF00069FE0120FFF7FCFE20700120FFF7F8FECC
:1020000060700120FFF7F4FEA0700120FFF7F0FEE2
:10201000E0700120FFF7ECFE20710020FFF7E8FEE2
:102020006071FFF732FE70BD2DE9F0410446204695
:1020300005F06AF98046234905F084F807462249ED
:1020400005F0AAF90646214905F0AEFA054605F065
:102050003BF980B2BDE8F0812DE9F041044620460D
:1020600005F052F90746174905F06CF8064618497D
:1020700005F092F9054605F027F980B2BDE8F08138
:1020800070B514494FF46040FFF7A6FF1149497835
:10209000104A127841EA0220FFF7C6FFC5B2822D2E
:1020A00001D00D4805800B4909790A4AD27841EAE6
:1020B0000220FFF7D1FFC4B2642C01D0074804808E
:1020C00070BD000000FF7F4700002F430000344236
:1020D0000000C84272000020700000206E00002046
:1020E00000B587B001214FF4017001F059FC4FF4A5
:1020F000404001F0B9FB0220ADF8040000208DF84B
:10210000070001A9944801F08FF9944802F0BEFD40
:10211000002002908DF80C008DF80D004FF4602027
:1021200004900020059001208DF8180002A98B482A
:1021300002F0D3FD0121894802F0FBFD874802F03F
:102140001AFE00BF854802F01BFE0028FAD1834822
:1021500002F020FE00BF814802F021FE0028FAD1E3
:1021600007B000BD10B504460723012221467B4875
:1021700002F04BFE0121794802F01BFE00BF022154
:10218000764802F087FF0028F9D0744802F0A4FED8
:1021900010BD2DE9F04107460C460025002608E059
:1021A0003846FFF7DFFF0544052000F082FF701C72
:1021B000C6B2A642F4DBB5FBF4F080B2BDE8F08114
:1021C0002DE9F04F85B00A210120FFF7E2FF0290D0
:1021D000029805F099F8824604F01AFF07464FF07E
:1021E00066325F4B04F0EAFC054604F06DFA814666
:1021F000484604F00DFF4FF066325A4BCDE900011E
:1022000004F010FE05460E464946574805F0C4F84E
:10221000019004F0FDFE07462A46334604F03AFBDF
:10222000824604F051FA03905049039804F08AFF63
:1022300004904FF07E51049805F07AF900D24C4C8E
:102240004FF07E51049805F073F812D2049804F010
:10225000DFFE05464FF06632464B04F0ADFD08D870
:102260004548049905F098F80546434905F091F969
:102270000446049804F0CCFE05464FF066323D4B10
:1022800004F060FC11D2049804F0C2FE054600225E
:102290003A4B04F091FD08D83948049905F07CF8D0
:1022A0000546384905F075F90446049804F0B0FE77
:1022B00005460022314B04F045FC12D2049804F08C
:1022C000A7FE05464FF033322F4B04F075FD08D8BA
:1022D0002648049905F060F805462C4905F059F99F
:1022E0000446049804F094FE05464FF03332264B22
:1022F00004F028FC11D2049804F08AFE0546244A12
:10230000244B04F059FD08D22348049905F044F801
:102310000546224905F03DF90446049804F078FE8C
:1023200005461B4A1B4B04F00DFC00D81C4CFA2040
:1023300000F0BFFE1B48006808B9012000E0002043
:1023400018490860FA2000F0B4FE204604F0BCFFF3
:1023500080B205B0BDE8F08F0008014000240140C4
:1023600066664A3F66660A400000C8420080BB4479
:10237000000070416666E63F0000FA430000E03F5F
:1023800000803B4400C028443333D33F00408344A3
:102390009A9999999999B93F0000FA440000964496
:1023A00029EC7944800121421FB50121084601F042
:1023B00004FB4548008800EB80004FF6FF7101EAFE
:1023C0004000ADF8080041F61F40ADF804000020C1
:1023D000ADF80A00ADF8060001A94FF0804001F009
:1023E0001BFE01221146900702F08DF91C208DF88A
:1023F000000002208DF801008DF8020001208DF808
:102400000300684600F047FF1FBD00B587B00121FB
:10241000480401F0D2FA0121052001F0C1FA03209D
:102420008DF81A000420ADF8180018208DF81B0054
:1024300006A9264800F0F8FF03208DF81A000820AE
:10244000ADF8180004208DF81B0006A91F4800F005
:10245000EBFF26208DF8040001208DF807008DF891
:1024600005008DF8060001A800F015FF4FF4165086
:1024700002900020ADF814000C20ADF812000020EE
:10248000ADF81000ADF80E00ADF80C0002A9104830
:1024900001F02DFB012240F225510D4801F0BFFB58
:1024A00001210B4801F0AFFBFFF77EFF07B000BD35
:1024B00010B5002405E00748015D054801F010FC57
:1024C000641C072CF7DB10BD7800002000080140D9
:1024D00000440040967A0008FB48FC490860001F51
:1024E0004860001F8860FA48C860FA48FA490860E6
:1024F000F54884304860F948F9490860F94848606F
:10250000F9488860F948C860F4480861F5484861AE
:10251000F5488861704770B502460C46FF25FF23D9
:1025200009E012F8010B80EA0501F148405C80EAFD
:102530000305F048435C2000A4F10106B4B2F0D1D9
:1025400043EA052070BD1FB50121082001F035FACE
:10255000E948008800EB80004FF6FF7101EA400077
:10256000ADF808004FF4E150ADF804000020ADF8DC
:102570000A00ADF8060001A9E04801F04DFD012276
:102580001146DE4802F0BFF832208DF8000002202C
:102590008DF801008DF8020001208DF803006846D7
:1025A00000F079FE1FBD00B587B00121302001F099
:1025B000F7F90121C80401F000FA4FF48060ADF88A
:1025C000180018208DF81B0003208DF81A0006A9AA
:1025D000CB4800F029FF4FF40060ADF8180004204C
:1025E0008DF81B0006A9C64800F01EFF8020ADF83C
:1025F000180010208DF81B0006A9C24800F014FF37
:102600008021C04800F0BFFFBF4801F02DFABF484D
:10261000006802900020ADF81400ADF80C00ADF891
:102620000E000C20ADF81200B948007820B1012846
:1026300006D002280ED108E00020ADF8100009E015
:102640004FF4C060ADF8100004E04FF48060ADF8C6
:10265000100000BF00BF02A9AB4801F048FA40F2E9
:102660002551A94801F0EAFB012240F22551A64874
:1026700001F0D5FA34208DF8040000208DF8050013
:102680008DF8060001208DF8070001A800F003FE78
:1026900001219D4801F0B7FAFFF755FFFFF71CFF36
:1026A00007B000BD70B504460D460BE000BF8021A9
:1026B000954801F083FB0028F9D014F8011B9248DB
:1026C00001F00EFB2800A5F10101CDB2EED100BF53
:1026D00040218D4801F072FB0028F9D070BD70B523
:1026E00040F22551884801F07FFB58B30721864806
:1026F00001F064FB08B1012400E0002400207549CA
:1027000020310860804801F0EFFAC5B281480088A6
:1027100040F2FF71884215DAA4B97F487D490988E3
:1027200045547C480088401C7A4908800121734840
:1027300002F0A8FA0021714802F05EFA01216F4808
:1027400001F0C6FF70BD10B501216C4802F089FA96
:1027500050B10121694802F095FA0021674801F063
:10276000B7FF01206D49087010BD10B56A48407967
:102770006949097940EA0120694908806948008867
:1027800009880844B0F57A7F4EDA002422E0072059
:1027900000EB44006049085C624909882144504AC2
:1027A00052F8211008805F4800882044114651F8F3
:1027B00020000088082101EB4401574A515C40EA9F
:1027C0000120584909882144454A52F821100880BF
:1027D000601CC4B2524800888442D8DB4E4800785E
:1027E000514908704C48407848704B488078887050
:1027F0004948C078C870484800790871464840790F
:10280000487106214848FFF786FE48490880084677
:102810000088000A4449887144480078C87108213A
:102820004148FFF73FFF0EE03B4800783E49087003
:102830003948407840F080004870022088700321B9
:102840003948FFF72FFF10BD10B53348007900025B
:102850002349344A128851F822100880204831490F
:10286000098850F8210000882B49497908431C4900
:102870002C4A128851F822100880274800782A49EB
:10288000087025484078487023488078887022482E
:10289000C078C8702048007908711F484079487195
:1028A00006212148FFF737FE2049088008460088A6
:1028B000000A1D4988711D480078C87108211A480E
:1028C000FFF7F0FE10BD0000100123420455002068
:1028D0000001214294812142945600208C00002066
:1028E0002458002090000020940000209800002030
:1028F0009D7A00089D7B000882000020000C0040AB
:102900000010014000140140004C00407C000020F9
:102910008000002084000020044500208600002064
:102920009E0000209C000020044D0020A0000020FC
:1029300010B5FC484079FB49097940EA0120FA4981
:102940000880FA48008809880844B0F57A7F54DA8C
:10295000F4480078F6490870F24840784870F24828
:1029600000784006000E887000241FE0F1480078CF
:10297000032101EB4401EE4A5054EF480078042152
:1029800001EB440150540020052101EB4401505457
:10299000062101EB44015054072101EB440150543E
:1029A000082101EB44015054601CC4B2DE48008889
:1029B0008442DBDBDC480088032202EB400081B26A
:1029C000DB48FFF7A8FDDD49088008460088010ABA
:1029D000D5480088072202EB4000D54A1154D74859
:1029E0000178D1480088082202EB4000D04A1154F7
:1029F0000B211046FFF756FE0EE0CA480078CC497E
:102A00000870C848407840F0800048700220887004
:102A10000321C748FFF746FE10BD10B5C1484079F5
:102A2000C049097940EA0120BF490880BF480088B1
:102A300009880844642858DA00242CE0E11704EBE4
:102A40005171C910C91DB74A515C01F0010141B172
:102A50000120B64909882144B94A52F8211008607A
:102A600007E00020B14909882144B54A52F82110F5
:102A70000860E11704EB5171C910C91DA94A515CE6
:102A80004A102046E11704EB5171C910C91DA54B2E
:102A90005A54601C84B2A44800888442CEDBA1480A
:102AA0000078A34908709F48407848709D48807816
:102AB00088709C48C078C8709A4800790871994815
:102AC0004079487106219A48FFF725FD9B49088007
:102AD00008460088000A9649887198480078C871AD
:102AE00008219348FFF7DEFD0EE08E4800789049FC
:102AF00008708C48407840F0800048700220887050
:102B000003218B48FFF7CEFD10BD10B58748008824
:102B100064283CDA83480079FF2803D08148407953
:102B2000FF2807D101208649804A128851F82210D7
:102B3000086006E0002082497C4A128851F8221081
:102B40000860784800787A4908707648407848707C
:102B50007448807888707348C078C870714800796C
:102B6000087170484079487106217148FFF7D3FC1D
:102B70007249088008460088000A6D4988716F48CC
:102B80000078C87108216A48FFF78CFD0EE065489F
:102B90000078674908706348407840F080004870CA
:102BA0000220887003216248FFF77CFD10BD70B5DC
:102BB0005C4840795B49097940EA01205A4908801C
:102BC0005A4800880988084464287DDA5548007806
:102BD0005749087053484078487053490888C117CE
:102BE00000EB5171CD1050490888C11700EB5171AD
:102BF000C910A0EBC10109B1681C85B24C498D70A8
:102C0000002463E0E11704EB5171C910A4EBC1018A
:102C100041B900222046E11704EB5171C910C91CCB
:102C2000434B5A54E11704EB5171C910C91C404A77
:102C3000515C4A102046E11704EB5171C910C91CC0
:102C40003B4B5A54E11704EB5171C910C91C1A4689
:102C5000515C364A12882244394B53F822201268BC
:102C6000802303EAC2121143E21704EB5272D2101E
:102C7000D21C2F4B99542C480088401EA04221D1D1
:102C800029490888C11700EB5171C910A0EBC10197
:102C9000C1B1E21704EB5272D210D21C9A5C224BE3
:102CA0001988CB1701EB5373DB10A1EBC303C3F1FE
:102CB00008031A412046E31704EB5373DB10DB1CB7
:102CC0001B4EF254601C00E01BE084B216480088E2
:102CD000844297DBE81C81B21548FFF71CFC1749BA
:102CE000088008460088010A114AE81C115413485C
:102CF0000178281D1154681DC1B21046FFF7D2FC9F
:102D00000EE0084800780A4908700648407840F00C
:102D1000800048700220887003210548FFF7C2FC3C
:102D200070BD0000044500209E0000209C00002093
:102D3000044D00204100002042000020A00000209F
:102D40009456002070B5B3484079B249097940EAF9
:102D50000120B1490880B1480088098808446428E6
:102D60007EDAAC480078AE490870AA4840784870CE
:102D7000A9490888C11700EB5171CD10A6490888F0
:102D8000C11700EB5171C910A0EBC10109B1681C5A
:102D900085B2A3498D70002461E0E11704EB517105
:102DA000C910A4EBC10141B900222046E11704EB90
:102DB0005171C910C91C9A4B5A54E11704EB517157
:102DC000C910C91C964A515C4A102046E11704EB11
:102DD0005171C910C91C924B5A54E11704EB51713F
:102DE000C910C91C1A46515C8C4A128822448D4B6A
:102DF00053F822201268802303EAC2121143E2171B
:102E000004EB5272D210D21C854B99548248008830
:102E1000401EA04221D180490888C11700EB5171A2
:102E2000C910A0EBC101C1B1E21704EB5272D2107C
:102E3000D21C9A5C784B1988CB1701EB5373DB10CB
:102E4000A1EBC303C3F108031A412046E31704EBC7
:102E50005373DB10DB1C724EF254601C84B200E032
:102E60001AE06D480088844297DBE81C81B26C4808
:102E7000FFF751FB6C49088008460088010A684A40
:102E8000E81C115468480178281D1154681DC1B20E
:102E90001046FFF707FC0EE05E48007860490870B6
:102EA0005C48407840F08000487002208870032120
:102EB0005B48FFF7F7FB70BD10B55C480078012850
:102EC00070D1544800785A490978884269D15148EC
:102ED0004078012817D04F484078022813D04D4839
:102EE000407803280FD04B48407805280BD049483C
:102EF0004078062807D0474840780F2803D0454837
:102F00004078102870D14348C0784249897840EA17
:102F100001204249088008460088B0F57A7F52DADD
:102F200044480088801E81B23A48FFF7F4FA3E49CF
:102F3000088040480088401E3649095C3D480088AA
:102F4000801E344A105C41EA002437480088A042C1
:102F500029D110464078052814D006DC01280ED06F
:102F6000022809D003281CD112E0062813D00F280C
:102F70000BD0102815D111E0FFF7E4FE11E0FFF7A8
:102F800016FE0EE0FFF7C1FD0BE0FFF746FD08E07F
:102F9000FFF7CEFC05E0FFF757FC02E0FFF7E5FB8B
:102FA00000BF30E034E01B4800781D490870194824
:102FB000407840F080004870042088700321184851
:102FC000FFF770FB1FE0134800781549087011489F
:102FD000407840F08000487002208870032110483B
:102FE000FFF760FB0FE0FFE70A4800780C49087024
:102FF0000848407840F08000487001208870032124
:103000000748FFF74FFB002008490870094908806E
:1030100010BD0000044500209E0000209C00002000
:10302000044D002004550020A00000208600002050
:10303000810000208400002010B56FF0040000F033
:1030400074F92E4800682E49B0FBF1F02D49087044
:103050000846007800EB4001C1EBC0104FF6FF714D
:1030600001EAC0002849088010BD0146254A1278AF
:103070004A434FF0E0235A6100229A611A461269CE
:1030800042F001021A6100BF4FF0E022106900F027
:1030900001021AB100F48032002AF5D04FF0E0228C
:1030A000126922F001024FF0E0231A6100229A61B6
:1030B00070470146144A12884A434FF0E0235A6190
:1030C00000229A611A46126942F001021A6100BF99
:1030D0004FF0E022106900F001021AB100F48032D2
:1030E000002AF5D04FF0E022126922F001024FF0E1
:1030F000E0231A6100229A6170470000040000205A
:1031000000127A00A2000020A4000020014600BFA7
:10311000704700BF494A128802F04002002AF9D0E5
:10312000C2B2464B1B1D1A80704710B586B00446CC
:10313000012144F2040000F033FC4FF40070ADF8BC
:10314000140003208DF8160018208DF8170005A92B
:103150003B4800F069F94FF48060ADF8140004209A
:103160008DF8170005A9364800F05EF925208DF886
:10317000000003208DF801008DF8020001208DF879
:103180000300684600F087F801940020ADF80800BD
:10319000ADF80A00ADF80C00ADF810000C20ADF849
:1031A0000E0001A9254800F0A2FC012240F22551A1
:1031B000224800F034FD0121204800F024FD06B033
:1031C00010BD10B540F225511C4800F00DFE10B3A3
:1031D0001A4800F089FDC4B21A48008800F4004083
:1031E000C8B91848008800F4804060B10A2C03D0A8
:1031F00000201449088020E01248008840F4004074
:103200001049088019E00D2C06D10E48008840F4C2
:1032100080400C49088010E00A480088C0F30D0087
:1032200009490C5407480088401C06490880084694
:103230000088C72801DD0020088010BD003801404B
:1032400000080140AC000020C46700200948804706
:1032500009480047FEE7FEE7FEE7FEE7FEE7FEE778
:10326000FEE7FEE7FEE7FEE704480549054A064B90
:1032700070470000F304000831010008F0680020E6
:10328000F06E0020F06A0020F06A0020314901430E
:10329000314A1160704770B5002100230F22C478B5
:1032A00004B32D4C246804F4E064C4F5E064210AFE
:1032B000C1F10403CA40447804FA03F1847814404D
:1032C00021430901254C0678A155047804F01F0517
:1032D0000124AC4005786D11AD0005F1E025C5F87D
:1032E000004109E0047804F01F050124AC401C4DA6
:1032F0000678761145F8264070BD1A4A0A40024306
:10330000154B1B1F1A60704739B1134A121D126802
:103310000243114B1B1D1A6006E00F4A121D126872
:1033200082430D4B1B1D1A607047042808D14FF0D3
:10333000E021096941F004014FF0E022116107E04A
:103340004FF0E021096921F004014FF0E022116102
:10335000704700000000FA050CED00E000E400E01A
:1033600080E100E080FFFF1F10B50446CC48844296
:1033700008D10121042000F02DFB0021042000F0E1
:1033800029FB46E0C748844208D10121082000F00B
:1033900021FB0021082000F01DFB3AE0C2488442D6
:1033A00008D10121102000F015FB0021102000F0B1
:1033B00011FB2EE0BD48844208D10121202000F0FD
:1033C00009FB0021202000F005FB22E0B8488442E0
:1033D00008D10121402000F0FDFA0021402000F03A
:1033E000F9FA16E0B348844208D10121802000F0A8
:1033F000F1FA0021802000F0EDFA0AE0AE488442A4
:1034000007D10121801500F0E5FA0021A01500F098
:10341000E1FA10BD10B50121084600F0DBFA0021E9
:10342000012000F0D7FA10BD2DE9F0410246002539
:103430000026002000230024002791F803C00CF090
:103440000F0591F803C00CF0100CBCF1000F03D075
:1034500091F802C04CEA050591F800C0BCF1000FDC
:1034600031D0146800202BE04FF0010C0CFA00F36F
:10347000B1F800C00CEA03069E4220D183004FF051
:103480000F0C0CFA03F7BC4305FA03FC4CEA0404E6
:1034900091F803C0BCF1280F06D14FF0010C0CFAD3
:1034A00000FCC2F814C00AE091F803C0BCF1480F58
:1034B00005D14FF0010C0CFA00FCC2F810C0401C02
:1034C0000828D1D31460B1F800C0BCF1FF0F34DD7F
:1034D000546800202EE000F1080C4FF0010808FAB3
:1034E0000CF3B1F800C00CEA03069E4221D1830020
:1034F0004FF00F0C0CFA03F7BC4305FA03FC4CEA3F
:10350000040491F803C0BCF1280F05D100F1080CA8
:1035100008FA0CF8C2F8148091F803C0BCF1480F07
:1035200007D100F1080C4FF0010808FA0CF8C2F8B6
:103530001080401C0828CED35460BDE8F0814FF6BF
:10354000FF710180022181700421C1707047024621
:10355000002093680B400BB1012000E00020704771
:103560000146886880B2704702460020D3680B404D
:103570000BB1012000E0002070470146C86880B20E
:10358000704701617047416170470AB1016100E015
:1035900041617047C16070474FF480320A438261D5
:1035A0008161826182698269704702460020434BD3
:1035B00018684FF68073184040EA021008433F4BEA
:1035C000186070473E49C8617047F0B50A4600234D
:1035D00000240021002500F00046B6F1004F02D182
:1035E000364EF16901E0354E7168C0F3034583B290
:1035F00000F44016B6F5401F08D121F070612F4E3F
:10360000766826F070662D4F7E6012E000F480161A
:10361000B6F5801F06D1032606FA05F4A14341F052
:10362000706106E0460D360103FA06F6B14341F03B
:10363000706122B1460D360103FA06F6314300F0FF
:103640000046B6F1004F02D11C4EF16101E01B4E65
:103650007160F0BD30B500228B071C0F0F2303FAF9
:1036600004F2164B08338C1053F824309343134C58
:1036700008348D1044F8253023468C1053F824303C
:103680008C07240F00FA04F423430C4C08348D10EB
:1036900044F8253030BD0A49DC310860704700002D
:1036A00000080140000C01400010014000140140DE
:1036B00000180140001C01400020014000000140B2
:1036C00000002042DF48006840F00100DD4908604A
:1036D00008464068DC490840DA4948600846006806
:1036E000DA490840D74908600846006820F480207D
:1036F00008600846406820F4FE0048604FF41F0050
:1037000088607047CF49096821F48031CD4A116043
:103710001146096821F480211160B0F5803F03D083
:10372000B0F5802F0ED106E0C649096841F480311A
:10373000C44A116007E0C349096841F4A021C14AA5
:10374000116000E000BF00BF704710B501460022C5
:10375000002300204A11012A02D1BA4C236806E056
:10376000022A02D1B74C236A01E0B64C636A01F029
:103770001F02012494401C400CB1012000E00020F5
:1037800010BD38B5002000900024002500BF312076
:10379000FFF7DBFF05460098401C00900098B0F54D
:1037A000A06F01D0002DF2D03120FFF7CEFF08B17D
:1037B000012400E00024204638BD01460020A14A33
:1037C000106820F0F80040EAC10010607047A0497E
:1037D00008607047024600209A4B586820F47C101D
:1037E00042EA01031843974B5860704798490866AE
:1037F000704701460020934A506820F003000843B8
:10380000506070478F48406800F00C0070470146D8
:1038100000208C4A506820F0F00008435060704748
:1038200001460020874A506820F4E0600843506059
:10383000704701460020834A506820F4605040EAF7
:10384000C1005060704729B17E4A527A02437D4BD5
:103850005A7204E07B4A527A82437A4B5A7270471A
:103860007B49D8310860704701460020754A50688E
:1038700020F440400843506070470021714A2032D4
:103880001170704A82F82010012802D004280AD151
:1038900004E001216B4A2032117005E00521694ADC
:1038A0002032117000E000BF00BF70476949086016
:1038B00070476449096A0143624A11627047654969
:1038C00044390860704730B50021002200240023ED
:1038D0005C4D6D6805F00C0121B1042905D0082963
:1038E00023D105E05C4D056022E05B4D05601FE0E3
:1038F000544D6D6805F47012524D6D6805F48034B6
:10390000022505EB92421CB9544D554305600BE06E
:103910004C4D6D6805F400351DB1504D55430560A3
:1039200002E04D4D5543056002E04B4D056000BF80
:1039300000BF444D6D6805F0F0010909484D6B5C0E
:103940000568DD4045603F4D6D6805F4E061090A9A
:10395000434D6B5C4568DD4085603A4D6D6805F40C
:103960006051C90A3E4D6B5C4568DD40C560354D10
:103970006D6805F44041890B3A4D6B5CC568B5FB39
:10398000F3F5056130BD29B12E4A526902432D4B32
:103990005A6104E02B4A526982432A4B5A617047AC
:1039A00029B1284A92690243264B9A6104E0254ACC
:1039B00092698243234B9A61704729B1214AD269A7
:1039C0000243204BDA6104E01E4AD26982431D4B58
:1039D000DA61704729B11B4AD2680243194BDA6099
:1039E00004E0184AD2688243164BDA60704729B166
:1039F000144A12690243134B1A6104E0114A126916
:103A00008243104B1A617047124940390860704771
:103A10000F49C86470470B49C87170470948406A2C
:103A200040F0807007494862704701460020054A0F
:103A300092680A400AB1012000E000207047014965
:103A400088727047001002400000FFF8FFFFF6FE8A
:103A5000000042428004424200127A0000093D0008
:103A6000AE000020BE00002010B50446FB48844292
:103A700009D101218803FFF7ADFF00214FF48040F9
:103A8000FFF7A8FF32E0F648844209D1012148043B
:103A9000FFF7ADFF00214FF40030FFF7A8FF25E04E
:103AA000F048844209D101218804FFF7A0FF0021DA
:103AB0004FF48020FFF79BFF18E0EB48844209D1C8
:103AC0000121C804FFF793FF00214FF40020FFF706
:103AD0008EFF0BE0E548844208D101210805FFF77D
:103AE00086FF00214FF48010FFF781FF10BD2DE904
:103AF000F04786B005460E460024A24600BFA14608
:103B00000027B08900B100BF2F462C8A4CF6FF7009
:103B10000440F08804432C82AC894EF6F310044034
:103B2000B08831890843718908430443AC81AC8A69
:103B30004FF6FF400440B0890443AC8201A8FFF770
:103B4000C2FEC648874202D1DDF810A001E0DDF8D0
:103B50000CA0A88900F4004040B10AEBCA0000EBB9
:103B60000A1031684900B0FBF1F807E00AEBCA001F
:103B700000EB0A1031688900B0FBF1F86420B8FB53
:103B8000F0F004012009642101FB1089A88900F4E8
:103B9000004040B1322000EBC900B0FBF1F000F072
:103BA0000700044308E0322000EB09106421B0FB59
:103BB000F1F000F00F0004432C8106B0BDE8F0875F
:103BC0004FF41651016000218180C18001810C21D8
:103BD000418100218181704710B502460020108A82
:103BE0004FF2FF0318400B884C8823438C882343F3
:103BF000CC8823431843108210BD002101804180EE
:103C00008180C180704721B1828942F40052828153
:103C100004E082894DF6FF731A4082817047F0B547
:103C20000346002400260025002040F66A17B9420A
:103C300000D100BF1846C1F3421401F01F0601274E
:103C400007FA06F5012C01D10C3004E0022C01D159
:103C5000103000E014301AB107682F43076002E00B
:103C60000768AF430760F0BD1AB1838A0B438382B4
:103C700002E0838A8B4383827047028A4FF6F07397
:103C80001A400282028A0A430282704782894FF2F6
:103C9000FF731A40828182890A438281704721B171
:103CA000828942F00202828104E082894FF6FD732C
:103CB0001A4082817047028A4FF6DF731A400282EF
:103CC000028A0A430282704721B1028A42F480428A
:103CD000028204E0028A4BF6FF731A4002827047A8
:103CE000C1F308028280704701468888C0F308004B
:103CF0007047818941F0010181817047028BD2B206
:103D00000283028B42EA012202837047028B02F493
:103D10007F420283028B0A430283704721B1828A69
:103D200042F02002828204E0828A4FF6DF731A405A
:103D30008282704721B1828A42F01002828204E0BE
:103D4000828A4FF6EF731A408282704721B1828ACD
:103D500042F00802828204E0828A4FF6F7731A402A
:103D60008282704721B1828942F40042828103E05D
:103D70008289C2F30E028281704721B1828A42F4A5
:103D80000062828204E0828A4FF2FF731A408282CC
:103D90007047828A4FF6FB731A408282828A0A43F6
:103DA0008282704721B1828A42F00202828204E05C
:103DB000828A4FF6FD731A408282704702460020C5
:103DC000B1F5007F00D100BF13880B400BB101207B
:103DD00000E00020704701F40072B2F5007F00D1CE
:103DE00000BFCA430280704770B50246002400231A
:103DF0000025002040F66A16B14200D100BFC1F391
:103E0000421501F01F03012606FA03F3012D02D12A
:103E10009689334006E0022D02D1168A334001E034
:103E2000968A33400C12012606FA04F416883440B0
:103E300013B10CB1012000E0002070BD10B50022CC
:103E4000002340F66A14A14200D100BF0A120124E7
:103E50009440A3B2DC43048010BD00000038014050
:103E60000044004000480040004C0040005000402A
:103E700010B50446FE48844208D10121C014FFF762
:103E8000A9FD0021E014FFF7A5FDC4E0B4F1804FC7
:103E900008D101210846FFF7AAFD00210120FFF704
:103EA000A6FDB8E0F348844208D101210220FFF7C3
:103EB0009EFD00210220FFF79AFDACE0EE4884420F
:103EC00008D101210420FFF792FD00210420FFF713
:103ED0008EFDA0E0E948844208D101210820FFF7C7
:103EE00086FD00210820FFF782FD94E0E44884422B
:103EF00008D101211020FFF77AFD00211020FFF7E3
:103F000076FD88E0DF48844208D101212020FFF7B8
:103F10006EFD00212020FFF76AFD7CE0DA48844234
:103F200008D101214014FFF755FD00216014FFF76F
:103F300051FD70E0D548844209D10121C804FFF742
:103F400049FD00214FF40020FFF744FD63E0D04815
:103F5000844209D101210805FFF73CFD00214FF4FF
:103F60008010FFF737FD56E0CA48844209D101218D
:103F70004805FFF72FFD00214FF40010FFF72AFD41
:103F800049E0C548844208D101214020FFF72FFDB8
:103F900000214020FFF72BFD3DE0C048844208D1BE
:103FA00001218020FFF723FD00218020FFF71FFD66
:103FB00031E0BB48844208D101218015FFF717FD8D
:103FC0000021A015FFF713FD25E0B648844209D172
:103FD00001210804FFF7FEFC00214FF48030FFF7B9
:103FE000F9FC18E0B048844209D101214804FFF7E8
:103FF000F1FC00214FF40030FFF7ECFC0BE0AB4884
:10400000844208D101218804FFF7E4FC00214FF429
:104010008020FFF7DFFC10BD00220288944B9842FD
:104020000ED0994B98420BD0B0F1804F08D0914BF5
:10403000984205D0904B984202D0904B984204D1C0
:104040004FF68F731A404B881A438D4B984207D016
:104050008C4B984204D04FF6FF431A40CB881A434A
:1040600002808B8883850B880385814B98420BD017
:10407000854B984208D08B4B984205D08A4B98428A
:1040800002D08A4B984201D10B7A038601238382A6
:10409000704770B5002400220023058C4FF6FE7691
:1040A00035400584028C8388048B4FF68F752C4035
:1040B000B51E2C400D882C43751E2A400D892A43BD
:1040C0004D882A436A4DA8420BD06F4DA84208D0B4
:1040D000744DA84205D0744DA84202D0734DA84239
:1040E00013D14FF6F7752A404D892A434FF6FB75D9
:1040F0002A408D882A434FF6FF652B404FF6FF5527
:104100002B408D892B43CD892B4383800483CD881D
:104110008586028470BD70B5002400220023058CC2
:104120004FF6EF7635400584028C8388048B48F681
:10413000FF752C404FF6FF452C400D884FF6FF765B
:1041400006EA05252C434FF6DF752A400D8906EA5D
:1041500005152A434D8806EA05152A43444DA84211
:1041600002D0494DA8421DD14FF67F752A404D8996
:104170004FF6FF7606EA05152A434FF6BF752A402B
:104180008D8806EA05152A434FF6FF352B404FF27E
:10419000FF752B408D8906EA85052B43CD8906EAFC
:1041A00085052B4383800483CD880587028470BDF9
:1041B00070B5002400220023058C4FF6FF663540C1
:1041C0000584028C8388848B4FF68F752C404FF6C4
:1041D000FC752C400D882C434FF6FF552A400D8965
:1041E0004FF6FF7606EA05252A434D8806EA05259F
:1041F0002A431F4DA84202D0234DA8421DD14FF2A1
:10420000FF752A404D894FF6FF7606EA05252A43B9
:104210004FF6FF352A408D8806EA05252A434EF6DB
:10422000FF752B404DF6FF752B408D8906EA05156D
:104230002B43CD8906EA05152B4383808483CD88E3
:104240008587028470BD70B5002200230024058C90
:104250004EF6FF7635400584038C8488828B48F6C1
:10426000FF752A404FF6FF452A400D8820E00000E8
:10427000002C01400004004000080040000C0040F9
:10428000001000400014004000340140004C014088
:10429000005001400054014000180040001C004044
:1042A000002000400040014000440140004801401F
:1042B0004FF6FF7606EA05252A434DF6FF752B409B
:1042C0000D8906EA05352B434D8806EA05352B4353
:1042D000FA4DA84202D0FA4DA84208D14BF6FF751C
:1042E0002C408D894FF6FF7606EA85152C43848095
:1042F0008283CD88A0F84050038470BD828B4FF23A
:10430000FF331A408283828B4FF6FF7303EA012347
:104310001A4382837047F0B50C46154600220021EF
:104320000026078C4EF6FF7C07EA0C070784828B79
:10433000018C4FF6FF7707EA043640F6FF473A4014
:104340004FF6FF7707EA05273A434FF6FF7707EA6C
:1043500003373A43D94FB8420ED0D94FB8420BD0A9
:10436000B0F1804F08D0D74FB84205D0D64FB842F1
:1043700002D0D64FB84206D14DF6FF77394046F409
:104380008057394305E047F6FF57394044F48057DA
:10439000394382830184F0BD828B4FF6F3731A4058
:1043A0008283828B0A4382837047F0B50C461546A0
:1043B000002200210026078C4FF6FF6C07EA0C074D
:1043C0000784828B018C4FF6FF7707EA04264FF6AD
:1043D0000C773A404FF6FF7707EA03172F433A432B
:1043E000B64FB8420ED0B64FB8420BD0B0F1804FA6
:1043F00008D0B44FB84205D0B34FB84202D0B34F43
:10440000B84206D14FF6FF57394046F4807739431A
:1044100005E04FF2FF57394044F4807739438283F7
:104420000184F0BD028B4FF2FF331A400283028BEE
:104430004FF6FF7303EA01231A4302837047F0B576
:104440000C461546002200210026078C4FF6EF7C13
:1044500007EA0C070784028B018C4FF6FF7707EA07
:10446000041640F6FF473A404FF6FF7707EA033756
:104470003A434FF6FF7707EA05273A438F4FB84292
:104480000ED08F4FB8420BD0B0F1804F08D08D4F77
:10449000B84205D08C4FB84202D08C4FB84206D1FA
:1044A0004FF6DF77394046F01007394305E04FF605
:1044B0005F77394044F01007394302830184F0BD2F
:1044C000028B4FF6F3731A400283028B0A43028376
:1044D0007047F0B50C46154600220021068C4FF6B9
:1044E000FE773E400684028B018C4FF60C763240FC
:1044F0007E1C06EA03162E433243704EB0420ED0A5
:104500006F4EB0420BD0B0F1804F08D06D4EB0422C
:1045100005D06D4EB04202D06C4EB04206D14FF67F
:10452000FD76314044F00106314305E04FF6F57663
:10453000314044F00106314302830184F0BD70B57F
:1045400005460C465D4885420ED05D4885420BD03D
:10455000B5F1804F08D05B48854205D05A48854266
:1045600002D05A48854200D100E000BF208850B9EF
:104570002389A28861882846FFF7ABFFE188284697
:10458000FFF79EFF25E0208804280AD12389A2880E
:1045900061882846FFF753FFE1882846FFF742FF6E
:1045A00017E0208808280AD12389A2886188284634
:1045B000FFF7FBFEE1882846FFF7EEFE09E02389BE
:1045C000A28861882846FFF7A6FEE1882846FFF703
:1045D00095FE70BD2DE9F04105460C4600260127E9
:1045E000608808B9022600E00026A088012801D1D1
:1045F000022700E001272088A0B92389A2886188CA
:104600002846FFF766FFE1882846FFF759FF238910
:104610003A4631462846FFF712FFE1882846FFF761
:1046200001FF13E02389A28861882846FFF707FF6E
:10463000E1882846FFF7F6FE23893A4631462846A8
:10464000FFF747FFE1882846FFF73AFFBDE8F08112
:104650000A884B881A438B881A43CB881A430B89E4
:104660001A434B891A438B891A43A0F84420704798
:104670004FF6FF71818000210180C180418001726D
:1046800070470021018041808180C180018141818A
:104690008181C18170470021018041800121818099
:1046A0000021C1800181704700210180418081800B
:1046B000C18001814181818170470000002C01404F
:1046C000003401400004004000080040000C00409D
:1046D00021B1028842F00102028004E002884FF614
:1046E000FE731A400280704731B1B0F8442042F4A2
:1046F0000042A0F8442005E0B0F84420C2F30E02C6
:10470000A0F8442070471AB183890B43838102E0EB
:1047100083898B43838170478182704741EA02031A
:10472000A0F8483070471AB183890B43838102E0B7
:1047300083898B438381704701894FF6F87211405A
:10474000018170470A46002101894FF68F73194095
:1047500011430181704730B504460D462946204675
:10476000FFF7F0FF208940F00700208130BD2DE9E0
:10477000F04104460D4616461F46602D06D13B46C5
:10478000012231462046FFF75AFE05E03B46012252
:1047900031462046FFF79DFE29462046FFF7D2FF0F
:1047A000208940F007002081BDE8F08130B50C463B
:1047B00000210189C9B24FF6FF7505EA03251543AB
:1047C00025432943018130BD2DE9F04105460E46C0
:1047D00017469846002443463A4631462846FFF796
:1047E000E5FF2C894FF6F870044044F007044FF6BB
:1047F0008F70044044F070042C81BDE8F081F0B566
:1048000004460D4616461F463B463246294620467C
:10481000FFF7CCFF208940F480402081F0BD018566
:10482000828270470A46002101884FF68F73194033
:10483000114301807047F0B50C4615461E46002115
:10484000002200230189028B038C4FF6F877394050
:1048500021434FF6FC473A4040F201173A434FF6E6
:10486000DD773B404FF6FF7707EA06172F433B43C0
:10487000018102830384F0BD0A460021018B4FF6BB
:104880008F7319401143018370470A460021018B41
:1048900048F6FF7319404FF6FF7303EA02231943EA
:1048A000018370470A460021818B4FF68F731940B0
:1048B0001143818370470A460021818B48F6FF73BC
:1048C00019404FF6FF7303EA0223194381837047AF
:1048D00021B1028842F08002028004E002884FF693
:1048E0007F731A400280704721B1828842F004022F
:1048F000828004E082884FF6FB731A408280704702
:1049000021B1828842F00802828004E082884FF65A
:10491000F7731A408280704721B1828842F0010209
:10492000828004E082884FF6FE731A4082807047CE
:104930000A460021018B4FF6F7731940114301839A
:1049400070470A460021018B4FF2FF7319404FF662
:10495000FF7303EA02231943018370470A460021CB
:10496000818B4FF6F77319401143818370470A46D4
:104970000021818B4FF2FF7319404FF6FF7303EA5A
:1049800002231943818370470A460021018B4FF6A9
:10499000FB7319401143018370470A460021018BC4
:1049A0004FF6FF3319404FF6FF7303EA0223194312
:1049B000018370470A460021818B4FF6FB73194033
:1049C0001143818370470A460021818B4FF6FF33E4
:1049D00019404FF6FF7303EA02231943818370479E
:1049E0000A460021018B4FF67F7319401143018362
:1049F00070470A460021018BC1F30E014FF6FF7389
:104A000003EA02231943018370470A460021818B80
:104A10004FF67F7319401143818370470A46002186
:104A2000818BC1F30E014FF6FF7303EA0223194392
:104A3000818370470A460021018C4FF6FD731940AF
:104A40001143018470470A460021018C4FF6F77329
:104A500019401143018470470A460021018C4FF62A
:104A6000DF7319404FF6FF7303EA02131943018401
:104A700070470A460021018C4FF67F7319404FF6AC
:104A8000FF7303EA02131943018470470A460021A9
:104A9000018C4FF6FF5319404FF6FF7303EA0223D0
:104AA0001943018470470A460021018C4FF2FF73BD
:104AB00019404FF6FF7303EA02231943018470473C
:104AC0000A460021018C4DF6FF7319404FF6FF7323
:104AD00003EA023319430184704730B500230124EF
:104AE0008C40A3B2048C9C430484048C02FA01F52C
:104AF000ADB22C43048430BD30B5002304248C4077
:104B0000A3B2048C9C430484048C02FA01F5ADB278
:104B10002C43048430BD70B50346002000241846A1
:104B2000183001258D40ACB21D8CA5431D8409B100
:104B3000082909D100EB6100056825F070050560C2
:104B40000568154305600EE00D1FC5F34E052844AA
:104B5000056825F4E045056005684FF6FF7606EA2E
:104B600002263543056070BD21B1028842F0020281
:104B7000028004E002884FF6FD731A4002807047FD
:104B800021B1028842F00402028004E002884FF65C
:104B9000FB731A400280704721B1828842F0800284
:104BA000828004E082884FF67F731A4082807047CB
:104BB00002884FF6F7731A40028002880A43028087
:104BC000704782884FF68F731A40828082880A432A
:104BD0008280704702894FF6F8731A400281028979
:104BE0000A430281704702894FF67F731A4002819F
:104BF00002890A430281704781847047818570472A
:104C0000818670470187704781877047A0F8401000
:104C1000704702884FF6FF431A40028002880A4319
:104C2000028070470146888E70470146088F7047A2
:104C30000146888F70470146B1F840007047014631
:104C4000888C70470146088D704702460020138A01
:104C50000B400BB1012000E000207047CA430282E4
:104C6000704730B50246002000230024158A05EA6B
:104C70000103958905EA010413B10CB1012000E09C
:104C8000002030BDCA4302827047000010B50446C0
:104C9000FA48844208D101214015FEF79BFE00210D
:104CA0006015FEF797FE17E0F548844208D1012110
:104CB0000015FEF78FFE00212015FEF78BFE0BE09E
:104CC000F048844208D10121C803FEF783FE002189
:104CD0004FF40040FEF77EFE10BD30B502460020C6
:104CE00000235068E84C20400D790C6844EA052404
:104CF000204350609068E54C2040D1E902542C4399
:104D00004D7944EA450420439060D06A20F4700055
:104D10000C7C641EE4B2234340EA0350D06230BDF1
:104D200000210160017141718160C1600121017444
:104D3000704721B1826842F00102826003E082681C
:104D400022F001028260704721B1826842F48072D1
:104D5000826003E0826822F480728260704710B53E
:104D60000023CBB21AB144681C43446002E044689B
:104D70009C43446010BD816841F008018160704728
:104D8000014600208A6802F008020AB1012000E012
:104D900000207047816841F004018160704701463E
:104DA00000208A6802F004020AB1012000E000201D
:104DB000704721B1826842F4A002826003E08268F9
:104DC00022F4A00282607047014600208A6802F443
:104DD00080020AB1012000E00020704710B50A46A9
:104DE00000210023416821F46041531E41EA433110
:104DF000416010BD21B1426842F40062426003E0AC
:104E0000426822F4006242607047F0B504460D46E5
:104E100000200021092D11DDE068A5F10A0606EB4E
:104E20004607072606FA07F18843A5F10A0606EBAE
:104E3000460603FA06F10843E0600CE0206905EB42
:104E40004507072606FA07F1884305EB450603FAEE
:104E500006F108432061072A0FDA606B561E06EB45
:104E600086071F2606FA07F18843561E06EB8606BC
:104E700005FA06F10843606322E00D2A0FDA206B81
:104E8000D61F06EB86071F2606FA07F18843D61FB2
:104E900006EB860605FA06F10843206310E0E06A97
:104EA000A2F10D0606EB86071F2606FA07F18843D6
:104EB000A2F10D0606EB860605FA06F10843E0624C
:104EC000F0BD21B1826842F48012826003E0826802
:104ED00022F48012826070470146C86C80B270472D
:104EE00066484C300068704721B1426842F48062E5
:104EF000426003E0426822F480624260704721B160
:104F0000426842F48052426003E0426822F48052D8
:104F1000426070470A460021816821F4E041114354
:104F20008160704721B1826842F40042826003E0F0
:104F3000826822F400428260704721B1826842F4A4
:104F40000212826003E0826822F4021282607047DB
:104F5000014600208A6802F400120AB1012000E034
:104F600000207047F0B504461546002000220026B8
:104F7000092911DDE068A1F10A0707EB470C0727B3
:104F800007FA0CF29043A1F10A0707EB470703FA6F
:104F900007F21043E0600CE0206901EB410C0727A9
:104FA00007FA0CF2904301EB410703FA07F21043B2
:104FB0002061A06BC0F30156EF1C06F1010CA7EBBA
:104FC0000C0707EB870C1F2707FA0CF29043EF1C26
:104FD00006F1010CA7EB0C0707EB870701FA07F2B4
:104FE0001043A063F0BD10B50A4600210023816B79
:104FF00021F44011531E41EA0351816310BD08B5ED
:10500000002300930090009B0B440093009B1A60C8
:1050100008BD08B5024600200090009201F128006A
:10502000009B184400900098006880B208BD0A46B2
:1050300000214168164B194011434160704741629D
:10504000826270470A460021416821F01F01114326
:105050004160704740B109490831096841F40001D5
:10506000064A0832116007E004490831096821F452
:105070000001024A0832116070470000002401401C
:1050800000280140003C0140FFFEF0FFFDF7F1FF6A
:10509000FFFD3FFF0246002013680B400BB10120CB
:1050A00000E000207047CA430260704770B50246B6
:1050B0000020002300240B125568CEB205EA060436
:1050C00015681D4015B10CB1012000E0002070BD35
:1050D00000220A12D3430360704770470FB404499B
:1050E00010B503AA029800F0BBF810BC5DF814FBE1
:1050F000A8000020704770477047704770B504469D
:1051000085690068C10601D5302600E02026C00769
:1051100007D070BDD4E9012130469047206A401C79
:1051200020626D1EF6D570BD70B5044685690078A5
:10513000C00707D170BDD4E9012120209047206A23
:10514000401C20626D1EF6D570BD09684A0501D568
:1051500040B27047C905FCD500B2704709684A05DE
:1051600001D5C0B27047C905FCD580B2704770B593
:105170000C460546012A05D02878800600D5EA6944
:10518000002302E0012305E05B1C934202D2E05CB5
:105190000028F9D1A869E618C01AA861286A18443D
:1051A00028622846FFF7AAFF04E0D5E9012114F898
:1051B000010B9047B442F8D32846FFF7B5FF70BD06
:1051C0002DE9F0410646002410687529314616A5E0
:1051D00010D0FFF7BAFF002802DA404213A507E01B
:1051E00031688A0701D512A502E0490704D511A547
:1051F000012401E0FFF7B2FF00210A2206F1240793
:1052000009E0B0FBF2FCB0FBF2F302FB1C00303013
:1052100078541846491C0028F3D123462A463046C4
:10522000BDE8F04100F055BA000000002D0000007C
:105230002B0000002000000011680268006A53057E
:1052400001D508700AE0D30501D5088006E01306F1
:1052500003D5C217C1E9000200E0086001207047D1
:10526000074B70B50D467B4400F09FFC0446284672
:1052700000F0DAFC10B14FF0FF3070BD204670BD79
:10528000A9DEFFFF2DE9FF5F15468A460446DFF8D9
:10529000AC80F8440027D8E900103E46CDE9001064
:1052A00010E03AF816106A4602A800F0C1FC411C52
:1052B00007D02178890603D5E269391891420DD8C3
:1052C0000744761C2078800602D5E069B84205DDE7
:1052D000AE42E6DB3AF816000028E2D1A069C01B16
:1052E000A0612046FFF70AFFD8E90010CDE90010C1
:1052F000002017E03AF818106A4602A800F098FC5F
:10530000B0F1FF3F81460BD000250DF1080B05E001
:10531000D4E901211BF8050090476D1C4D45F7D3DA
:1053200008F10100B0428046E4DB206A3844206284
:105330002046FFF7F9FEBDE8FF9F00000A2A0000A3
:105340002DE9F0418046D21D22F007020025D2E966
:105350000002F52915A614D0011E72F1000106DA2B
:105360000023D0EB030063EB020211A608E0D8F89B
:1053700000108B0701D50FA602E0490701D50EA644
:1053800001251146002408F1240704E000F05CF92F
:1053900030323A55641C50EA0102F7D12B463246AE
:1053A00021464046BDE8F04100F093B900000000FE
:1053B0002D0000002B0000002000000030B4002170
:1053C00000F1240408E002F00705D208303542EA73
:1053D0004372DB086554491C52EA0305F3D10468A3
:1053E000002310A2250708D504F020040C4304D0A4
:1053F000C46901230CA2641EC46130BC00F069B909
:1054000010B5044621461068FFF7A8FE0246204664
:10541000BDE810400023D1E7D21D22F00701D1E9F9
:105420000023CBE70000000030000000F0B40D4680
:105430000188090502D5214C7C4402E01F4C7C44C4
:105440000E34002100F1240608E002F00F071209D3
:10545000E75D42EA03721B097754491C52EA0307CD
:10546000F3D102780023120704D5702D06D009B1BC
:10547000022311342246F0BC00F02BB90123103472
:10548000F8E770B504460D4621461068FFF766FE42
:10549000024629462046BDE870400023C6E7D21DDB
:1054A00022F00703D3E90023C0E70368126843F042
:1054B000200303600823C3610023B7E76C280000C2
:1054C0002DE9F05F894604464FF0000ADFF874B119
:1054D000FB44C0F820A02046E1688847002874D02B
:1054E000252806D0D4E901219047206A401C20627B
:1054F000F1E700265F462046E168884720280546F8
:1055000007DB312D05D2781910F8200C08B10643BD
:10551000F1E7B00701D526F00406C4F81CA0002767
:10552000C4F818A02A2D09D0284601F09AF838B3FB
:1055300004EB8708303DC8F8185019E059F8041BEF
:10554000204604EB87029161E1688847012F0546F8
:1055500018D1E069002820DA26F020061DE0D8F8EE
:10556000180000EB800005EB40003038C8F8180048
:105570002046E1688847054601F073F80028EED11F
:10558000012F0AD02E2D08D12046E16888477F1CC4
:105590000546022F46F02006C4DBA069002803DA86
:1055A000404246F00106A061F00701D026F0100647
:1055B0006C2D0BD0682D09D04C2D39D06A2D35D0EB
:1055C000742D35D07A2D33D016E038E0E1682F46BF
:1055D00020468847B842054609D16C2F26D04FF4A3
:1055E0008060E168064320468847054604E06C2F4A
:1055F0001AD04FF4807006430DB3A5F1410019286D
:1056000002D8203546F400664A46294620462660E0
:105610004E46FAF7C7FD80B101280BD0F61D26F0E3
:10562000070000F1080956E74020E4E78020D8E7AA
:105630000020D6E706F104094DE7284652E7206A24
:10564000BDE8F09FFC27000030B5B0F10A024FEA38
:10565000900E71F100034EEA817EB0EB0E0061EB1B
:1056600091014FEA101E4EEA017E10EB0E0041EB55
:1056700011114FEA102E4EEA016E10EB0E0041EBB5
:1056800011214FEA104E4EEA014E10EB0E0041EB95
:105690001141401841F100014FEAD00040EA417049
:1056A0004FEAD10110EB80054FEA810444EA90747F
:1056B00044EB01046D1944EB0404521BA3414FF069
:1056C000000348BF0A3200D530BD401C41F1000143
:1056D00030BD2DE9F0470D4699469246044600F14B
:1056E00024080168880604D5E06921F010012160D2
:1056F00000E00120A84201DD471B00E00027A1696E
:105700007A1902EB0900081AA0612078C00602D4B9
:105710002046FFF7F3FC002608E0D4E901211AF83F
:1057200006009047206A401C761C20624E45F4DB40
:105730002078C0060AD52046FFF7E0FC06E0D4E951
:10574000012130209047206A401C2062381EA7F1BA
:105750000107F4DC07E0D4E9012118F805009047BF
:10576000206A401C2062281EA5F10105F3DC2046BA
:10577000FFF7DAFC2078000602D50220BDE8F087AA
:105780000120FBE770472DE9FF4F0C461E464FF006
:10579000FF378BB0D2E90001DDF860800A908A46BD
:1057A000C1F30A5505B93D46002108464FF00000F7
:1057B000BAF1000F00F4400005DA00EB80004FF46E
:1057C000400101EA50004FEA9059B9F1010F00DDA4
:1057D000B9460A9850EA4A000ED044F61050A5F295
:1057E000FF3545432F14B8F1000F1ED07542291E16
:1057F0001EDDC9F100021CE0B8F1010F4FF00000FE
:1058000001D0302103E0F24305E02154401CB042B6
:10581000FBDB30460022002121540B99C1F808809F
:10582000C1E900200FB0BDE8F08FBD1B6D1CDEE7A5
:105830004A4600DA694206A800F08CFA06AB93E803
:10584000070003AB83E8070050460A9900F03AFBD3
:105850008DE80700A0F500501F3800900398002D38
:1058600009DD42F21F014A46084403A90390684635
:1058700000F099FD08E0A0F500504A461F3803A942
:105880000390684600F0A3FD8DE807000004000CBB
:1058900003D04FF0FF30410800E01046B8F1000F90
:1058A00003D00022009215461EE0751E05D4FFF7B6
:1058B000CBFE303262556D1EF9D5B3460122084346
:1058C00002D000227F1C04E02078302801D1002281
:1058D0007F1E002A099786D01DE0112D07DAFFF7F9
:1058E000B3FE303262556D1C50EA0102F5D1084317
:1058F00002D00098C8B10EE00021681E05E0235CCC
:10590000625C63542254401E491C8142F7DBAB4663
:10591000A81B401E0990002004F80B000B98099A60
:10592000C0F80880C0E9002B7CE711264FF0000882
:1059300059E72DE9F04F88460446D21D22F00701B1
:1059400091B0D1E90001CDE90A0100F076FE0246EE
:105950000B98C00F01D02D2007E02068810701D5EA
:105960002B2002E0202101EAC000032A099001D087
:10597000072A05DB03464146204600F0ABF90BE160
:105980002078800601D5E06900E00620B8F1650FB7
:10599000814606D0B8F1660F18D0B8F1670F70D104
:1059A00031E00020B9F1110F009001DB112301E07B
:1059B00009F101030AAA01A90CA8FFF7E4FEDDE939
:1059C0000C70002609F10105834647E001204B4693
:1059D00000904FF000470AAA01A90CA8FFF7D3FED8
:1059E000DDE90DB00C995D46002610B909F1010002
:1059F0000D18B9EB050003D4C0F1FF3609F101051C
:105A0000A5EB09002BE0B9F1010F01DA4FF0010914
:105A10000020B9F1110F0090484601DD112300E08C
:105A200003460AAA01A90CA8FFF7ADFEDDE90C7038
:105A30004D4600268346207800070AD4AB4500DA9D
:105A40005D4601A8012D04DD411911F8011C302922
:105A500007D04F4502DA17F1040F04DA012082461D
:105A60000FE06D1EEEE7002F02DCED1B3E4403E06D
:105A7000781CA84200DD7D1CB81B00F1010A4FF024
:105A800000472078000703D4AA4501DB4FF0FF3A16
:105A90000021B7F1004F0DF143088DF8431024D0D9
:105AA00002202B23002F01DA7F422D230A21021E20
:105AB000A0F1010000DC5FB197FBF1FC97FBF1F274
:105AC00001FB1C7C17460CF1300C08F801CDEEE709
:105AD000A8F1010003702188090501D5452100E0E6
