:020000040800F2
:10000000A04B0020851C0008F9020008FB02000834
:10001000FF020008030300080703000800000000B7
:100020000000000000000000000000000B030008BA
:100030000D030008000000000F0300081103000872
:100040009F1C00089F1C00089F1C00089F1C0008A4
:100050009F1C00089F1C00089F1C00089F1C000894
:100060009F1C00089F1C00089F1C00089F1C000884
:100070009F1C00089F1C00089F1C00089F1C000874
:100080009F1C00089F1C00089F1C00089F1C000864
:100090009F1C00089F1C00089F1C00089F1C000854
:1000A0009F1C00089F1C00089F1C00089F1C000844
:1000B0009F1C00089F1C0008830E00089F1C00085E
:1000C0009F1C00089F1C00089F1C00089F1C000824
:1000D0009F1C0008FB1B00089F1C0008F30700087A
:1000E0009F1C00089F1C00089F1C00089F1C000804
:1000F0009F1C00089F1C00089F1C00089F1C0008F4
:100100009F1C00089F1C00089F1C00089F1C0008E3
:100110009F1C00089F1C00083B1100089F0E000850
:100120009F1C00089F1C00089F1C00089F1C0008C3
:1001300000F002F800F090F80AA090E8000C824469
:100140008344AAF10107DA4501D100F085F8AFF246
:10015000090EBAE80F0013F0010F18BFFB1A43F0A5
:10016000010318472850000048500000103A24BFEF
:1001700078C878C1FAD8520724BF30C830C144BF0C
:1001800004680C607047000000230024002500264E
:10019000103A28BF78C1FBD8520728BF30C148BFEA
:1001A0000B6070476E2903F03B83702903F0718464
:1001B000662904F07D85652904F07A85672904F0B5
:1001C00077856129AFF3008003681B0A28BF41F0DF
:1001D0008001692903F0E882642903F0E58275292A
:1001E00003F0E2826F2903F0FF83782903F03D8456
:1001F000E92903F09983E42903F09683F52903F0B4
:100200009383EF2903F0FC83F82903F03C8403680F
:10021000DB0928BF41F08001632903F0D7877329E8
:1002200003F0DC87E32903F0E787F32903F0EC8789
:10023000002070471FB504F03DF8040000200021A5
:1002400004F020FD401C60600020002104F004FD4B
:10025000E0601FBD10B510BD03F0FEFF1146FFF7B3
:10026000E9FF00F009F804F0D7F803B4FFF7F2FF54
:1002700003BC01F067FC000010B500F0BAF801F013
:10028000F7FB4FF4A06001F01DFD00F06FF900F0E6
:1002900031F94FF48071164801F075FE90B100F00D
:1002A0001EFA0EE04FF48071114801F06CFE08B99F
:1002B00000F03EF90F4803F005FA4FF4FA7001F030
:1002C00014FCEFE74FF48071094801F05CFE68B957
:1002D00000F091FE09E04FF48071054801F053FEF3
:1002E00008B100F025F901F0D8FAF4E7002010BDBC
:1002F0000008014088000020704700BFFEE700BFF3
:10030000FEE700BFFEE700BFFEE77047704770479B
:10031000704700000CB50020019000906C48006808
:1003200040F480306A49086000BF6948006800F402
:10033000003000900198401C0190009818B9019875
:10034000B0F5A06FF1D16248006800F4003010B140
:100350000120009001E0002000900098012843D186
:100360005C48006840F010005A4908600846006880
:1003700020F0030008600846006840F002000860B2
:1003800053484068524948600846406848600846FB
:10039000406840F4806048600846406820F47C1063
:1003A00048600846406840F4E81048600846006825
:1003B00040F08070086000BF4548006800F00070A1
:1003C0000028F9D04248406820F0030040494860C6
:1003D0000846406840F00200486000BF3C48406862
:1003E00000F00C000828F9D10CBD10B5FFF792FF02
:1003F00010BD10B53648006840F00100344908606F
:100400000846406834490840314948600846006859
:10041000324908402E4908600846006820F48020D0
:1004200008600846406820F4FE0048604FF41F0052
:100430008860FFF7DAFF4FF000602949086010BDBF
:1004400010B5002100200022214B5B6803F00C0155
:1004500021B1042906D0082928D107E0214B224CDC
:10046000236027E01F4B204C236023E0184B5B6880
:1004700003F47010164B5B6803F48032022303EB25
:10048000904022B9194B4343174C23600DE0104BA9
:100490005B6803F4003323B1144B4343124C2360D5
:1004A00003E0104B4343104C236003E00D4B0E4C14
:1004B000236000BF00BF064B5B68C3F303130C4C03
:1004C000E15C094B1B68CB40074C236010BD00006A
:1004D00000100240002002400000FFF8FFFFF6FE7F
:1004E00008ED00E000127A000000002000093D0045
:1004F0000400002008B501210C2001F06DFF102040
:100500008DF8030047F22200ADF8000003208DF8BB
:1005100002006946104801F0A3FC4120ADF800003C
:1005200069460E4801F09CFC01200D49086008BD99
:10053000012080F3138800BF00BF0A48006800F460
:10054000E06009490843001D06490860BFF3408F79
:1005500000BF00BFFEE70000000C014000080140A2
:10056000B88121420CED00E00000FA0508B5012138
:10057000142001F031FF48208DF803004FF478700B
:10058000ADF8000003208DF802006946054801F02F
:1005900067FC4FF48070ADF800006946024801F036
:1005A0005FFC08BD00100140000801400120FE4929
:1005B00008800820488009208880EB20C88042F20B
:1005C000F210088145F61A4048817D20888101207B
:1005D000F64908850020488501208885C8850020C7
:1005E0000886488601208886C886088700204887B4
:1005F000704770B502460C46FF25FF2309E012F84C
:10060000010B80EA0501EA48405C80EA0305E948FD
:10061000435C2000A4F10106B4B2F0D143EA052006
:1006200070BD1FB504460121042001F0E2FEADF8C3
:10063000084041F61F40ADF804000020ADF80A0064
:10064000ADF8060001A9DC4802F002FA01224121BE
:10065000D94802F074FD1E208DF8000002208DF8AC
:1006600001008DF8020001208DF80300684601F0BA
:100670002EFB0121D04802F047FD1FBD1FB501210F
:10068000202001F0B6FECD48008800EB80004FF638
:10069000FF7101EA4000ADF8080041F61F40ADF8D7
:1006A00004000020ADF80A00ADF8060001A9C44816
:1006B00002F0CEF901221146C14802F040FD372078
:1006C0008DF8000002208DF8010003208DF8020053
:1006D00001208DF80300684601F0F9FA1FBD00B54E
:1006E00087B00121282001F077FE0121880401F064
:1006F00080FE4FF48060ADF8180018208DF81B00C4
:1007000003208DF81A0006A9AE4801F0A9FB4FF4AA
:100710000060ADF8180004208DF81B0006A9A94858
:1007200001F09EFB8020ADF8180010208DF81B0012
:1007300006A9A54801F094FB8021A34801F03FFCE5
:10074000A24801F0ADFEA248006802900020ADF87A
:100750001400ADF80C00ADF80E000C20ADF812003E
:100760009C48007820B1012806D002280ED108E06C
:100770000020ADF8100009E04FF4C060ADF81000A3
:1007800004E04FF48060ADF8100000BF00BF02A984
:100790008E4801F0C8FE40F225518C4802F06AF8FC
:1007A000012240F22551894801F055FF27208DF89C
:1007B000040002208DF805008DF8060001208DF858
:1007C000070001A801F083FA0121804801F037FFFA
:1007D000012081490860FFF751FFFFF7E7FE4FF462
:1007E000E13001F0BEF940F6C410FFF71AFF07B080
:1007F00000BD70B54FF48071784801F0C4FB80B340
:1008000040F22551714802F00BF800285BD0072117
:100810006E4801F0EFFF08B1012400E000246B48AE
:1008200001F07EFFC5B26E48008840F2FF71884239
:1008300049DA002C47D16B48694909884554684812
:100840000088401C6649088001215D4802F036FF9F
:1008500000215B4802F0ECFE0121594802F054FCF3
:1008600031E0FFE740F22551584801F0D9FF50B37D
:100870000721564801F0BEFF08B1012400E0002422
:10088000002059490860514801F04AFFC5B2574855
:10089000008840F2FF71884215DAA4B954485349E0
:1008A0000988455451480088401C5049088001215E
:1008B000504802F003FF00214E4802F0B9FE01212A
:1008C0004C4802F021FC70BD4B48007801280AD149
:1008D0000020494908704249088001203E490860CB
:1008E000002046490870704770B504460D46012047
:1008F000394908600BE000BF8021344801F07AFFDD
:100900000028F9D014F8011B304801F005FF280039
:10091000A5F10101CDB2EED100BF40212B4801F07D
:1009200069FF0028F9D001203449087000202A49C5
:10093000086070BD2DE9F04180460E46144630191E
:10094000B0F57A7F17DA002513E07019164931F8EF
:1009500010000012072101EB4501294A505470197B
:10096000114911F81000082101EB45015054681C91
:10097000C5B2A542E9DB224880F80080102020495A
:10098000487030128870CE70201208714C71600669
:10099000000E88716000C01D81B21948FFF729FE62
:1009A0000746390A60002DE0E819002050110020A8
:1009B000B44C0008B44D0008000800401A000020A4
:1009C00000140040000C01400014014000480040A9
:1009D00014000020180000209C81224200080140E1
:1009E0001C00002088000020B48121424800002023
:1009F000B8210020001000401E0000202A00002026
:100A000088080020C01DFE4A1154600008301754A9
:100A100060000930C1B21046FFF766FFBDE8F08103
:100A20002DE9F04781460F4615467819642873DA98
:100A30002846E91705EB5171C1F3CF06E91705EB1D
:100A40005171C910A5EBC10109B1701C86B2002417
:100A500060E0E11704EB5171C910A4EBC10141B989
:100A600000222046E11704EB5171C910C91DE44B67
:100A70005A542046E21704EB5272D210D21DE04BBA
:100A80009A5C53102146E21704EB5272D210D21D29
:100A9000DFF86CC30CF802303819DA4931F810006D
:100AA00088B12046E21704EB5272D210D21D634681
:100AB0009A5C42F080032146E21704EB5272D21096
:100AC000D21D0CF80230681EA04221D1E91705EBB7
:100AD0005171C910A5EBC101D1B1E21704EB5272FB
:100AE000D210D21DC64B9A5C2946EB1705EB537307
:100AF000DB10A5EBC303C3F108031A412046E3173B
:100B000004EB5373DB10DB1DDFF8F4C20CF8032099
:100B1000601C84B2AC429CDBB94880F800900F2086
:100B2000B749487038128870CF70281208714D711B
:100B30008E71F01D81B2B248FFF75BFD80464FEA2F
:100B40001821F01DAE4A1154401C02F80080401CD0
:100B5000C1B21046FFF7C8FEBDE8F0872DE9F041AD
:100B600005460C461746A64805700620A44948705D
:100B700020128870CC70A44830F81400001208715C
:100B8000A14810F81400487106219D48FFF731FD77
:100B90000646300A9A498871CE7108219848FFF7B5
:100BA000A3FEBDE8F0812DE9F04107460C469046D2
:100BB000B8F1010F1FD1934830F8140010B14FF471
:100BC0007F4500E000258E48077005208C4948705D
:100BD00020128870CC70281208714D710621884847
:100BE000FFF707FD0646300A85498871CE71082156
:100BF0008348FFF779FEBDE8F0812DE9F041064614
:100C00000C4615467E48067003207D494870201228
:100C10008870CC70281208714D7106217848FFF752
:100C2000E8FC0746380A76498871CF710821744874
:100C3000FFF75AFEBDE8F0812DE9F04106460C466B
:100C400015466F48067002206D4948702012887062
:100C5000CC70281208714D7106216948FFF7C9FC54
:100C60000746380A66498871CF7108216448FFF742
:100C70003BFEBDE8F0812DE9F04106460C461546E5
:100C80005F48067001205E49487020128870CC7061
:100C9000281208714D7106215948FFF7AAFC074632
:100CA000380A57498871CF7108215548FFF71CFE53
:100CB000BDE8F0812DE9F04107460C4615461E4679
:100CC000052C20D006DC012C0BD0022C0FD0032CDD
:100CD00031D112E0062C1CD00F2C20D0102C2AD1A0
:100CE00023E0324629463846FFF7C5FF23E0324667
:100CF00029463846FFF7A0FF1DE032462946384610
:100D0000FFF77BFF17E0324629463846FFF74BFFD7
:100D100011E0324629463846FFF720FF0BE0324605
:100D200029463846FFF77CFE05E03246294638461C
:100D3000FFF700FE00BF00BFBDE8F08110B53348EB
:100D40000388334802883348017833480078FFF736
:100D5000B1FF10BD10B53148007820B101287BD01B
:100D6000022878D187E0FFF7E9FF2D48006808B92D
:100D7000012000E000202A4908602A48D0F89401A8
:100D800008B9012000E000202549203908602648E4
:100D9000007898B30120214908704102234801F0EE
:100DA000F2F804464FF48071204801F0ECF844EA70
:100DB000400480211D4801F0E6F844EA8004402107
:100DC0001A4801F0E0F844EAC000401C12490978D2
:100DD000884204DD10480078401C0F4908704FF429
:100DE0000071124801F0CFF804464FF480710F48AB
:100DF00001F0C9F844EA4004802119E02BE02BE01F
:100E00008808002050110020E81900202800002048
:100E10002600002024000020230000203C000020A9
:100E2000B4812142008021422A00002000100140AC
:100E3000344801F0A8F844EA80044021314801F028
:100E4000A2F844EAC000401C2F490978884202D128
:100E500000202D49087012E0FFF736FD2B4800787E
:100E600018B900202A49087004E029480078401C7D
:100E70002749087003E000202549087000BF00BF23
:100E800010BD10B50121234802F007FC012805D14F
:100E90000121204802F012FCFFF75CFF10BD10B5E5
:100EA00001211D4802F0F9FB60B101211A4802F04E
:100EB00005FC0021184802F027F9012017490860B5
:100EC0001749087010BD2DE9F04106460C4615463D
:100ED0001448067004201349487020128870CC70A2
:100EE000281208714D7106210E48FFF782FB074654
:100EF000380A0C498871CF7108210A48FFF7F4FCC1
:100F0000BDE8F08100100140230000202A000020ED
:100F10003C00002000080040001400409C81224258
:100F20001E00002088080020FD48FE490860001FC0
:100F30004860001F8860FC48C860FC48FC490860A5
:100F4000F74884304860FB48FB490860FB4848602C
:100F5000FB488860FB48C860F6480861F74848616C
:100F6000F7488861704770B502460C46FF25FF239D
:100F700009E012F8010B80EA0501F348405C80EAC1
:100F80000305F248435C2000A4F10106B4B2F0D19D
:100F900043EA052070BD1FB50121102001F029FA98
:100FA000EB48008800EB80004FF6FF7101EA40003B
:100FB000ADF808004FF4E150ADF804000020ADF8A2
:100FC0000A00ADF8060001A9E24801F041FD012246
:100FD0001146E04802F0B3F836208DF800000220F8
:100FE0008DF801008DF8020001208DF8030068469D
:100FF00000F06DFE1FBD00B587B00121282001F073
:10100000EBF90121880401F0F4F94FF48060ADF8A8
:10101000180018208DF81B0003208DF81A0006A96F
:10102000CD4800F01DFF4FF40060ADF8180004201B
:101030008DF81B0006A9C84800F012FF8020ADF80B
:10104000180010208DF81B0006A9C44800F008FF06
:101050008021C24800F0B3FFC14801F021FAC14825
:10106000006802900020ADF81400ADF80C00ADF857
:101070000E000C20ADF81200BB48007820B101280A
:1010800006D002280ED108E00020ADF8100009E0DB
:101090004FF4C060ADF8100004E04FF48060ADF88C
:1010A000100000BF00BF02A9AD4801F03CFA40F2B9
:1010B0002551AB4801F0DEFB012240F22551A84842
:1010C00001F0C9FA27208DF8040000208DF80500F2
:1010D0008DF8060001208DF8070001A800F0F7FD4B
:1010E00001219F4801F0ABFA0020A0490860FFF7FA
:1010F00052FFFFF719FF07B000BD70B504460D465B
:1011000001209A4908600BE000BF8021944801F05B
:1011100071FB0028F9D014F8011B914801F0FCFA8A
:101120002800A5F10101CDB2EED100BF40218C48CD
:1011300001F060FB0028F9D070BD10B50121854891
:1011400002F0ABFA60B10121824802F0B7FA002147
:10115000804801F0D9FF0120844908608449087063
:1011600010BD10B5834840798249097940EA0120D1
:10117000814908808148008809880844B0F57A7F51
:101180004EDA002422E0072000EB44007949085C95
:101190007A4909882144684A52F821100880774822
:1011A00000882044114651F820000088082101EBF6
:1011B0004401704A515C40EA012070490988214489
:1011C0005D4A52F821100880601CC4B26A48008849
:1011D0008442D8DB674800786949087065484078E0
:1011E00048706448807888706248C078C8706148E8
:1011F000007908715F484079487106216048FFF71F
:10120000B2FE6049088008460088000A5C4988717F
:101210005C480078C87108215948FFF76EFF0EE05E
:1012200054480078564908705248407840F0800091
:1012300048700220887003215148FFF75EFF10BDFF
:1012400010B54C48007900023B494C4A128851F8CD
:101250002210088038484949098850F82100008840
:101260004449497908433449444A128851F82210C4
:10127000088040480078424908703E4840784870ED
:101280003C48807888703B48C078C87039480079FD
:10129000087138484079487106213948FFF763FEE4
:1012A0003849088008460088000A35498871354861
:1012B0000078C87108213248FFF71FFF10BD10B534
:1012C0002C4840792B49097940EA01202A490880B5
:1012D0002A48008809880844B0F57A7F7EDA2548D4
:1012E00000782749087023484078487022480078E1
:1012F0004006000E887000244BE04D20032101EBD6
:1013000044011F4A50543E20042101EB4401505433
:101310008D20052101EB440150546E20062133E05D
:1013200010012342B8310020000121429481214262
:101330004833002050000020D83400205400002002
:10134000580000205C000020B44E0008B44F000894
:101350004600002000100040000C01400014014035
:101360000048004040000020440000209C812242B0
:101370004A000020B8210020620000206000002008
:10138000B82900206400002001EB44015054601C87
:10139000C4B2FE4800888442AFDBFC4800880322C8
:1013A00002EB400081B2FA48FFF7DDFDF949088001
:1013B00008460088010AF5480088052202EB400033
:1013C000F34A1154F3480178F0480088062202EBF2
:1013D0004000EF4A11540921104600E002E0FFF7F7
:1013E0008CFE0EE0EC480078E9490870EA48407845
:1013F00040F080004870022088700321E448FFF725
:101400007CFE10BD10B5E4484079E349097940EA13
:101410000120DE490880E1480088098808446428E2
:1014200058DA00242CE0E11704EB5171C910C91DF2
:10143000D94A515C01F0010141B10120D749098825
:101440002144D74A52F82110086007E00020D34910
:1014500009882144D24A52F821100860E11704EBB0
:101460005171C910C91DCC4A515C4A102046E11780
:1014700004EB5171C910C91DC74B5A54601C84B28A
:10148000C24800888442CEDBC3480078C049087057
:10149000C14840784870C04880788870BE48C0789D
:1014A000C870BD4800790871BB4840794871062171
:1014B000B748FFF758FDB749088008460088000A7A
:1014C000B3498871B3480078C8710821B048FFF764
:1014D00014FE0EE0B0480078AD490870AE48407880
:1014E00040F080004870022088700321A848FFF770
:1014F00004FE10BD10B5A948008864283CDAA6484F
:101500000079FF2803D0A4484079FF2807D10120A3
:10151000A349A24A128851F82210086006E0002070
:101520009F499E4A128851F8221008609A48007814
:101530009749087098484078487097488078887034
:101540009548C078C87094480079087192484079ED
:10155000487106218E48FFF706FD8E49088008462F
:101560000088000A8A4988718A480078C871082171
:101570008748FFF7C2FD0EE087480078844908706D
:101580008548407840F08000487002208870032130
:101590007F48FFF7B2FD10BD70B57F4840797E49A6
:1015A000097940EA0120794908807C480088098847
:1015B000084464287EDA78480078754908707648CF
:1015C0004078487071490888C11700EB5171CD10FF
:1015D0006E490888C11700EB5171C910A0EBC10119
:1015E00009B1681C85B26A498D70002461E0E11779
:1015F00004EB5171C910A4EBC10141B9002220468E
:10160000E11704EB5171C910C91C614B5A54E11721
:1016100004EB5171C910C91C5D4A515C4A10204647
:10162000E11704EB5171C910C91C594B5A54E11709
:1016300004EB5171C910C91C1A46515C574A1288F3
:101640002244574B53F822201268802303EAC21227
:101650001143E21704EB5272D210D21C4C4B995436
:101660004A480088401EA04221D148490888C11735
:1016700000EB5171C910A0EBC101C1B1E21704EB3D
:101680005272D210D21C9A5C404B1988CB1701EBD6
:101690005373DB10A1EBC303C3F108031A412046C7
:1016A000E31704EB5373DB10DB1C394EF254601C60
:1016B00084B200E01AE035480088844297DBE81CD9
:1016C00081B23348FFF74FFC324908800846008852
:1016D000010A2F4AE81C11542E480178281D115484
:1016E000681DC1B21046FFF708FD0EE02A480078D9
:1016F000274908702848407840F080004870022050
:10170000887003212248FFF7F8FC70BD70B52248AD
:1017100040792149097940EA01201C4908801F4885
:1017200000880988084464287EDA1B480078184934
:10173000087019484078487014490888C11700EBB0
:101740005171CD1011490888C11700EB5171C910B2
:10175000A0EBC10109B1681C85B20D498D70002450
:1017600070E0E11704EB5171C910A4EBC10141B95C
:1017700000222046E11704EB5171C910C91C044B2B
:101780005A54E11704EB5171C9100BE062000020BC
:10179000B829002064000020B8210020600000204B
:1017A00048330020C91CA64A515C4A102046E11764
:1017B00004EB5171C910C91CA14B5A54E11704EB39
:1017C0005171C910C91C1A46515C9E4A12882244A4
:1017D0009D4B53F822201268802303EAC212114362
:1017E000E21704EB5272D210D21C954B99549748D1
:1017F0000088401EA04223D194490888C11700EBFD
:101800005171C910A0EBC101D1B1E21704EB5272C2
:10181000D210D21C9A5C8D4B1988CB1701EB5373F5
:10182000DB10A1EBC30300E027E0C3F108031A417A
:101830002046E31704EB5373DB10DB1C804EF2549D
:10184000601C84B28148008884428ADBE81C81B233
:101850007B48FFF788FB7E49088008460088010A1C
:10186000774AE81C11547A480178281D1154681DE4
:10187000C1B21046FFF741FC0EE07648007870498F
:1018800008707448407840F08000487002208870EA
:1018900003216B48FFF731FC70BD70B54FF4007148
:1018A0006D4800F070FB05464FF480716A4800F007
:1018B0006AFB45EA40058021674800F064FB45EA81
:1018C00080054021644800F05EFB45EAC0006349A2
:1018D00008706348007801286FD15E480078097865
:1018E00088426BD15B484078012817D0594840782E
:1018F000022813D05748407803280FD05548407825
:1019000005280BD053484078062807D05148407826
:101910000F2803D04F484078102871D14D48C07827
:101920004C49897840EA01204649088008460088E9
:10193000B0F57A7F53DA4B480088801E81B2454863
:10194000FFF711FB4249088046480088401E414984
:10195000095C44480088801E3E4A105C41EA00242D
:101960003B480088A0422AD110464078052814D070
:1019700006DC01280ED0022809D003281CD112E071
:10198000062813D00F280BD0102815D111E0FFF72F
:10199000BDFE11E0FFF700FE0EE0FFF7ABFD0BE030
:1019A000FFF730FD08E0FFF78AFC05E0FFF748FC91
:1019B00002E0FFF7D6FB00BF31E03FE037E025480B
:1019C00000781F4908702348407840F08000487034
:1019D0000420887003211A48FFF78FFB1FE01D4881
:1019E0000078174908701B48407840F08000487024
:1019F0000220887003211248FFF77FFB0FE0FFE70A
:101A0000144800780E4908701248407840F0800071
:101A100048700120887003210948FFF76EFB1248C7
:101A2000006808B9012000E000200F49086000208C
:101A30000B4908700B4908800C49086070BD000014
:101A4000B829002060000020B8310020620000208A
:101A500064000020B8210020001001404500002053
:101A60004A00002048000020B48121429C8122428B
:101A700010B56FF0040000F074F92E4800682E498C
:101A8000B0FBF1F02D4908700846007800EB4001EA
:101A9000C1EBC0104FF6FF7101EAC0002849088071
:101AA00010BD0146254A12784A434FF0E0235A619F
:101AB00000229A611A46126942F001021A6100BFBF
:101AC0004FF0E022106900F001021AB100F48032F8
:101AD000002AF5D04FF0E022126922F001024FF007
:101AE000E0231A6100229A6170470146144A128865
:101AF0004A434FF0E0235A6100229A611A46126964
:101B000042F001021A6100BF4FF0E022106900F0BC
:101B100001021AB100F48032002AF5D04FF0E02221
:101B2000126922F001024FF0E0231A6100229A614B
:101B3000704700000000002000127A0066000020BC
:101B400068000020014600BF704700BF494A128864
:101B500002F04002002AF9D0C2B2464B1B1D1A8087
:101B6000704710B586B00446012144F2040000F02D
:101B700033FC4FF40070ADF8140003208DF816000C
:101B800018208DF8170005A93B4800F069F94FF4BB
:101B90008060ADF8140004208DF8170005A93648C0
:101BA00000F05EF925208DF8000003208DF801007B
:101BB0008DF8020001208DF80300684600F087F8D8
:101BC00001940020ADF80800ADF80A00ADF80C0053
:101BD000ADF810000C20ADF80E0001A9254800F06A
:101BE000A2FC012240F22551224800F034FD0121DF
:101BF000204800F024FD06B010BD10B540F225517C
:101C00001C4800F00DFE10B31A4800F089FDC4B264
:101C10001A48008800F40040C8B91848008800F449
:101C2000804060B10A2C03D000201449088020E0D5
:101C30001248008840F400401049088019E00D2C3B
:101C400006D10E48008840F480400C49088010E01E
:101C50000A480088C0F30D0009490C540748008861
:101C6000401C0649088008460088C72801DD00207E
:101C7000088010BD003801400008014070000020BD
:101C8000784400200948804709480047FEE7FEE7FE
:101C9000FEE7FEE7FEE7FEE7FEE7FEE7FEE7FEE71C
:101CA00004480549054A064B70470000F303000845
:101CB00031010008A0450020A04B0020A0470020D3
:101CC000A047002031490143314A1160704770B587
:101CD000002100230F22C47804B32D4C246804F49F
:101CE000E064C4F5E064210AC1F10403CA40447809
:101CF00004FA03F18478144021430901254C067845
:101D0000A155047804F01F050124AC4005786D113D
:101D1000AD0005F1E025C5F8004109E0047804F0C4
:101D20001F050124AC401C4D0678761145F826406D
:101D300070BD1A4A0A400243154B1B1F1A607047B8
:101D400039B1134A121D12680243114B1B1D1A6050
:101D500006E00F4A121D126882430D4B1B1D1A60CC
:101D60007047042808D14FF0E021096941F00401CF
:101D70004FF0E022116107E04FF0E021096921F006
:101D800004014FF0E0221161704700000000FA05E5
:101D90000CED00E000E400E080E100E080FFFF1FC8
:101DA00010B50446CC48844208D10121042000F03B
:101DB0002DFB0021042000F029FB46E0C7488442A7
:101DC00008D10121082000F021FB0021082000F0AB
:101DD0001DFB3AE0C248844208D10121102000F0E6
:101DE00015FB0021102000F011FB2EE0BD488442BD
:101DF00008D10121202000F009FB0021202000F063
:101E000005FB22E0B848844208D10121402000F0BF
:101E1000FDFA0021402000F0F9FA16E0B3488442B0
:101E200008D10121802000F0F1FA0021802000F08B
:101E3000EDFA0AE0AE48844207D10121801500F096
:101E4000E5FA0021A01500F0E1FA10BD10B501215E
:101E5000084600F0DBFA0021012000F0D7FA10BD9F
:101E60002DE9F04102460025002600200023002431
:101E7000002791F803C00CF00F0591F803C00CF097
:101E8000100CBCF1000F03D091F802C04CEA05051C
:101E900091F800C0BCF1000F31D0146800202BE095
:101EA0004FF0010C0CFA00F3B1F800C00CEA030685
:101EB0009E4220D183004FF00F0C0CFA03F7BC4375
:101EC00005FA03FC4CEA040491F803C0BCF1280FA6
:101ED00006D14FF0010C0CFA00FCC2F814C00AE065
:101EE00091F803C0BCF1480F05D14FF0010C0CFA7A
:101EF00000FCC2F810C0401C0828D1D31460B1F80F
:101F000000C0BCF1FF0F34DD546800202EE000F16A
:101F1000080C4FF0010808FA0CF3B1F800C00CEA05
:101F200003069E4221D183004FF00F0C0CFA03F7F9
:101F3000BC4305FA03FC4CEA040491F803C0BCF16D
:101F4000280F05D100F1080C08FA0CF8C2F814802B
:101F500091F803C0BCF1480F07D100F1080C4FF015
:101F6000010808FA0CF8C2F81080401C0828CED3EB
:101F70005460BDE8F0814FF6FF710180022181704D
:101F80000421C17070470246002093680B400BB1DA
:101F9000012000E0002070470146886880B2704749
:101FA00002460020D3680B400BB1012000E0002066
:101FB00070470146C86880B270470161704741614F
:101FC00070470AB1016100E041617047C16070472C
:101FD0004FF480320A438261816182618269826941
:101FE000704702460020434B18684FF68073184034
:101FF00040EA021008433F4B186070473E49C861F1
:102000007047F0B50A46002300240021002500F0A7
:102010000046B6F1004F02D1364EF16901E0354E6F
:102020007168C0F3034583B200F44016B6F5401F53
:1020300008D121F070612F4E766826F070662D4F22
:102040007E6012E000F48016B6F5801F06D10326EC
:1020500006FA05F4A14341F0706106E0460D360131
:1020600003FA06F6B14341F0706122B1460D360124
:1020700003FA06F6314300F00046B6F1004F02D1F4
:102080001C4EF16101E01B4E7160F0BD30B50022C5
:102090008B071C0F0F2303FA04F2164B08338C1026
:1020A00053F824309343134C08348D1044F82530F2
:1020B00023468C1053F824308C07240F00FA04F4C4
:1020C00023430C4C08348D1044F8253030BD0A49A8
:1020D000DC3108607047000000080140000C01403E
:1020E000001001400014014000180140001C014094
:1020F000002001400000014000002042DF4800684D
:1021000040F00100DD49086008464068DC490840AD
:10211000DA49486008460068DA490840D74908604B
:102120000846006820F4802008600846406820F4D3
:10213000FE0048604FF41F0088607047CF4909686F
:1021400021F48031CD4A11601146096821F48021C3
:102150001160B0F5803F03D0B0F5802F0ED106E0BE
:10216000C649096841F48031C44A116007E0C34997
:10217000096841F4A021C14A116000E000BF00BF1E
:10218000704710B501460022002300204A11012AA1
:1021900002D1BA4C236806E0022A02D1B74C236A66
:1021A00001E0B64C636A01F01F02012494401C4018
:1021B0000CB1012000E0002010BD38B500200090D7
:1021C0000024002500BF3120FFF7DBFF0546009803
:1021D000401C00900098B0F5A06F01D0002DF2D007
:1021E0003120FFF7CEFF08B1012400E00024204693
:1021F00038BD01460020A14A106820F0F80040EAEE
:10220000C10010607047A049086070470246002076
:102210009A4B586820F47C1042EA01031843974B0C
:102220005860704798490866704701460020934AF5
:10223000506820F003000843506070478F484068A2
:1022400000F00C007047014600208C4A506820F0D6
:10225000F00008435060704701460020874A5068EC
:1022600020F4E06008435060704701460020834A34
:10227000506820F4605040EAC1005060704729B1B6
:102280007E4A527A02437D4B5A7204E07B4A527A6C
:1022900082437A4B5A7270477B49D8310860704745
:1022A00001460020754A506820F4404008435060C1
:1022B00070470021714A20321170704A82F8201054
:1022C000012802D004280AD104E001216B4A2032FF
:1022D000117005E00521694A2032117000E000BF4D
:1022E00000BF70476949086070476449096A014343
:1022F000624A11627047654944390860704730B5D9
:1023000000210022002400235C4D6D6805F00C01C3
:1023100021B1042905D0082923D105E05C4D0560D1
:1023200022E05B4D05601FE0544D6D6805F47012AE
:10233000524D6D6805F48034022505EB92421CB9BC
:10234000544D554305600BE04C4D6D6805F4003568
:102350001DB1504D5543056002E04D4D554305609C
:1023600002E04B4D056000BF00BF444D6D6805F0B5
:10237000F0010909484D6B5C0568DD4045603F4D43
:102380006D6805F4E061090A434D6B5C4568DD400A
:1023900085603A4D6D6805F46051C90A3E4D6B5C2D
:1023A0004568DD40C560354D6D6805F44041890BD9
:1023B0003A4D6B5CC568B5FBF3F5056130BD29B1DD
:1023C0002E4A526902432D4B5A6104E02B4A52694E
:1023D00082432A4B5A61704729B1284A92690243C5
:1023E000264B9A6104E0254A92698243234B9A6105
:1023F000704729B1214AD2690243204BDA6104E0D7
:102400001E4AD26982431D4BDA61704729B11B4ACB
:10241000D2680243194BDA6004E0184AD26882435A
:10242000164BDA60704729B1144A12690243134B04
:102430001A6104E0114A12698243104B1A61704715
:1024400012494039086070470F49C86470470B490A
:10245000C87170470948406A40F080700749486277
:10246000704701460020054A92680A400AB10120DF
:1024700000E0002070470149887270470010024058
:102480000000FFF8FFFFF6FE0000424280044242D7
:1024900000127A0000093D00720000208200002036
:1024A00010B50446FB48844209D101218803FFF797
:1024B000ADFF00214FF48040FFF7A8FF32E0F6485F
:1024C000844209D101214804FFF7ADFF00214FF4F8
:1024D0000030FFF7A8FF25E0F048844209D1012130
:1024E0008804FFF7A0FF00214FF48020FFF79BFF37
:1024F00018E0EB48844209D10121C804FFF793FF9B
:1025000000214FF40020FFF78EFF0BE0E5488442E6
:1025100008D101210805FFF786FF00214FF4801044
:10252000FFF781FF10BD2DE9F04786B005460E4646
:102530000024A24600BFA1460027B08900B100BF19
:102540002F462C8A4CF6FF700440F08804432C82FE
:10255000AC894EF6F3100440B08831890843718984
:1025600008430443AC81AC8A4FF6FF400440B08975
:102570000443AC8201A8FFF7C2FEC648874202D1DD
:10258000DDF810A001E0DDF80CA0A88900F40040FF
:1025900040B10AEBCA0000EB0A1031684900B0FBF9
:1025A000F1F807E00AEBCA0000EB0A103168890075
:1025B000B0FBF1F86420B8FBF0F0040120096421BD
:1025C00001FB1089A88900F4004040B1322000EBE3
:1025D000C900B0FBF1F000F00700044308E032202E
:1025E00000EB09106421B0FBF1F000F00F00044390
:1025F0002C8106B0BDE8F0874FF416510160002130
:102600008180C18001810C2141810021818170473D
:1026100010B502460020108A4FF2FF0318400B88C5
:102620004C8823438C882343CC882343184310824F
:1026300010BD0021018041808180C180704721B19F
:10264000828942F40052828104E082894DF6FF7350
:102650001A4082817047F0B5034600240026002509
:10266000002040F66A17B94200D100BF1846C1F3F6
:10267000421401F01F06012707FA06F5012C01D1CB
:102680000C3004E0022C01D1103000E014301AB1FB
:1026900007682F43076002E00768AF430760F0BD9B
:1026A0001AB1838A0B43838202E0838A8B4383823D
:1026B0007047028A4FF6F0731A400282028A0A4378
:1026C0000282704782894FF2FF731A4082818289A9
:1026D0000A438281704721B1828942F002028281DD
:1026E00004E082894FF6FD731A4082817047028AA6
:1026F0004FF6DF731A400282028A0A430282704751
:1027000021B1028A42F48042028204E0028A4BF63E
:10271000FF731A4002827047C1F30802828070473B
:1027200001468888C0F308007047818941F00101A3
:1027300081817047028BD2B20283028B42EA01226E
:1027400002837047028B02F47F420283028B0A43AA
:102750000283704721B1828A42F02002828204E023
:10276000828A4FF6DF731A408282704721B1828AD3
:1027700042F01002828204E0828A4FF6EF731A4020
:102780008282704721B1828A42F00802828204E08C
:10279000828A4FF6F7731A408282704721B182898C
:1027A00042F40042828103E08289C2F30E028281F8
:1027B000704721B1828A42F40062828204E0828AF8
:1027C0004FF2FF731A4082827047828A4FF6FB7382
:1027D0001A408282828A0A438282704721B1828AA9
:1027E00042F00202828204E0828A4FF6FD731A40B0
:1027F0008282704702460020B1F5007F00D100BF01
:1028000013880B400BB1012000E00020704701F459
:102810000072B2F5007F00D100BFCA43028070474A
:1028200070B50246002400230025002040F66A16F9
:10283000B14200D100BFC1F3421501F01F030126D0
:1028400006FA03F3012D02D19689334006E0022DEA
:1028500002D1168A334001E0968A33400C120126D9
:1028600006FA04F41688344013B10CB1012000E0DC
:10287000002070BD10B50022002340F66A14A1426A
:1028800000D100BF0A1201249440A3B2DC430480AB
:1028900010BD0000003801400044004000480040E6
:1028A000004C00400050004010B50446FE488442F1
:1028B00008D10121C014FFF7A9FD0021E014FFF7A2
:1028C000A5FDC4E0B4F1804F08D101210846FFF70F
:1028D000AAFD00210120FFF7A6FDB8E0F3488442DD
:1028E00008D101210220FFF79EFD00210220FFF701
:1028F0009AFDACE0EE48844208D101210420FFF7A4
:1029000092FD00210420FFF78EFDA0E0E9488442FB
:1029100008D101210820FFF786FD00210820FFF7DC
:1029200082FD94E0E448844208D101211020FFF7A1
:102930007AFD00211020FFF776FD88E0DF48844211
:1029400008D101212020FFF76EFD00212020FFF794
:102950006AFD7CE0DA48844208D101214014FFF787
:1029600055FD00216014FFF751FD70E0D548844209
:1029700009D10121C804FFF749FD00214FF40020CF
:10298000FFF744FD63E0D048844209D101210805E6
:10299000FFF73CFD00214FF48010FFF737FD56E0B4
:1029A000CA48844209D101214805FFF72FFD0021C3
:1029B0004FF40010FFF72AFD49E0C548844208D1D2
:1029C00001214020FFF72FFD00214020FFF72BFDC4
:1029D0003DE0C048844208D101218020FFF723FD5B
:1029E00000218020FFF71FFD31E0BB48844208D161
:1029F00001218015FFF717FD0021A015FFF713FD3A
:102A000025E0B648844209D101210804FFF7FEFC05
:102A100000214FF48030FFF7F9FC18E0B048844201
:102A200009D101214804FFF7F1FC00214FF40030E7
:102A3000FFF7ECFC0BE0AB48844208D1012188048D
:102A4000FFF7E4FC00214FF48020FFF7DFFC10BD0E
:102A500000220288944B98420ED0994B98420BD09A
:102A6000B0F1804F08D0914B984205D0904B9842DE
:102A700002D0904B984204D14FF68F731A404B8886
:102A80001A438D4B984207D08C4B984204D04FF696
:102A9000FF431A40CB881A4302808B8883850B88BA
:102AA0000385814B98420BD0854B984208D08B4BC5
:102AB000984205D08A4B984202D08A4B984201D165
:102AC0000B7A038601238382704770B500240022AD
:102AD0000023058C4FF6FE7635400584028C8388F2
:102AE000048B4FF68F752C40B51E2C400D882C435F
:102AF000751E2A400D892A434D882A436A4DA842F3
:102B00000BD06F4DA84208D0744DA84205D0744D2B
:102B1000A84202D0734DA84213D14FF6F7752A4050
:102B20004D892A434FF6FB752A408D882A434FF67C
:102B3000FF652B404FF6FF552B408D892B43CD89E8
:102B40002B4383800483CD888586028470BD70B555
:102B5000002400220023058C4FF6EF7635400584D3
:102B6000028C8388048B48F6FF752C404FF6FF4596
:102B70002C400D884FF6FF7606EA05252C434FF6CC
:102B8000DF752A400D8906EA05152A434D8806EAB5
:102B900005152A43444DA84202D0494DA8421DD1F3
:102BA0004FF67F752A404D894FF6FF7606EA0515E8
:102BB0002A434FF6BF752A408D8806EA05152A4339
:102BC0004FF6FF352B404FF2FF752B408D8906EAFB
:102BD00085052B43CD8906EA85052B438380048335
:102BE000CD880587028470BD70B5002400220023C3
:102BF000058C4FF6FF6635400584028C8388848BF4
:102C00004FF68F752C404FF6FC752C400D882C43E9
:102C10004FF6FF552A400D894FF6FF7606EA052547
:102C20002A434D8806EA05252A431F4DA84202D0B3
:102C3000234DA8421DD14FF2FF752A404D894FF612
:102C4000FF7606EA05252A434FF6FF352A408D8890
:102C500006EA05252A434EF6FF752B404DF6FF7513
:102C60002B408D8906EA05152B43CD8906EA05150B
:102C70002B4383808483CD888587028470BD70B5A3
:102C8000002200230024058C4EF6FF763540058493
:102C9000038C8488828B48F6FF752A404FF6FF45E7
:102CA0002A400D8820E00000002C01400004004074
:102CB00000080040000C00400010004000140040DC
:102CC00000340140004C01400050014000540140DC
:102CD00000180040001C004000200040004001405F
:102CE00000440140004801404FF6FF7606EA052502
:102CF0002A434DF6FF752B400D8906EA05352B4317
:102D00004D8806EA05352B43FA4DA84202D0FA4D0C
:102D1000A84208D14BF6FF752C408D894FF6FF76FF
:102D200006EA85152C4384808283CD88A0F8405024
:102D3000038470BD828B4FF2FF331A408283828BF3
:102D40004FF6FF7303EA01231A4382837047F0B5FD
:102D50000C461546002200210026078C4EF6FF7C0B
:102D600007EA0C070784828B018C4FF6FF7707EA8E
:102D7000043640F6FF473A404FF6FF7707EA05274B
:102D80003A434FF6FF7707EA03373A43D94FB84241
:102D90000ED0D94FB8420BD0B0F1804F08D0D74FEA
:102DA000B84205D0D64FB84202D0D64FB84206D16D
:102DB0004DF6FF77394046F48057394305E047F632
:102DC000FF57394044F48057394382830184F0BD72
:102DD000828B4FF6F3731A408283828B0A4382837D
:102DE0007047F0B50C461546002200210026078CDE
:102DF0004FF6FF6C07EA0C070784828B018C4FF6B5
:102E0000FF7707EA04264FF60C773A404FF6FF7734
:102E100007EA03172F433A43B64FB8420ED0B64FD6
:102E2000B8420BD0B0F1804F08D0B44FB84205D0B3
:102E3000B34FB84202D0B34FB84206D14FF6FF5756
:102E4000394046F48077394305E04FF2FF57394067
:102E500044F48077394382830184F0BD028B4FF2C2
:102E6000FF331A400283028B4FF6FF7303EA0123FC
:102E70001A4302837047F0B50C4615460022002124
:102E80000026078C4FF6EF7C07EA0C070784028BBD
:102E9000018C4FF6FF7707EA041640F6FF473A40E9
:102EA0004FF6FF7707EA03373A434FF6FF7707EA13
:102EB00005273A438F4FB8420ED08F4FB8420BD000
:102EC000B0F1804F08D08D4FB84205D08C4FB8423A
:102ED00002D08C4FB84206D14FF6DF77394046F02A
:102EE0001007394305E04FF65F77394044F010078B
:102EF000394302830184F0BD028B4FF6F3731A400D
:102F00000283028B0A4302837047F0B50C461546D4
:102F100000220021068C4FF6FE773E400684028B8D
:102F2000018C4FF60C7632407E1C06EA03162E43C7
:102F30003243704EB0420ED06F4EB0420BD0B0F163
:102F4000804F08D06D4EB04205D06D4EB04202D0D9
:102F50006C4EB04206D14FF6FD76314044F001068A
:102F6000314305E04FF6F576314044F00106314338
:102F700002830184F0BD70B505460C465D4885426C
:102F80000ED05D4885420BD0B5F1804F08D05B482C
:102F9000854205D05A48854202D05A48854200D120
:102FA00000E000BF208850B92389A28861882846A4
:102FB000FFF7ABFFE1882846FFF79EFF25E020885A
:102FC00004280AD12389A28861882846FFF753FF85
:102FD000E1882846FFF742FF17E0208808280AD139
:102FE0002389A28861882846FFF7FBFEE1882846EE
:102FF000FFF7EEFE09E02389A28861882846FFF7E3
:10300000A6FEE1882846FFF795FE70BD2DE9F04148
:1030100005460C4600260127608808B9022600E014
:103020000026A088012801D1022700E0012720887E
:10303000A0B92389A28861882846FFF766FFE18846
:103040002846FFF759FF23893A4631462846FFF7BD
:1030500012FFE1882846FFF701FF13E02389A288C9
:1030600061882846FFF707FFE1882846FFF7F6FE4C
:1030700023893A4631462846FFF747FFE18828462C
:10308000FFF73AFFBDE8F0810A884B881A438B8826
:103090001A43CB881A430B891A434B891A438B89ED
:1030A0001A43A0F8442070474FF6FF718180002139
:1030B0000180C18041800172704700210180418000
:1030C0008180C180018141818181C181704700215E
:1030D00001804180012181800021C18001817047F0
:1030E0000021018041808180C180018141818181F5
:1030F00070470000002C01400034014000040040F3
:1031000000080040000C004021B1028842F001029A
:10311000028004E002884FF6FE731A400280704776
:1031200031B1B0F8442042F40042A0F8442005E058
:10313000B0F84420C2F30E02A0F8442070471AB140
:1031400083890B43838102E083898B4383817047AA
:103150008182704741EA0203A0F8483070471AB1F3
:1031600083890B43838102E083898B43838170478A
:1031700001894FF6F8721140018170470A4600211B
:1031800001894FF68F73194011430181704730B5A3
:1031900004460D4629462046FFF7F0FF208940F0FF
:1031A0000700208130BD2DE9F04104460D4616464A
:1031B0001F46602D06D13B46012231462046FFF7CF
:1031C0005AFE05E03B46012231462046FFF79DFEB0
:1031D00029462046FFF7D2FF208940F007002081D2
:1031E000BDE8F08130B50C4600210189C9B24FF627
:1031F000FF7505EA0325154325432943018130BDA9
:103200002DE9F04105460E461746984600244346F0
:103210003A4631462846FFF7E5FF2C894FF6F8700D
:10322000044044F007044FF68F70044044F07004EB
:103230002C81BDE8F081F0B504460D4616461F46C8
:103240003B46324629462046FFF7CCFF208940F412
:1032500080402081F0BD0185828270470A460021AE
:1032600001884FF68F731940114301807047F0B504
:103270000C4615461E460021002200230189028BC0
:10328000038C4FF6F877394021434FF6FC473A401C
:1032900040F201173A434FF6DD773B404FF6FF7798
:1032A00007EA06172F433B43018102830384F0BDE5
:1032B0000A460021018B4FF68F7319401143018399
:1032C00070470A460021018B48F6FF7319404FF6FC
:1032D000FF7303EA02231943018370470A46002162
:1032E000818B4FF68F7319401143818370470A46D3
:1032F0000021818B48F6FF7319404FF6FF7303EAF4
:10330000022319438183704721B1028842F0800271
:10331000028004E002884FF67F731A4002807047F3
:1033200021B1828842F00402828004E082884FF654
:10333000FB731A408280704721B1828842F00802F4
:10334000828004E082884FF6F7731A4082807047CB
:1033500021B1828842F00102828004E082884FF627
:10336000FE731A40828070470A460021018B4FF697
:10337000F77319401143018370470A460021018BFE
:103380004FF2FF7319404FF6FF7303EA022319430C
:10339000018370470A460021818B4FF6F77319406D
:1033A0001143818370470A460021818B4FF2FF73DE
:1033B00019404FF6FF7303EA0223194381837047D4
:1033C0000A460021018B4FF6FB731940114301831C
:1033D00070470A460021018B4FF6FF3319404FF624
:1033E000FF7303EA02231943018370470A46002151
:1033F000818B4FF6FB7319401143818370470A4656
:103400000021818B4FF6FF3319404FF6FF7303EA1B
:1034100002231943818370470A460021018B4FF62E
:103420007F7319401143018370470A460021018BC5
:10343000C1F30E014FF6FF7303EA02231943018320
:1034400070470A460021818B4FF67F731940114364
:10345000818370470A460021818BC1F30E014FF62C
:10346000FF7303EA02231943818370470A46002150
:10347000018C4FF6FD7319401143018470470A46D1
:103480000021018C4FF6F7731940114301847047F6
:103490000A460021018C4FF6DF7319404FF6FF7387
:1034A00003EA02131943018470470A460021018C84
:1034B0004FF67F7319404FF6FF7303EA0213194367
:1034C000018470470A460021018C4FF6FF531940D2
:1034D0004FF6FF7303EA02231943018470470A463B
:1034E0000021018C4FF2FF7319404FF6FF7303EA7E
:1034F00002231943018470470A460021018C4DF6CE
:10350000FF7319404FF6FF7303EA02331943018436
:10351000704730B5002301248C40A3B2048C9C4337
:103520000484048C02FA01F5ADB22C43048430BD4E
:1035300030B5002304248C40A3B2048C9C43048443
:10354000048C02FA01F5ADB22C43048430BD70B591
:103550000346002000241846183001258D40ACB2E7
:103560001D8CA5431D8409B1082909D100EB610018
:10357000056825F0700505600568154305600EE0D7
:103580000D1FC5F34E052844056825F4E045056088
:1035900005684FF6FF7606EA02263543056070BDE2
:1035A00021B1028842F00202028004E002884FF654
:1035B000FD731A400280704721B1028842F0040274
:1035C000028004E002884FF6FB731A4002807047C5
:1035D00021B1828842F08002828004E082884FF626
:1035E0007F731A408280704702884FF6F7731A4043
:1035F000028002880A430280704782884FF68F73E8
:103600001A40828082880A438280704702894FF67E
:10361000F8731A40028102890A43028170470289C5
:103620004FF67F731A40028102890A430281704774
:103630008184704781857047818670470187704714
:1036400081877047A0F84010704702884FF6FF430B
:103650001A40028002880A43028070470146888E21
:1036600070470146088F70470146888F70470146B2
:10367000B1F8400070470146888C70470146088DBC
:10368000704702460020138A0B400BB1012000E076
:1036900000207047CA430282704730B502460020BE
:1036A00000230024158A05EA0103958905EA01042F
:1036B00013B10CB1012000E0002030BDCA430282EA
:1036C000704770470FB4044910B503AA029800F080
:1036D000BBF810BC5DF814FB6C000020704770470D
:1036E0007047704770B5044685690068C10601D50A
:1036F000302600E02026C00707D070BDD4E90121A4
:1037000030469047206A401C20626D1EF6D570BD81
:1037100070B5044685690078C00707D170BDD4E94B
:10372000012120209047206A401C20626D1EF6D5A2
:1037300070BD09684A0501D540B27047C905FCD57E
:1037400000B2704709684A0501D5C0B27047C90583
:10375000FCD580B2704770B50C460546012A05D0ED
:103760002878800600D5EA69002302E0012305E0FD
:103770005B1C934202D2E05C0028F9D1A869E618EC
:10378000C01AA861286A184428622846FFF7AAFFD1
:1037900004E0D5E9012114F8010B9047B442F8D3B5
:1037A0002846FFF7B5FF70BD2DE9F041064600241D
:1037B00010687529314616A510D0FFF7BAFF00280A
:1037C00002DA404213A507E031688A0701D512A545
:1037D00002E0490704D511A5012401E0FFF7B2FF7B
:1037E00000210A2206F1240709E0B0FBF2FCB0FB3D
:1037F000F2F302FB1C00303078541846491C0028B4
:10380000F3D123462A463046BDE8F04100F055BAD0
:10381000000000002D0000002B0000002000000030
:1038200011680268006A530501D508700AE0D305E3
:1038300001D5088006E0130603D5C217C1E90002CE
:1038400000E0086001207047074B70B50D467B44CF
:1038500000F09FFC0446284600F0DAFC10B14FF05F
:10386000FF3070BD204670BDF9E2FFFF2DE9FF5F1C
:1038700015468A460446DFF8AC80F8440027D8E9AC
:1038800000103E46CDE9001010E03AF816106A46E6
:1038900002A800F0C1FC411C07D02178890603D59D
:1038A000E269391891420DD80744761C20788006C9
:1038B00002D5E069B84205DDAE42E6DB3AF8160013
:1038C0000028E2D1A069C01BA0612046FFF70AFFD3
:1038D000D8E90010CDE90010002017E03AF81810E0
:1038E0006A4602A800F098FCB0F1FF3F81460BD079
:1038F00000250DF1080B05E0D4E901211BF80500B6
:1039000090476D1C4D45F7D308F10100B042804649
:10391000E4DB206A384420622046FFF7F9FEBDE868
:10392000FF9F0000361800002DE9F0418046D21DAF
:1039300022F007020025D2E90002F52915A614D0CD
:10394000011E72F1000106DA0023D0EB030063EBE5
:10395000020211A608E0D8F800108B0701D50FA6C7
:1039600002E0490701D50EA601251146002408F101
:10397000240704E000F05CF930323A55641C50EA48
:103980000102F7D12B46324621464046BDE8F041C0
:1039900000F093B9000000002D0000002B00000093
:1039A0002000000030B4002100F1240408E002F0FF
:1039B0000705D208303542EA4372DB086554491CDA
:1039C00052EA0305F3D10468002310A2250708D5A5
:1039D00004F020040C4304D0C46901230CA2641E2B
:1039E000C46130BC00F069B910B5044621461068C6
:1039F000FFF7A8FE02462046BDE810400023D1E7AD
:103A0000D21D22F00701D1E90023CBE7000000001E
:103A100030000000F0B40D460188090502D5214CA4
:103A20007C4402E01F4C7C440E34002100F124064B
:103A300008E002F00F071209E75D42EA03721B0972
:103A40007754491C52EA0307F3D102780023120786
:103A500004D5702D06D009B1022311342246F0BCE2
:103A600000F02BB901231034F8E770B504460D4679
:103A700021461068FFF766FE024629462046BDE84B
:103A800070400023C6E7D21D22F00703D3E90023CC
:103A9000C0E70368126843F0200303600823C36192
:103AA0000023B7E7981600002DE9F05F8946044629
:103AB0004FF0000ADFF874B1FB44C0F820A02046A4
:103AC000E1688847002874D0252806D0D4E9012170
:103AD0009047206A401C2062F1E700265F4620469E
:103AE000E16888472028054607DB312D05D2781983
:103AF00010F8200C08B10643F1E7B00701D526F015
:103B00000406C4F81CA00027C4F818A02A2D09D068
:103B1000284601F09AF838B304EB8708303DC8F81E
:103B2000185019E059F8041B204604EB87029161F4
:103B3000E1688847012F054618D1E069002820DA9E
:103B400026F020061DE0D8F8180000EB800005EBF9
:103B500040003038C8F818002046E168884705461C
:103B600001F073F80028EED1012F0AD02E2D08D1D4
:103B70002046E16888477F1C0546022F46F0200654
:103B8000C4DBA069002803DA404246F00106A061C8
:103B9000F00701D026F010066C2D0BD0682D09D04F
:103BA0004C2D39D06A2D35D0742D35D07A2D33D0A7
:103BB00016E038E0E1682F4620468847B8420546BF
:103BC00009D16C2F26D04FF48060E168064320466F
:103BD0008847054604E06C2F1AD04FF480700643E6
:103BE0000DB3A5F14100192802D8203546F400662E
:103BF0004A462946204626604E46FCF7D3FA80B155
:103C000001280BD0F61D26F0070000F1080956E741
:103C10004020E4E78020D8E70020D6E706F1040939
:103C20004DE7284652E7206ABDE8F09F28160000BD
:103C300030B5B0F10A024FEA900E71F100034EEA7E
:103C4000817EB0EB0E0061EB91014FEA101E4EEA4F
:103C5000017E10EB0E0041EB11114FEA102E4EEADF
:103C6000016E10EB0E0041EB11214FEA104E4EEAAF
:103C7000014E10EB0E0041EB1141401841F10001E3
:103C80004FEAD00040EA41704FEAD10110EB8005C5
:103C90004FEA810444EA907444EB01046D1944EB4B
:103CA0000404521BA3414FF0000348BF0A3200D561
:103CB00030BD401C41F1000130BD2DE9F0470D46FB
:103CC00099469246044600F124080168880604D506
:103CD000E06921F01001216000E00120A84201DD2F
:103CE000471B00E00027A1697A1902EB0900081AB6
:103CF000A0612078C00602D42046FFF7F3FC00261E
:103D000008E0D4E901211AF806009047206A401C17
:103D1000761C20624E45F4DB2078C0060AD520468A
:103D2000FFF7E0FC06E0D4E9012130209047206A4B
:103D3000401C2062381EA7F10107F4DC07E0D4E93B
:103D4000012118F805009047206A401C2062281EB7
:103D5000A5F10105F3DC2046FFF7DAFC2078000628
:103D600002D50220BDE8F0870120FBE770472DE96E
:103D7000FF4F0C461E464FF0FF378BB0D2E90001D3
:103D8000DDF860800A908A46C1F30A5505B93D46C0
:103D9000002108464FF00000BAF1000F00F4400087
:103DA00005DA00EB80004FF4400101EA50004FEAD1
:103DB0009059B9F1010F00DDB9460A9850EA4A005E
:103DC0000ED044F61050A5F2FF3545432F14B8F13C
:103DD000000F1ED07542291E1EDDC9F100021CE035
:103DE000B8F1010F4FF0000001D0302103E0F243A1
:103DF00005E02154401CB042FBDB3046002200218C
:103E000021540B99C1F80880C1E900200FB0BDE82A
:103E1000F08FBD1B6D1CDEE74A4600DA694206A83A
:103E200000F08CFA06AB93E8070003AB83E80700C9
:103E300050460A9900F03AFB8DE80700A0F50050C3
:103E40001F3800900398002D09DD42F21F014A46F9
:103E5000084403A90390684600F099FD08E0A0F526
:103E600000504A461F3803A90390684600F0A3FD9E
:103E70008DE807000004000C03D04FF0FF3041082C
:103E800000E01046B8F1000F03D000220092154662
:103E90001EE0751E05D4FFF7CBFE303262556D1E55
:103EA000F9D5B3460122084302D000227F1C04E06A
:103EB0002078302801D100227F1E002A099786D061
:103EC0001DE0112D07DAFFF7B3FE303262556D1C8D
:103ED00050EA0102F5D1084302D00098C8B10EE0C3
:103EE0000021681E05E0235C625C63542254401E7E
:103EF000491C8142F7DBAB46A81B401E09900020FD
:103F000004F80B000B98099AC0F80880C0E9002B50
:103F10007CE711264FF0000859E72DE9F04F88465D
:103F20000446D21D22F0070191B0D1E90001CDE98C
:103F30000A0100F076FE02460B98C00F01D02D203A
:103F400007E02068810701D52B2002E0202101EA4B
:103F5000C000032A099001D0072A05DB0346414629
:103F6000204600F0ABF90BE12078800601D5E0692E
:103F700000E00620B8F1650F814606D0B8F1660F63
:103F800018D0B8F1670F70D131E00020B9F1110FEE
:103F9000009001DB112301E009F101030AAA01A944
:103FA0000CA8FFF7E4FEDDE90C70002609F101051D
:103FB000834647E001204B4600904FF000470AAA95
:103FC00001A90CA8FFF7D3FEDDE90DB00C995D4601
:103FD000002610B909F101000D18B9EB050003D452
:103FE000C0F1FF3609F10105A5EB09002BE0B9F19D
:103FF000010F01DA4FF001090020B9F1110F009013
:10400000484601DD112300E003460AAA01A90CA8D5
:10401000FFF7ADFEDDE90C704D46002683462078A3
:1040200000070AD4AB4500DA5D4601A8012D04DD86
:10403000411911F8011C302907D04F4502DA17F158
:10404000040F04DA012082460FE06D1EEEE7002F18
:1040500002DCED1B3E4403E0781CA84200DD7D1C21
:10406000B81B00F1010A4FF000472078000703D485
:10407000AA4501DB4FF0FF3A0021B7F1004F0DF1E7
:1040800043088DF8431024D002202B23002F01DA9F
:104090007F422D230A21021EA0F1010000DC5FB146
:1040A00097FBF1FC97FBF1F201FB1C7C17460CF12E
:1040B000300C08F801CDEEE7A8F10100037021886B
:1040C000090501D5452100E06521A0F1010800F8AE
:1040D000011C09980FA9A1EB0807FF1D00B10120E1
:1040E000411901EBEA70A1693844081A401EA06129
:1040F0002078C00602D42046FFF7F4FA099828B1C8
:10410000D4E901219047206A401C20622078C00633
:1041100022D52046FFF7E6FA1EE0002E04DBB34569
:1041200002DD01A8805D00E03020D4E90121904744
:10413000206A401C2062761CAAF101005FEA000A96
:104140000AD100F0B7F8C0680168405CD4E90121E9
:104150009047206A401C2062281EA5F10105DCDC86
:1041600007E0D4E9012118F8010B9047206A401CB0
:104170002062381EA7F10107F3DC2046FFF7C8FADA
:10418000032011B043E6000001694A1C026108786F
:10419000704700B58FB0CDE9013100210591054987
:1041A0007944CDE9031011466846FFF77DFC0FB056
:1041B00000BD0000E5FFFFFF10B5436913B1AFF389
:1041C000008001E0FFF7C7FA012010BD127800F16E
:1041D00024010A7000224A700122EDE711684FF0B5
:1041E000FF32E9E710B5436913B1AFF3008001E096
:1041F000FFF73CFB012010BD128800F124018284EE
:104200000022C2840122EDE711684FF0FF32E9E796
:10421000007B00F08000704770B516460C460546DE
:1042200000F040F8036893F80101012806D0FF2C44
:104230000FD8185D68B101202C7070BDD3F807014C
:104240003246214603F2071303442846BDE8704076
:1042500018474FF0FF3070BD754600F0E3F8AE46EA
:1042600005006946534620F00700854618B020B582
:10427000FDF716FDBDE820404FF000064FF00007A7
:104280004FF000084FF0000B21F00701AC46ACE8FE
:10429000C009ACE8C009ACE8C009ACE8C0098D466B
:1042A0007047000010B500F005F8001D10BD00BFFC
:1042B000D509000000487047604500202DE9F04115
:1042C0001F46044603260168072A01F4006004DB48
:1042D00008B116A505E016A503E008B115A500E094
:1042E00015A521F010002060A069C01EA0610FB1CB
:1042F000401EA0612046FFF7F5F94FB1D4E9012136
:1043000038469047206A401C2062C01C206206E0AC
:10431000206AFAE7D4E9012115F8010B9047761ECF
:10432000F8D22046FFF7F4F9BDE8F0814E414E0087
:104330006E616E00494E4600696E66002DE9F047D9
:10434000814616468AB0334878440DC88DE80D0082
:1043500030487844801C03AC0DC884E80D0041F659
:104360009B300844372190FBF1F290FBF1F5A5F169
:10437000800501FB12041B3C02D56442012000E0D1
:104380000020DFF890A080460027FA44AAF1BE0A78
:104390000DE0E00709D03246684607EB47010AEB1B
:1043A000810100F008FB8DE8070064107F1C002CE1
:1043B000EFD1184F7F44AC3F18E0E80714D007EB6B
:1043C00004100DF1180A90E80E008AE80E00C0688B
:1043D000F04201D198190890324606A903A800F0CE
:1043E000EAFA03AB83E807006D10641C002DE4D1EA
:1043F00032466946B8F1000F03A802D000F0C7FAB0
:1044000001E000F0D8FAC9E90001C9F808200AB0B3
:10441000BDE8F087280E00000446AFF30080204678
:10442000FBF723FF00487047404500204FF0013C58
:1044300050F8042B51F8043B9A4221D1A2EB0C0313
:10444000934313EACC1317D150F8042B51F8043BD3
:104450009A4215D1A2EB0C03934313EACC130BD170
:1044600050F8042B51F8043B9A4209D1A2EB0C03FB
:10447000934313EACC13DBD04FF00000704700BF2A
:10448000D01A01BAB1FA81F101F0180122FA01F053
:10449000CB40C1F12001DBB2C0B2C01A2CFA01F34B
:1044A000D11A914311EAC311E6D170475FEA400C7B
:1044B00008BF91F0000F4FEA8C234FEAC12243EA74
:1044C00051514FEA1C5018BF00F5F0404FEA300040
:1044D00018BF41F000415FEA6C5C00F02980BCF13C
:1044E000FF3F08BF40F080407047130C06BF120426
:1044F0004FF0100C4FF0000C130E04BF12020CF121
:10450000080C130F04BF12010CF1040C930F04BF2D
:1045100092000CF1020CD30F04BF52000CF1010CFD
:1045200011464FF00002A0F11F00A0EB0C007047F5
:1045300011F0004F08BF704731F000413FF4D5AF94
:104540000B0C06BF09044FF0100C4FF0000C0B0EC3
:1045500004BF09020CF1080C0B0F04BF09010CF198
:10456000040C8B0F04BF89000CF1020CCB0F04BFAD
:1045700049000CF1010CCCF12003A0EB0C0022FA55
:1045800003F302FA0CF241EA030100F10100704763
:1045900020F07F4C80EA030023F07F47ACEB070359
:1045A00003F57C5300F0004003F1FF032DE980493F
:1045B0004FEA154B09B44FEA144325EA0B4E24EA9F
:1045C00003480FF2042606EB132749083E785FEAFA
:1045D000320203FB0667C7F5000707FB06F64FEA42
:1045E00054374FEAD64606F1020607FB066CCCF1BB
:1045F000005C4FEA1C472CEA074C07FB06F40CFB57
:1046000006F504EB15464FEA961634BF00204FF02E
:1046100000404FEAD13706FB07FC4FEA1C4C0CFB6D
:104620000BF7D21B03FB0CF761EB07010CFB0EF73A
:10463000B0EB074072EB17420CFB08F734BFA2EB5C
:104640000742B2EB074261EB17414FEA0C444FEAD5
:10465000910706FB07FC4FEA1C4C0CFB0BF7B0EB79
:10466000C74072EB573203FB0CF734BFA2EBC742D3
:10467000B2EBC74261EB57310CFB0EF7B0EBC70052
:1046800072EB57720CFB08F734BFA2EBC702B2EB18
:10469000C70261EB5771039F4FEA816141EA9211B2
:1046A00004EBCC044FEAD1374FEA826206FB07FCE9
:1046B00042EA90124FEA80604FEA1C4C0CFB0BF769
:1046C000D21B03FB0CF761EB07010CFB0EF7B0EB01
:1046D000074072EB17420CFB08F734BFA2EB07420E
:1046E000B2EB074261EB17414FEA8C554FEA910755
:1046F00004EB9C2406FB07FC4FEA1C4C0CFB0BF75D
:10470000B0EBC74072EB573203FB0CF734BFA2EBA0
:10471000C742B2EBC74261EB57310CFB0EF7B0EB6F
:10472000C70072EB57720CFB08F734BFA2EBC7024D
:10473000B2EBC70261EB577115EB4C254FEA816173
:1047400041EA92114FEA82624FEAD13742EA90126F
:1047500006FB07FC44F100044FEA80604FEA1C4C62
:104760000CFB0BF7D21B03FB0CF761EB07010CFBF7
:104770000EF7B0EB074072EB17420CFB08F734BFA3
:10478000A2EB0742B2EB074261EB174115EB1C1598
:104790004FEA813141EA92414FEA823242EA904245
:1047A0004FEA80304FEA0C7644F1000448EA0343B4
:1047B0004EEA0B484FF0000EB2EB080C71EB03070A
:1047C00024BF624639464EEB0E0E4FF0000B001828
:1047D000524149414BEB0B0BB2EB080C71EB030759
:1047E0007BF1000B24BF624639464EEB0E0E4FF0B4
:1047F000000B0018524149414BEB0B0BB2EB080C7C
:1048000071EB03077BF1000B24BF624639464EEB88
:104810000E0E51EA020718BF46F0010616EB0E769F
:1048200055F1000254F1000103D5BDE88901BDE84E
:104830000088BDE88901BDE80048B619524141EB46
:104840000101A3F10103704780807F7E7D7C7B7A2C
:104850007978777676757473727171706F6E6E6D2C
:104860006C6C6B6A6A6968686766666564646363D2
:1048700062616160605F5F5E5E5D5D5C5C5B5B5A58
:104880005A595958585757565655555554545353C5
:1048900052525251515050504F4F4F4E4E4D4D4D20
:1048A0004C4C4C4B4B4B4A4A4A494949484848476B
:1048B00047474746464645454544444444434343A9
:1048C0004342424242414141002B26D4770021D04D
:1048D0001CB54FEA370703B44FF010004FF010013A
:1048E0004FF000000FBCBDE810400BF1010BBBF115
:1048F000010F08BF5FEA170722BF12F1010211F191
:1049000001014FF0004143F1000300F0004043EA91
:1049100000007047F9D35708DAE746EA064613F174
:10492000400F4FEA16461FDD13F1200FDFBF16437D
:104930000A46002120335B42C8D0C3F1200746EA73
:10494000064602FA07F74FEA164646EA0706C3F19B
:10495000200722FA03F201FA07F721FA03F14FF0D8
:10496000000342EA0702B1E746EA020646EA0646C3
:104970004FEA164646EA0106BCBF46EA0646360C32
:104980004FF000034FF000024FF000019EE72DE9C9
:10499000C048934630B491E8380007C831EA400C6B
:1049A00048BF34EA430C03D5FFF7F2FDFFF78CFF55
:1049B000F0BCBDE800882DE9C048934630B491E8CA
:1049C000380007C810F0804F08BF13F0804F03D1A4
:1049D00000F005F8FFF778FFF0BCBDE8008820F094
:1049E0007F4780EA030023F07F4C07EB0C03A3F51D
:1049F0007C5300F00040A3F1FE0392F0000F00F0A2
:104A0000B38095F0000F00F077802DE901494FEA5F
:104A100011404FEA144621EA004800FB06FC24EA54
:104A2000064708FB06F607FB08F800FB07F718EB3C
:104A300006484CEB164C4FEA124B18EB07484FEA6E
:104A400015464CEB174022EA0B4E0BFB06FC25EA01
:104A500006470EFB06F607FB0EFE0BFB07F71EEBE9
:104A6000064E4CEB164C4FF000061EEB074E4CEB7F
:104A7000174B18EB0B0840F1000018EB0E0B58EB2E
:104A8000000840F100008F1A4FF000013CBFC943FD
:104A9000661B14BFB5EB040C00213CBFC943F61BD9
:104AA0004FEA17444EEA8E0E27EA04454FEA1C47A8
:104AB00004FB07622CEA074C05FB07F70CFB05F625
:104AC00004FB0CFC16EB074642EB174216EB0C46B8
:104AD00042EB1C421BEB060658EB0202414146EA40
:104AE0009E0601D5BDE80189B619524141EB01018D
:104AF000A3F10103BDE801894FEA14454FEA1147CC
:104B000024EA054621EA074C05FB07F406FB07F7F4
:104B10000CFB06F105FB0CFC11EB074144EB1744C1
:104B20004FEA124711EB0C4144EB1C4422EA074CBC
:104B300005FB07F206FB07F70CFB06F605FB0CFC72
:104B400016EB074642EB174216EB0C4642EB1C45B0
:104B50006A1854F1000148BF7047B619524141EB41
:104B60000101A3F10103704795F0000F37D04FEA20
:104B700011424FEA144721EA024624EA074C02FB9D
:104B800007F106FB07F70CFB06F402FB0CFC14EB29
:104B9000074441EB17414FEA154714EB0C4441EB36
:104BA0001C4125EA074C02FB07F506FB07F70CFB47
:104BB00006F602FB0CFC16EB074645EB174516EB19
:104BC0000C4645EB1C42121951F1000148BF7047D9
:104BD000B619524141EB0101A3F1010370474FEABD
:104BE00014454FEA114724EA054621EA074C05FB24
:104BF00007F106FB07F70CFB06F24FF0000605FB7A
:104C00000CFC12EB074241EB174112EB0C4251EB4B
:104C10001C4148BF7047921841EB0101A3F1010309
:104C20007047490050EAC12018BF04204A0D18BF40
:104C300040F0010040F2FF72B2EB515F08BF40F05C
:104C40000200012808BF0520704730380A2801D229
:104C5000012070470020704710B500290AD008785D
:104C6000002807D005487844FFF7E0FB002801D072
:104C7000002010BD0248784410BD00004605000029
:104C80003E05000010B500290AD00878002807D09A
:104C900005487844FFF7CAFB002801D0002010BD6A
:104CA0000248784410BD0000360500002E050000C3
:104CB000FFF733B900C1814001C0804101C080418C
:104CC00000C1814001C0804100C1814000C18140DC
:104CD00001C0804101C0804100C1814000C18140CC
:104CE00001C0804100C1814001C0804101C08041BC
:104CF00000C1814001C0804100C1814000C18140AC
:104D000001C0804100C1814001C0804101C080419B
:104D100000C1814000C1814001C0804101C080418B
:104D200000C1814001C0804100C1814000C181407B
:104D300001C0804101C0804100C1814000C181406B
:104D400001C0804100C1814001C0804101C080415B
:104D500000C1814000C1814001C0804101C080414B
:104D600000C1814001C0804100C1814000C181403B
:104D700001C0804100C1814001C0804101C080412B
:104D800000C1814001C0804100C1814000C181401B
:104D900001C0804101C0804100C1814000C181400B
:104DA00001C0804100C1814001C0804101C08041FB
:104DB00000C1814000C0C101C30302C2C60607C7CB
:104DC00005C5C404CC0C0DCD0FCFCE0E0ACACB0B3B
:104DD000C90908C8D81819D91BDBDA1A1EDEDF1F6B
:104DE000DD1D1CDC14D4D515D71716D6D21213D35B
:104DF00011D1D010F03031F133F3F23236F6F7370B
:104E0000F53534F43CFCFD3DFF3F3EFEFA3A3BFBFA
:104E100039F9F83828E8E929EB2B2AEAEE2E2FEFAA
:104E20002DEDEC2CE42425E527E7E62622E2E3231A
:104E3000E12120E0A06061A163A3A26266A6A7674A
:104E4000A56564A46CACAD6DAF6F6EAEAA6A6BABBA
:104E500069A9A86878B8B979BB7B7ABABE7E7FBFEA
:104E60007DBDBC7CB47475B577B7B67672B2B373DA
:104E7000B17170B05090915193535292965657978A
:104E8000559594549C5C5D9D5F9F9E5E5A9A9B5B7A
:104E900099595898884849894B8B8A4A4E8E8F4F2A
:104EA0008D4D4C8C4484854587474686824243839A
:104EB0004181804000C1814001C0804101C08041EA
:104EC00000C1814001C0804100C1814000C18140DA
:104ED00001C0804101C0804100C1814000C18140CA
:104EE00001C0804100C1814001C0804101C08041BA
:104EF00000C1814001C0804100C1814000C18140AA
:104F000001C0804100C1814001C0804101C0804199
:104F100000C1814000C1814001C0804101C0804189
:104F200000C1814001C0804100C1814000C1814079
:104F300001C0804101C0804100C1814000C1814069
:104F400001C0804100C1814001C0804101C0804159
:104F500000C1814000C1814001C0804101C0804149
:104F600000C1814001C0804100C1814000C1814039
:104F700001C0804100C1814001C0804101C0804129
:104F800000C1814001C0804100C1814000C1814019
:104F900001C0804101C0804100C1814000C1814009
:104FA00001C0804100C1814001C0804101C08041F9
:104FB00000C1814000C0C101C30302C2C60607C7C9
:104FC00005C5C404CC0C0DCD0FCFCE0E0ACACB0B39
:104FD000C90908C8D81819D91BDBDA1A1EDEDF1F69
:104FE000DD1D1CDC14D4D515D71716D6D21213D359
:104FF00011D1D010F03031F133F3F23236F6F73709
:10500000F53534F43CFCFD3DFF3F3EFEFA3A3BFBF8
:1050100039F9F83828E8E929EB2B2AEAEE2E2FEFA8
:105020002DEDEC2CE42425E527E7E62622E2E32318
:10503000E12120E0A06061A163A3A26266A6A76748
:10504000A56564A46CACAD6DAF6F6EAEAA6A6BABB8
:1050500069A9A86878B8B979BB7B7ABABE7E7FBFE8
:105060007DBDBC7CB47475B577B7B67672B2B373D8
:10507000B17170B050909151935352929656579788
:10508000559594549C5C5D9D5F9F9E5E5A9A9B5B78
:1050900099595898884849894B8B8A4A4E8E8F4F28
:1050A0008D4D4C8C44848545874746868242438398
:1050B00041818040000000000000000030313233A8
:1050C000343536373839414243444546403058003C
:1050D000303132333435363738396162636465666E
:1050E00040307800040000080000000000000002CA
:1050F000000100001000000002400000000000A0BD
:105100000000000005400000000000C80000000092
:105110000C4000000000409C00000000194000000E
:105120000020BCBE0000000034400000BFC91B8E40
:1051300000000004B5400000504BCFD06607E2CF1E
:10514000010000006C4100003E8251AADFEEA7344E
:1051500001000000D9420000DCB5A0E23A301F9700
:10516000FFFFFFFFB4450000FD25A0C8E9A3C14F24
:10517000FFFFFFFFFF3F0000000000800000000075
:10518000FF3F00000000008000000000D85200082F
:1051900000000020880000006C0100086053000837
:1051A00088000020184B0000880100081C00000047
:1051B00043000000F8FFFFFF0C0000000E0000009D
:1051C0000F0000002E00000010010000430000004E
:1051D000F8FFFFFF00404040404040404040414118
:1051E00041414140404040404040404040404040BC
:1051F0004040404040050202020202020202020256
:105200000202020202202020202020202020200252
:1052100002020202020290909090909010101010E2
:10522000101010101010101010101010101010107E
:105230000202020202028888888888880808080812
:1052400008080808080808080808080808080808DE
:105250000202020240000000000000000000000006
:10526000000000000000000000000000000000003E
:10527000000000000000000000000000000000002E
:10528000000000000000000000000000000000001E
:10529000000000000000000000000000000000000E
:1052A00000000000000000000000000000000000FE
:1052B00000000000000000000000000000000000EE
:1052C00000000000000000000000000000000000DE
:1052D000000000000000000000A24A0400000000DE
:1052E00000000000010203040607080980250000F1
:1052F00000000400000000000000000003000100A6
:1053000001000008B1040000EA030000FF080000EB
:105310000C200000000000008025000000000400B8
:105320000000000000000000B1040000EA030000DB
:10533000FF0800000C20000000000000000000003A
:10534000000000000000000000000000000001025A
:10535000030401020304060708090204060800000A
:0400000508000131BD
:00000001FF
